:060000000A128A11122809
:10000800FE00030E83120313A6000408A7000A08C3
:10001800A8007F08A9000A128A15612C0A168A11FD
:10002800782E00308A000408840A820700342834B5
:100038002D342C342D34293420342D3420342D34CF
:100048002D3420342D342D342D3420342D340034E7
:100058002D3420342D3420342D34203428343334B6
:100068002C3431342934203447345234453447341D
:10007800003445344534503452344F344D342034F0
:1000880053347534633463346534733473340034EF
:1000980045344534503452344F344D34203446348A
:1000A800613469346C346534643400340A168A1156
:1000B80086220A128A1183120313AC01AD01AE0124
:1000C80000300A168A1117220A128A1100300A16FD
:1000D8008A15AF260A128A1101300A168A1175206C
:1000E8000A128A1140300A168A15AF260A128A1196
:1000F80012300A168A1175200A128A115F2A83168D
:1001080003134008031D89289628F1188C288D2888
:1001180096280A128A1567200A128A118316031371
:10012800C00196284308031D9A28F528F1189D2830
:100138009E28F5280A128A15E3200A128A11F01F50
:10014800A628A728B528711DAA28AB28B528701E8F
:10015800AE28AF28B5280A168A1108250A128A116E
:10016800D328711DB828B928C328701EBC28BD28FB
:10017800C3280A168A11C8260A128A11D328F01F22
:10018800C628C728D328701ECA28CB28D3280A1601
:100198008A117A230A128A11D328D328D328F11472
:1001A80006300A168A15AF260A128A1145300A1631
:1001B8008A15F9260A128A1101300A168A15E726C5
:1001C8000A128A110D3083160313E400640883129F
:1001D8000313AA000C300A168A11E4210A128A11A4
:1001E800F528831603134308031DFB285F2AF11C17
:1001F800FE28FF285F2A0A168A11B7210A128A11D7
:1002080005300A168A15E7260A128A110A128A1573
:1002180009200A128A1105300A168A15E7260A12D9
:100228008A110A128A15E3200A128A1105300A1661
:100238008A15E7260A128A11F01F232924292A2958
:100248000A128A15A5260A128A1139290D30831631
:100258000313E400640883120313AA000C300A167F
:100268008A11E4210A128A11392905300A168A15D9
:10027800E7260A128A11701E4229432949290A12BF
:100288008A15B8220A128A11492905300A168A15D0
:10029800E7260A128A110C2A0A168A11C3240A129E
:1002A8008A111C2AF01E59295A298B2983120313F3
:1002B8006208013A031D6129622968290A168A1110
:1002C800C0200A128A111C2A0A168A1593260A12B5
:1002D8008A11023A031D7129722978290A168A118E
:1002E800C0220A128A111C2A0A168A1593260A1293
:1002F8008A11013A031D812982291C2A0A168A11AA
:10030800C0200A128A111C2A1C2A1C2A1C2A0A1616
:100318008A11C3240A128A111C2A1C2AF01E952944
:100328009629C729831203136208023A031D9D29DF
:100338009E29A4290A168A11C0220A128A111C2A87
:100348000A168A1593260A128A11013A031DAD2945
:10035800AE29B4290A168A11C0200A128A111C2A49
:100368000A168A1593260A128A11033A031DBD2913
:10037800BE291C2A0A168A119A200A128A111C2AD6
:100388001C2A1C2A1C2A0A168A11C3240A128A113A
:100398001C2A1C2AF01ED129D229032A83120313EE
:1003A8006208033A031DD929DA29E0290A168A11B5
:1003B800C0200A128A111C2A0A168A1593260A12C4
:1003C8008A11023A031DE929EA29F0290A168A1135
:1003D800C0220A128A111C2A0A168A1593260A12A2
:1003E8008A11013A031DF929FA291C2A0A168A11C9
:1003F8009A200A128A111C2A1C2A1C2A1C2A0A164C
:100408008A11C3240A128A111C2A1C2A1C2A1C2A93
:10041800831603134808003A03195029013A0319AF
:100428005629033A03199229013A0319CE291C2A9D
:1004380005300A168A15E7260A128A110A168A153D
:10044800A5260A128A11031C2A2A2B2A5F2A83123C
:100458000313B301B401B501B6010A168A15932630
:100468000A128A1183160313E40064088312031323
:10047800B70000300A168A112B260A128A110A16AA
:100488008A1122270A128A110A168A11FA230A12D5
:100498008A11F01E502A512A562A0A168A15BF2791
:1004A8000A128A1105300A168A15E7260A128A11D5
:1004B8005F2A5F2A5F2A701F622A632A8328642AB8
:1004C8000A128A111228831203134208803AFF0085
:1004D80080307F02031D722A523041020318752AA8
:1004E800762A7F2AE73083120313C1000330C20043
:1004F800352C352C352C831203134208803AFF0023
:1005080080307F02031D8A2A8530410203188D2A14
:100518008E2AC62A333083120313B0000030B1008C
:100528004109C3004209C400C30A0319C40A4308A5
:10053800853EAA0044080318013E003EAB00323055
:10054800AC000030AD000A168A118B210A128A11FC
:10055800831203132B08B301B3072A08B201B207A9
:100568000A168A118A270A128A118312031330087D
:10057800613EC10031080318013E003EC200352C1F
:10058800352C352C831203134208803AFF00803043
:100598007F02031DD12AB83041020318D42AD52A74
:1005A8000D2B333083120313B0000030B100410922
:1005B800C3004209C400C30A0319C40A4308B83E69
:1005C800AA0044080318013E003EAB001E30AC00F0
:1005D8000030AD000A168A118B210A128A11831283
:1005E80003132B08B301B3072A08B201B2070A168E
:1005F8008A118A270A128A11831203133008433E8C
:10060800C10031080318013E003EC200352C352CCC
:10061800352C831203134208803AFF0081307F0291
:10062800031D182B0030410203181B2B1C2B542BC5
:10063800483083120313B0000030B1004109C300F1
:100648004209C400C30A0319C40A4308003EAA00A9
:1006580044080318013E013EAB001430AC000030E2
:10066800AD000A168A118B210A128A11831203130C
:100678002B08B301B3072A08B201B2070A168A1178
:100688008A270A128A118312031330082E3EC100EA
:1006980031080318013E003EC200352C352C352C9C
:1006A800831203134208803AFF0081307F02031D42
:1006B8005F2B3D3041020318622B632B9B2B3D308F
:1006C80083120313B0000030B1004109C30042098E
:1006D800C400C30A0319C40A43083D3EAA004408DB
:1006E8000318013E013EAB000A30AC000030AD00FB
:1006F8000A168A118B210A128A11831203132B08F6
:10070800B301B3072A08B201B2070A168A118A2769
:100718000A128A11831203133008253EC1003108DA
:100728000318013E003EC200352C352C352C8312AF
:1007380003134208803AFF0081307F02031DA62B75
:100748009A3041020318A92BAA2BE22B5D308312A1
:100758000313B0000030B1004109C3004209C400CE
:10076800C30A0319C40A43089A3EAA004408031896
:10077800013E013EAB000A30AC000030AD000A1665
:100788008A118B210A128A11831203132B08B301D1
:10079800B3072A08B201B2070A168A118A270A1271
:1007A8008A118312031330081C3EC1003108031854
:1007B800013E003EC200352C352C352C8312031324
:1007C8004208803AFF0082307F02031DED2B0A3079
:1007D80041020318F02BF12B292C703083120313DC
:1007E800B0000030B1004109C3004209C400C30A87
:1007F8000319C40A43080A3EAA0044080318013E24
:10080800023EAB000A30AC000030AD000A168A1177
:100818008B210A128A11831203132B08B301B30721
:100828002A08B201B2070A168A118A270A128A11FF
:10083800831203133008123EC10031080318013E29
:10084800003EC200352C352C352C83120313C10110
:10085800C201352C352C352C352C352C352C352C26
:10086800352C080083120313BA01BB01BC01BD017A
:100878007114FA30B8003808AC008030B900390873
:10088800AD00AE0100300A168A1117220A128A1129
:10089800F111E92D831203133D08803AFF008030DF
:1008A8007F02031D592C64303C02031C5C2C5D2C18
:1008B800152D8E300A168A15DF270A128A110A307A
:1008C8000A168A15DF270A128A110A168A11302099
:1008D8000A128A1183120313B8003808C100C1082C
:1008E800031D772C782CC72C8E300A168A15DF2723
:1008F8000A128A110B300A168A15DF270A128A1182
:100908000A168A1130200A128A1183120313B800BA
:100918003808C100C108031D922C932CC72C8E30B7
:100928000A168A15DF270A128A1109300A168A154B
:10093800DF270A128A110A168A1130200A128A1130
:1009480083120313B8003808C100C108031DAD2C79
:10095800AE2CC72C8E300A168A15DF270A128A1188
:100968000C300A168A15DF270A128A110A168A110C
:1009780030200A128A1183120313B8003808C10004
:10098800C72CC72CC72C4108013A031DCC2CCD2CF1
:10099800152DAC01AD01AE0100300A168A111722DF
:1009A8000A128A110A168A114F250A128A1183120D
:1009B80003136108013A031DE22CE32CF42C83167F
:1009C8000313E6010314E60D0A168A117A230A12A4
:1009D8008A1103300A168A15C5260A128A11122DA1
:1009E800831203136108033A031DFB2CFC2C0E2D04
:1009F8000330B800380883160313E6000A168A1174
:100A0800C8260A128A1101300A168A15C5260A1242
:100A18008A11122D83160313E601122D7110152D5C
:100A2800152D8E300A168A15DF270A128A110D3005
:100A38000A168A15DF270A128A110A168A11302027
:100A48000A128A1183120313B8003808C00040083C
:100A5800013A031D302D312D902DAC01AD01AE01B1
:100A680000300A168A1117220A128A110A168A15E4
:100A78008E260A128A1183120313B8003808AE00B2
:100A88006008B9003908AF000A168A1589260A12C3
:100A98008A110A128A1573250A128A110A168A11EE
:100AA8004F250A128A11831203136108013A031DA4
:100AB8005E2D5F2D702D83160313E6010314E60DDA
:100AC8000A168A117A230A128A1103300A168A151D
:100AD800C5260A128A118E2D831203136108033A60
:100AE800031D772D782D8A2D0330B800380883161A
:100AF8000313E6000A168A11C8260A128A11013061
:100B08000A168A15C5260A128A118E2D8316031312
:100B1800E6018E2D7110902D8E300A168A15DF276A
:100B28000A128A1113300A168A15DF270A128A1147
:100B38000A168A1130200A128A1183120313B80088
:100B48003808BE000A168A1130200A128A11831248
:100B58000313B8003808BF003E08B800B9013808C8
:100B6800B900B8013F083807BA000030031801304F
:100B78003907BB003A08BC070318BD0A3B08BD0784
:100B88003D08803AB8003708803A3802031DCE2D58
:100B980036083C02031CD12DD22DE92D83120313F4
:100BA800AC01AD01AE0100300A168A1117220A12F3
:100BB8008A11F1157110023083120313B800380836
:100BC80083160313E600E92DE92D7118EC2DED2DA0
:100BD8004E2CEE2D0800831603134E0883120313C0
:100BE800D800831603134F0883120313D900831602
:100BF8000313500883120313DA000310590D5A0D1A
:100C0800DB005B0883160313D60051088312031315
:100C1800D80083160313520883120313D9008316CE
:100C28000313530883120313DA000310590D5A0DE6
:100C3800DB005B0883160313D5005608031D252E19
:100C4800382E5508560203182A2E2B2E422E5603EC
:100C5800FF3A550783120313D80019305802031CB2
:100C6800362E372E422E382E831603135108CE0007
:100C78005208CF005308D0007B2F7B2F8316031315
:100C88005508031D482E5A2E5608550203184D2E96
:100C98004E2E5B2E5503FF3A560783120313D800D6
:100CA80019305802031C592E5A2E5B2E7B2F063002
:100CB8008312D800580883160313D400D01F652E5A
:100CC800662E672ED417D31F6A2E6B2E6C2E5417E0
:100CD800CF17FF30CE05FF30CF050030D005D21733
:100CE800FF30D105FF30D2050030D3055508560234
:100CF80003187F2E802EB52E812E01300310D10DC2
:100D0800D20DD30DFF3E031D822E0130D5025508AA
:100D180056060319902E912EAD2E0130D402540898
:100D28000739031D982E992E812EAD2EAD2EAD2E8E
:100D380001300310D00CCF0CCE0CFF3E031D9D2EAE
:100D4800013083120313D800580883160313D607FB
:100D5800AD2E56085506031DB22EB32E9C2EF02E2E
:100D6800F02E560855020318BA2EBB2EF02EBC2EB4
:100D780001300310CE0DCF0DD00DFF3E031DBD2E4B
:100D88000130D602550856060319CB2ECC2EE82E74
:100D98000130D40254080739031DD32ED42EBC2E9B
:100DA800E82EE82EE82E01300310D30CD20CD10C1B
:100DB800FF3E031DD82E013083120313D8005808B4
:100DC80083160313D507E82E56085506031DED2E86
:100DD800EE2ED72EF02EF02ED41FF32EF42E052F44
:100DE800FF30CE06FF30CF06FF30D0060130CE07E9
:100DF800003003180130CF07003003180130D00746
:100E0800052F541F082F092F1A2FFF30D106FF3046
:100E1800D206FF30D3060130D10700300318013065
:100E2800D207003003180130D3071A2FD4014E0817
:100E3800D1074F08031103184F0A0319242FD207AB
:100E4800500803110318500A03192B2FD307D31F77
:100E58002E2F2F2F432FFF30D106FF30D206FF3021
:100E6800D3060130D107003003180130D207003013
:100E780003180130D307D4010314D40D432F5108AC
:100E880083120313AA008316031352088312031351
:100E9800AB0083160313530883120313AC008316A5
:100EA8000313560883120313D8005808AD0083169D
:100EB8000313540883120313D9005908AE000A1209
:100EC8008A117C270A128A11831203132A088316AF
:100ED8000313CE00831203132B0883160313CF00CA
:100EE800831203132C0883160313D0007B2F0800EA
:100EF800831203132D08031D822F8A2F2C082B041D
:100F08002A04031D882F892FA02F8A2F0030AA00BA
:100F18000030AB000030AC00F82FF82FA02F0130C4
:100F2800AF002F08AD0701300310AC0CAB0CAA0CB6
:100F3800FF3E031D982FA02FFE302C05031DA52F63
:100F4800A62F932FBE2FBE2F0130AF002F08AD075D
:100F58000130AA07003003180130AB07003003182E
:100F68000130AC0701300310AC0CAB0CAA0CFF3EEF
:100F7800031DB72FFF302C05031DC32FC42FA82F27
:100F8800D12FD12F0130AD0201300310AA0DAB0DC6
:100F9800AC0DFF3E031DC92FD12FAB1FD42FD52F6A
:100FA800C62F2D18D82FD92FDF2FFF30AA057F3055
:100FB800AB05FF30AC050310AD0C2D08AF00B00138
:100FC800B10110300310AF0DB00DB10DFF3E031D80
:100FD800E62F2F08AA043008AB043108AC042E0809
:100FE800031DF72FF82FAC170800013402348C3496
:080FF8000534013448340434CF
:1010020064008001840A04060319003404060228DD
:101012008E300A168A15DF270A128A1511300A162F
:101022008A15DF270A128A150A168A1130200A1237
:101032008A1583120313AE002E08B000F23030027C
:10104200031C2428252866283008FF3A03192A2879
:101052002B286628F01E2E282F28452803300A1632
:101062008A15E7260A128A1583120313E201093050
:101072000A168A15AF260A128A1556300A168A15DA
:10108200F9260A128A156628831203136508AE0030
:101092002E08AA0064080A128A1577210A128A15F4
:1010A20083120313AF002F08E20008300A168A15D4
:1010B200AF260A128A158312031362080A168A15CA
:1010C200BA260A128A1566286628080083120313B4
:1010D200B401DF01AB0100300A168A113B230A1268
:1010E2008A1583120313B1003108DE000330B30006
:1010F2008830B2005630B100B10B7D28B20B7D288A
:10110200B30B7D28FE300A168A15DF270A128A15CC
:10111200BA28831203135F08013EB1003108AB0005
:1011220000300A168A113B230A128A150A168A15FA
:10113200DF270A128A15033083120313B3008830A3
:10114200B2005630B100B10BA428B20BA428B30BE5
:10115200A428013083120313B1003108DF075E08AF
:101162005F02031CB528B628BA28B4010314B40DD3
:10117200BA2883120313B408031DC028C128C82843
:10118200DE08031DC528C6288A28C828C828FF30BB
:101192000A168A15DF270A128A15033083120313EF
:1011A200B3008830B2005630B100B10BD628B20B72
:1011B200D628B30BD628FF300A168A15DF270A1263
:1011C2008A1508000B300A168A15AF260A128A15EC
:1011D2000A168A1568270A128A150318F128F328B5
:1011E200F017F428F013F01FF728F828FF284C30E6
:1011F2000A168A15F9260A128A15052920300A16B6
:101202008A15F9260A128A150F3083120313CD00AC
:101212004D08AA0018300A168A11E4210A128A150A
:101222000A168A1568270A128A15031819291B2912
:1012320070161C297012831203136408023A031DEC
:10124200232924292B296508013A031D29292A2942
:101252002B297016701E2E292F29362946300A1680
:101262008A15F9260A128A153C2920300A168A158F
:10127200F9260A128A150F3083120313CD004D0886
:10128200AA0018300A168A11E4210A128A150A16CF
:101292008A1568270A128A150318502952297115CE
:1012A20053297111711D56295729642905300A16CF
:1012B2008A15E7260A128A1552300A168A15F92665
:1012C2000A128A156A2920300A168A15F9260A1284
:1012D2008A150D3083120313CD004D08AA00243065
:1012E2000A168A11E4210A128A15080083120313CE
:1012F200AC00FC298D290430AB002B0883160313A4
:10130200CC000D2A04308312AB002B088316031382
:10131200CC000D2A0D2A0D2A83122A08003A03193D
:101322007C29013A031983290D2A0D2AA92904309F
:10133200AB002B0883160313CC000D2A0430831252
:10134200AB002B0883160313CC000D2A0D2A0D2A9D
:1013520083122A08003A03199829013A03199F298E
:101362000D2A0D2AC3290330AB002B088316031361
:10137200CC000D2A83160313CC010314CC0D0D2AC5
:101382000D2A0D2A83122A08013A0319B429023AB6
:101392000319BB290D2A0D2ADF290330AB002B08C4
:1013A20083160313CC000D2A02308312AB002B08E4
:1013B20083160313CC000D2A0D2A0D2A83122A0844
:1013C200013A0319CE29023A0319D5290D2A0D2A09
:1013D200F3290230AB002B0883160313CC000D2A2D
:1013E2000D2A0D2A83122A08033A0319EA290D2A23
:1013F2000D2A0D2A0D2A2C08003A03198D29013ACB
:101402000319A929033A0319C329013A0319DF2948
:10141200073A0319F3290D2A831603134C08112ADC
:101422000800831203133208B6003308B7003408E9
:10143200B8000310370D380DB9003908BF00BF08D6
:10144200031D242A252A2F2A0030B5000030B400BB
:101452000030B3000030B200B72AB72A3208B60013
:101462003308B7003408B80017300310B80CB70CB3
:10147200B60CFF3E031D362A3608B9003908BA00F9
:10148200B317FF30B205FF30B3050030B4053208A0
:10149200BB003308BC003408BD00BE018E30BF0261
:1014A200BF1F542A552A7A2A3F08803A8F3E0318D2
:1014B2005B2A5C2A672A0030B5000030B400003095
:1014C200B3000030B200B72AB72A672A01300310EE
:1014D200BE0CBD0CBC0CBB0CFF3E031D682A0130C8
:1014E200B6003608BF07031D772A782A672A9E2A84
:1014F2009E2A18303F02031C7F2A802A972A003036
:10150200B5000030B4000030B3000030B200B72A9A
:10151200B72A972A0130B6000310BB0DBC0DBD0DD2
:10152200BE0DB60B8D2A0130BF02972ABF08031DDC
:101532009B2A9C2A8B2A9E2A9E2A3A08031DA22AAB
:10154200AE2ABB09BC09BD09BE09BB0A0319BC0A04
:101552000319BD0A0319BE0AAE2A3E08B5003D08AA
:10156200B4003C08B3003B08B200B72A08000F30B1
:1015720083120313CD004D08AA0018300A168A11EF
:10158200E4210A128A150A168A1152200A128A15B1
:10159200831203134A08D001D0074908CF01CF07AD
:1015A2005008803AFF0080307F02031DDA2A2D3076
:1015B2004F020318DD2ADE2A1A2B7D308312031311
:1015C200CD004D08AC008030CE004E08AD00AE011B
:1015D200FF300A168A1117220A128A15FE2A0A16E3
:1015E2008A1152200A128A15831203134A08D00163
:1015F200D0074908CF01CF07FE2A831203135008F0
:10160200803AFF0080307F02031D092B33304F02E6
:10161200031C0C2B0D2BF02A0E2B83120313AC018F
:10162200AD01AE0100300A168A1117220A128A157C
:10163200662B831203135008803AFF0080307F022A
:10164200031D252B38304F02031C282B292B662B18
:10165200FA3083120313CD004D08AC008030CE0067
:101662004E08AD00AE0100300A168A1117220A1286
:101672008A15492B0A168A1152200A128A158312D8
:1016820003134A08D001D0074908CF01CF07492BDD
:10169200831203135008803AFF0080307F02031D3B
:1016A200542B32304F020318572B582B3B2B592BFC
:1016B20083120313AC01AD01AE0100300A168A1188
:1016C20017220A128A15662B662B0D30831203131A
:1016D200CD004D08AA0018300A168A11E4210A1218
:1016E2008A150800831203134808CE004908CF0068
:1016F2004A08D00003104F0D500DD1005108D200FE
:10170200D208031D852B862B8E2B0030C80000309B
:10171200C9000030CA00602C602C4B08CE004C0877
:10172200CF004D08D00003104F0D500DD1005108CD
:10173200D700D708031D9E2B9F2BA72B0030C80074
:101742000030C9000030CA00602C602C57087B3E74
:10175200CE004E08D2074808CE004908CF004A08FA
:10176200D00010300310D00CCF0CCE0CFF3E031D66
:10177200B32B4E08D1005108D7004B08CE004C08BD
:10178200CF004D08D00010300310D00CCF0CCE0C7F
:10179200FF3E031DC52B4E08D1005108D7068030ED
:1017A200CE004E08D705C917CC17FF30CB05FF3046
:1017B200CC050030CD050030D3000030D40000301D
:1017C200D5000730CE004E08D600E72B481CEA2B86
:1017D200EB2BFC2B4B08D3074C08031103184C0AC4
:1017E2000319F42BD4074D08031103184D0A0319EA
:1017F200FB2BD507FC2B01300310CA0CC90CC80CFB
:10180200FF3E031DFD2B01300310CB0DCC0DCD0D82
:10181200FF3E031D052C0130D602031D112C122C94
:10182200E72B132C0930CE004E08D600182C481C8A
:101832001B2C1C2C2D2C4B08D3074C08031103180E
:101842004C0A0319252CD4074D08031103184D0A1D
:1018520003192C2CD5072D2C01300310CA0CC90CEE
:10186200C80CFF3E031D2E2C01300310D50CD40CE6
:10187200D30CFF3E031D362C0130D602031D422C31
:10188200432C182C442C5308AA005408AB005508CA
:10189200AC005208CE004E08AD005708CF004F08EA
:1018A200AE000A128A117C270A128A1583120313C8
:1018B2002A08C8002B08C9002C08CA00602C08009E
:1018C2000B1D642C652C672D0B11643081000130D7
:1018D200DC070318DD0A0030DD07F0140A30F200DD
:1018E2000030F3005D08F501F5075C08F401F40728
:1018F2000A168A117F240A128A1573087204031DBC
:10190200832C842C862C7014862C3230F20000300A
:10191200F300831203135D08F501F5075C08F40177
:10192200F4070A168A117F240A128A1573087204B0
:10193200031D9C2C9D2C9F2CF0159F2CF430F20043
:101942000130F300831203135D08F501F5075C080B
:10195200F401F4070A168A117F240A128A158312E7
:1019620003130618B52CB62CE02C0130A000200879
:1019720083160313C507440883120313A000A101B1
:101982000A30831603134502003003180130831214
:101992000313A200A30120082205A40021082305A5
:1019A200A500250824040319D72CD82CE72C83166C
:1019B2000313C3010314C30DC401E72CE72C8316E0
:1019C2000313C501C4010314C40DE72C8312861846
:1019D200EB2CEC2C162D0130A000200883160313EB
:1019E200C207410883120313A000A1010A30831623
:1019F2000313420200300318013083120313A200C2
:101A0200A30120082205A40021082305A50025081A
:101A1200240403190D2D0E2D1D2D83160313C00151
:101A22000314C00DC1011D2D1D2D83160313C20108
:101A3200C1010314C10D1D2D83128C1E212D222DD7
:101A4200402D1A08A0007808A03E840020088313C5
:101A520080007808013E0F39A00020088316031386
:101A6200C900490879060319372D382D402D490838
:101A720083120313A0002008F800402D402D83128A
:101A82000C1E442D452D672D831603130C1E4A2D63
:101A92004B2D672D7B08B03E840083130008831210
:101AA200031399000130A0002008FB070F30A000AB
:101AB2002008FB057B087A06031D602D612D672D2A
:101AC200831603130C12672D672D672D83122908C5
:101AD200FF0028088A0027088400260E8300FE0ED5
:101AE2007E0E090083120313B100772E912DE301BC
:101AF20083160313E5010314E50D882EE30102307A
:101B0200B000300883160313E500882EE30103308A
:101B1200B000300883160313E500882E882E882E25
:101B220083122E08013A0319782D033A03197F2DE7
:101B3200013A0319872D882E882EC82DE30103143C
:101B4200E30D83160313E501882E8312E3010314C8
:101B5200E30D83160313E5010314E50D882E8312AA
:101B6200E3010314E30D0230B000300883160313BF
:101B7200E500882E8312E3010314E30D0330B00065
:101B8200300883160313E500882E882E882E8312D0
:101B92002E08003A03199F2D013A0319A62D033A84
:101BA2000319B02D013A0319BB2D882E882E092E58
:101BB200AF08031DDD2DDE2D882E0330B000300866
:101BC200E30083160313E5010314E50D882E882E26
:101BD20002308312B0003008E30083160313E501DC
:101BE2000314E50D882E83122F08023A031DFA2DE5
:101BF200FB2D882E0230B0003008E3000230B00026
:101C0200300883160313E500882E882E882E882E2E
:101C120083122E08003A0319D92D013A0319E92D2E
:101C2200033A0319F42D882E882E2D2E0330B0008E
:101C32003008E30083160313E501882E0330831274
:101C4200B0003008E3000230B000300883160313FE
:101C5200E500882E882E882E83122E08003A03195A
:101C6200172E023A03191F2E882E882E652E043055
:101C7200B0003008E30083160313E501882E043018
:101C82008312B0003008E30083160313E501031446
:101C9200E50D882E83122F08013A031D512E522E74
:101CA200882E0430B0003008E3000230B000300863
:101CB20083160313E500882E882EE301831603138F
:101CC200E501882E882E882E83122E08003A0319E9
:101CD200382E013A0319402E033A03194B2E013ACA
:101CE20003195E2E882E882E882E882E3108003AFF
:101CF2000319912D013A0319C82D033A0319092E2C
:101D0200013A03192D2E073A0319652E882E473002
:101D12000A168A15AF260A128A158312031363085C
:101D22000A168A15BA260A128A1549300A168A151F
:101D3200AF260A128A158316031365080A168A1536
:101D4200BA260A128A150800033083160313D70035
:101D52005708831203138704E73083160313DA004C
:101D62000330DB00F430E000FF30E1006108803A2C
:101D7200FF0080307F02031DC02E0D306002031C65
:101D8200C32EC42EC62E182F182F0A168A115220BF
:101D92000A128A15831203134A0883160313DF01FA
:101DA200DF0783120313490883160313DE01DE07DC
:101DB2005F08803AD7005B08803A5702031DE32E82
:101DC2005A085E020318E62EE72EF42E831603133A
:101DD2006008D7005708D9005F08DB01DB075E08FF
:101DE200DA01DA07F42E0D3083160313D7005708F1
:101DF20083120313AA0001300A168A11E4210A127F
:101E02008A15013083160313E0070318E10A003034
:101E1200E1076108803AFF0080307F02031D132F23
:101E22000D306002031C162F172FC62E182F0F30ED
:101E320083160313D700570883120313AA000C302A
:101E42000A168A11E4210A128A1583160313590805
:101E52000A168A110F200A128A15831203134008E8
:101E6200CB004108CC004208CD000030C8007030E1
:101E7200C9004030CA000A128A1573230A128A1551
:101E820083120313480883160313D100831203132A
:101E9200490883160313D200831203134A088316D8
:101EA2000313D3000030CE00C030CF00C030D000CA
:101EB2000A128A11EF250A128A15831603134E0895
:101EC20083120313B200831603134F088312031302
:101ED200B30083160313500883120313B4000A12CB
:101EE2008A1512220A128A158312031333088316E3
:101EF2000313E301E3078312031332088316031368
:101F0200E201E207DC016208D7005708DD00E31FA7
:101F12008B2F8C2F952F6208683EE200630803180E
:101F2200013E013EE300952F6308803AFF008130B5
:101F32007F02031D9E2F00306202031CA12FA22FDD
:101F4200AD2F83160313DC010314DC0D6208013E7E
:101F5200D7005708DD00AD2F831603136308803ABC
:101F6200FF0080307F02031DB82F09306202031C7C
:101F7200BB2FBC2FFF2F831603136308803AFF0089
:101F820081307F02031DC72F603062020318CA2FFF
:101F9200CB2FFF2F323083160313D700570883123B
:101FA2000313AC00AD01AE010314AE0D00300A16EE
:101FB2008A1117220A128A15831603135C08D700A6
:101FC200570883120313AC00831603135D08D8006D
:101FD200580883120313AD009D300A168A110F218F
:101FE2000A128A1583120313AC01AD01AE0100304F
:0E1FF2000A168A1117220A128A15FF2F0800FC
:1020040083120313AA008C112A08930009288C1D3B
:102014000C280D2809280E28080083120313C70072
:102024004708C300C401C5014308AA004408AB0023
:102034004508AC008E30C6004608AD00AE010A1259
:102044008A117C270A168A11831203132A08C000F6
:102054002B08C1002C08C2002F280800322832287F
:102064000A168A1536270A168A11031C3A283B28B1
:1020740032288B137908A03E84008313000883124E
:102084000313AA002A08AB000130AA002A08F907A2
:102094000F30AA002A08F9058B172B0851280800CD
:1020A40000300A168A11B9230A168A1183120313FF
:1020B4004608C201C2074508C101C1070A128A11B4
:1020C40067220A168A11831203134208CC01CC0733
:1020D4004108CB01CB074C08CA01CA074B08C90108
:1020E400C9077428080083120313AE008C282E0835
:1020F40084000A128A1115200A168A110A168A15F2
:10210400F9260A168A11013083120313AD002D0833
:10211400AE078C282E0884000A128A1115200A168C
:102124008A110038031D97289828792899280800CF
:102134000F300A168A15AF260A168A114C300A1671
:102144008A15F9260A168A110A168A11C8260A1649
:102154008A1101300A168A15C5260A168A118312B5
:102164000313E1010314E10DE830B6000330B700B6
:102174000A128A1136240A168A1108000F300A1628
:102184008A15AF260A168A1152300A168A15F926BC
:102194000A168A110A168A117A230A168A1103303A
:1021A4000A168A15C5260A168A11033083120313E8
:1021B400C2004208E100E830B6000330B7000A125A
:1021C4008A1136240A168A11080083160313871706
:1021D400BF3083120313AA002A088316031387054A
:1021E4001815143099001813831203131813831647
:1021F4000313181283120313981718168316031364
:102204000C128C1698160030FB00FA00F9008312A9
:102214000313AA002A08F800080083120313B1006C
:102224000330B0008830AF005630AE00AE0B182932
:10223400AF0B1829B00B18298312031331080A169F
:102244008A15DF270A168A11831203132C080A162B
:102254008A15DF270A168A11831203132D080A161A
:102264008A15DF270A168A1108000F300A168A1504
:10227400AF260A168A1142300A168A15F9260A165A
:102284008A110A168A1108250A168A1102300A16BA
:102294008A15C5260A168A11E83083120313B6007C
:1022A4000330B7000A128A1136240A168A11023042
:1022B40083120313C2004208E100080002308316AF
:1022C40003139F00831203138801890183160313E8
:1022D4008801890101300A168A150C270A168A1109
:1022E40038300A168A150C270A168A110C300A1679
:1022F4008A150C270A168A1106300A168A150C2725
:102304000A168A1102300A168A150C270A168A112F
:10231400080083120313AE01AF0190292A1C9329EC
:1023240094299A292C08AE070318AF0A2D08AF0781
:1023340001300310AC0DAD0DFF3E031D9B29013090
:102344000310AB0CAA0CFF3E031DA2292B082A0480
:10235400031DAD29AE299029AF292F08AB01AB0786
:102364002E08AA01AA07B62908000A168A157F268C
:102374000A168A11831203136406031DC229C32992
:10238400E3290A168A1584260A168A11831203136E
:102394006506031DCE29CF29E32902300A168A15C2
:1023A400E7260A168A11F01606300A168A15AF2691
:1023B4000A168A1152300A168A15F9260A168A1143
:1023C400E329080083120313AD000330AB002B088C
:1023D40087042A089300AE010314AE0D052A0715DD
:1023E400FB30AB002B0887058230AC00DD30AB003E
:1023F400AB0BFA29AC0BFA29FF2901308312031322
:10240400AB002B08AE072E082D0203180A2A0B2A4C
:10241400F1290C2A93018230AC00DD30AB00AB0B08
:10242400112AAC0B112A162A080083120313B200D6
:102434000330B1008830B0005630AF00AF0B202A13
:10244400B00B202AB10B202A89300A168A15DF27FF
:102454000A168A118312031332080A168A15DF2713
:102464000A168A11831203132C080A168A15DF2709
:102474000A168A11831203132D080A168A15DF27F8
:102484000A168A11831203132E080A168A15DF27E7
:102494000A168A11080083120313B301B401762AC1
:1024A4008312031333082C07B1002D08B00003185E
:1024B400B00AB31F5E2AB003831203133008B200BC
:1024C400310884008317321C831300080A168A1506
:1024D400DF270A168A11013083120313B307031886
:1024E400B40A0030B407762A3408803AB0002F08C2
:1024F400803A3002031D802A2E083302031C832AEB
:10250400842A522A852A080083160313C301C401AE
:102514000314C40DC001C1010314C10D0A168A15A8
:1025240020270A168A110A168A1160210A168A11AE
:102534000330831603138600043081008B16403069
:1025440094002230831203139400903083160313F3
:1025540087008312031387010B178B170A168A113E
:10256400E7200A168A110A168A154D270A168A11B7
:102574000A168A11DF250A168A1108000F300A1676
:102584008A15AF260A168A1146300A168A15F926C4
:102594000A168A1183120313E1010A168A15892681
:1025A4000A168A11013A031DD82AD92AEF2A0A16D3
:1025B4008A158E260A168A11023A031DE22AE32A94
:1025C400EF2A203083120313B6000330B7000A1237
:1025D4008A1136240A168A11FB2AE830831203135F
:1025E400B6000330B7000A128A1136240A168A117B
:1025F400FB2A0800831203139E01831603139E0112
:10260400831203131F15062B1F19092B0A2B062BE4
:102614000B2B4030B0000030B100831603131E08AA
:1026240083120313BB00BC013B08B2003C08B30097
:102634000A168A118A270A168A11831203131E089E
:10264400BD00BE010230FF000310BD0DBE0DFF0B27
:10265400262B30083D07BF0031080318310A3E0716
:10266400C0004008BA01BA073F08B901B9073A2BBC
:10267400080083120313AF000330AE008830AD00AE
:102684005630AC00AC0B442BAD0B442BAE0B442B9F
:102694000A168A159D260A168A1183120313B0019D
:1026A40003300A168A1102200A168A1183120313B0
:1026B4002F080A168A1102200A168A11831203139C
:1026C4002B080A168A1102200A168A118312031390
:1026D4008C11FF3093006E2B8C1D712B722B6E2B83
:1026E400732B1308AC002C08B0003008792B0800B9
:1026F400323083120313B3003308AC00FF30B4004C
:102704003408AD00FF30B5003508AE0000300A16BD
:102714008A1117220A168A11FF3083120313B30099
:102724003308AC00AE30B4003408AD009D300A1656
:102734008A110F210A168A1183120313AC01AD0109
:10274400AE0100300A168A1117220A168A114C307B
:1027540083120313B500CE30B4008130B300B30B41
:10276400B12BB40BB12BB50BB12B64000800831251
:102774000313C800D62B9F111F129F12E72B9F151E
:102784001F129F12E72B9F111F169F12E72B9F15F5
:102794001F169F12E72B9F111F129F16E72BC501CF
:1027A400C601F92BF92BE72B4808003A0319BD2B76
:1027B400013A0319C12B033A0319C52B013A031932
:1027C400C92B073A0319CD2BD12B5330C700C70BA4
:1027D400E92B0A168A11FC220A168A1183120313A2
:1027E4003A08C601C6073908C501C507F92B080010
:1027F400831203136408023A031D012C022C0E2CCD
:102804006508023A031D072C082C0E2C83160313AB
:10281400C8010314C80D3B2C83126408043A031D39
:10282400142C152C222C6508023A031D1A2C1B2C7F
:10283400222C0230AA002A0883160313C8003B2C5A
:1028440083126408023A031D282C292C352CE50830
:10285400031D2D2C2E2C352C0330AA002A08831698
:102864000313C8003B2C83160313C8013B2C3B2CD9
:102874003B2C080083120313B0000330AF008830F0
:10288400AE005630AD00AD0B452CAE0B452CAF0B56
:10289400452C0A168A159D260A168A1106300A1630
:1028A4008A1102200A168A110A168A159D260A160A
:1028B4008A1102300A168A1102200A168A1183121A
:1028C40003132B080A168A1102200A168A1183128E
:1028D40003132C080A168A1102200A168A1183127D
:1028E400031330080A168A1102200A168A110A16DE
:1028F4008A159D260A168A110800730872040319A2
:10290400842C852CBB2CF7010314F70D952C013076
:102914000310F20DF30DFF3E031D8A2C0130F60067
:102924007608F707952CF31F982C992C892C9B2C4F
:102934009B2C73087502031DA12C72087402031CDE
:10294400A42CA52CAC2C7208F4027308031CF50308
:10295400F502AC2C01300310F30CF20CFF3E031D06
:10296400AD2C0130F702031DB82CB92C9B2CBB2CC9
:10297400BB2C7508F301F3077408F201F207C22CAB
:102984000800F01BC62CC72CD72C0A168A159826CB
:102994000A168A11013A0319D02CD12CD72C0A1605
:1029A4008A119A200A168A11072D701ADA2CDB2C48
:1029B400EB2C0A168A1598260A168A11003A03196E
:1029C400E42CE52CEB2C0A168A11C0220A168A1173
:1029D400072D7119EE2CEF2CFF2C0A168A15982658
:1029E4000A168A11033A0319F82CF92CFF2C0A163B
:1029F4008A11C0200A168A11072D0A168A11372156
:102A04000A168A11072D072D072D0800323083126C
:102A14000313B3003308AC00AD01AE010314AE0DD3
:102A240000300A168A1117220A168A118312031318
:102A3400AC01B430B3003308AD009D300A168A11DE
:102A44000F210A168A1183120313AC01AD01AE01E2
:102A540000300A168A1117220A168A114C30831282
:102A64000313B500CE30B4008130B300B30B382D5E
:102A7400B40B382DB50B382D64004C30831203137E
:102A8400B500CE30B4008130B300B30B472DB40B86
:102A9400472DB50B472D640008000F300A168A1520
:102AA400AF260A168A1121300A168A15F9260A1643
:102AB4008A117D3083120313B3003308AC008030D5
:102AC400B4003408AD00AE01FF300A168A11172293
:102AD4000A168A11FE3083120313B3003308AC00C4
:102AE4000C30B4003408AD009C300A168A110F2152
:102AF4000A168A1183120313AC01AD01AE01003032
:102B04000A168A1117220A168A1133308312031304
:102B1400B5008930B4000030B300B30B8F2DB40B73
:102B24008F2DB50B8F2D08008C3403340C344934AD
:102B3400083447340834493420344234403480342F
:102B440020344A340834493408344A34083480344C
:102B54000C344934063480340C34473430348C34E7
:102B640001340B344C340834803404344C34103481
:102B7400803404344C3410348034043448340834FD
:102B84004C3410344F3420348034083443341034FB
:102B94008C34043409344A344034493410344A34CB
:102BA40010344934303445343034803420344234A1
:102BB4001C344734203442343034903083120313AD
:102BC400AC000130AD001B30AE000030AF000A167F
:102BD4008A114D220A168A11AB3083120313AC00FA
:102BE4000130AD001930AE000030AF000A168A1172
:102BF4004D220A168A11103083120313AC000130DF
:102C0400AD001D30AE000030AF000A168A114D220F
:102C14000A168A11C43083120313AC000130AD00CC
:102C24001530AE000030AF000A168A114D220A1684
:102C34008A11E73083120313AC000030AD00053075
:102C4400AE000030AF000A168A114D220A168A110E
:102C5400080083120313BA00BB013A08B80038080D
:102C6400BB043308B8003807B9003908BB0434087A
:102C7400B80001300310B80DFF3E031D3C2E0310B5
:102C8400380DB9003908BB043508B8000230031008
:102C9400B80DFF3E031D492E0310380DB900390845
:102CA400BB043608B80003300310B80DFF3E031D03
:102CB400562E0310380DB9003908BB043708B80084
:102CC40004300310B80DFF3E031D632E0310380DAE
:102CD400B9003908BB047F30B8003808BB053B088D
:102CE4000A168A15A1270A168A110800F001F101B3
:102CF400F801F901FA01FB01DC01DD01DE01DF016C
:102D0400E001E101E2018313A0308400CE300A1215
:102D14008A1501200A168A118317D930FD0015304F
:102D2400FE009630FF00903084000A168A15DA26D9
:102D34000A168A112D30FD001F30FE008430FF007A
:102D4400103084000A168A15DA260A168A118313AB
:102D5400EC30FD000730FE00F930FF00E530840060
:102D64000A168A15DA260A168A116630FD001E3004
:102D7400FE007C30FF00633084000A168A15DA26D0
:102D84000A168A1183010A128A115A2832308312D0
:102D94000313B3003308AC00AD01AE010314AE0D50
:102DA40000300A168A1117220A168A110A168A1581
:102DB40089260A168A11023A031DE12EE22EFA2E02
:102DC4000A168A158E260A168A11023A031DEB2E5C
:102DD400EC2EFA2E83120313AC015530B3003308E2
:102DE400AD009D300A168A110F210A168A11072F89
:102DF40083120313AC015A30B3003308AD009D3085
:102E04000A168A110F210A168A1183120313AC01C0
:102E1400AD01AE0100300A168A1117220A168A1172
:102E24004C3083120313B500CE30B4008130B300AC
:102E3400B30B1A2FB40B1A2FB50B1A2F640008000A
:102E440040300A168A15AF260A168A115B2F013004
:102E540083120313AE002E08E5074E300A168A15B6
:102E6400F9260A168A116D2F013083120313E50225
:102E740053300A168A15F9260A168A116D2F013065
:102E840083120313AE002E08E40745300A168A1590
:102E9400F9260A168A116D2F013083120313E402F6
:102EA40057300A168A15F9260A168A116D2F6D2FC6
:102EB4006D2F0A168A1593260A168A11003A0319E9
:102EC4004E2F013A0319362F033A0319412F013AC1
:102ED4000319292F6D2F01300A168A15AF260A16F9
:102EE4008A118312031364080A168A15BA260A166D
:102EF4008A1103300A168A15AF260A168A1183121C
:102F0400031365080A168A15BA260A168A110800D8
:102F140083120313B601B11F902F912F9A2FB0097A
:102F2400B109B00A0319B10AB6010314B60D9A2FF8
:102F3400B31F9D2F9E2FA82FB209B309B20A0319FC
:102F4400B30A0130B4003408B606A82FB701B8019B
:102F5400310830040319AF2FB02FEE2FB50103143D
:102F6400B50DC02F01300310B00DB10DFF3E031D90
:102F7400B52F0130B4003408B507C02FB11FC32FDB
:102F8400C42FB42FC62FC62F01300310B70DB80DB0
:102F9400FF3E031DC72F31083302031DD32F300812
:102FA4003202031CD62FD72FDF2F3008B20231088C
:102FB400031CB303B3023714DF2F01300310B10C29
:102FC400B00CFF3E031DE02F0130B502031DEB2FB3
:102FD400EC2FC62FEE2FEE2F3608031DF22FF82FFD
:102FE400B709B809B70A0319B80AF82F3808B101A4
:0C2FF400B1073708B001B007FF2F08003C
:103CF800033401340334831203136308832E08004A
:103D0800831603136508882E0800831203136408BA
:103D18008D2E0800831203136508922E0800831263
:103D280003136008972E08008316031366089C2E59
:103D38000800FC3083120313AA002A088705871499
:103D48000800F119A82EA92EAB2E0310AE2E0314CD
:103D5800AE2EAE2E080083120313AD00AD172D084A
:103D68000A168A150C270A168A15080083120313E7
:103D7800AD002D08303E0A168A15F9260A168A154E
:103D8800080083120313AB002B08AA002A08E007D7
:103D980004306002031CD12ED22ED52E0430E0024E
:103DA800D52E08007E088A007F088200D6260A16CB
:103DB8008A158000840A04087D0603190034FF0A66
:103DC8000319FE0ADA2E83120313AC008D300A168B
:103DD8008A15DF270A168A15831203132C080A1678
:103DE8008A15DF270A168A15080083120313AC0008
:103DF8000911891009142C088800091509110730C0
:103E0800AB007D30AA00AA0B072FAB0B072F0800C9
:103E180083120313AC000911891009102C088800BB
:103E2800091509110D30AB00FB30AA00AA0B1A2F97
:103E3800AB0B1A2F1F2F08008312031385013F3085
:103E4800831603138500A130831203139F000230E9
:103E5800831603139F00533083120313AA00AA0B7F
:103E6800332F080083120313981C3B2F3C2F412F3C
:103E78001812181603104C2F4C2F78087906031DBA
:103E8800462F472F492F03104C2F03144C2F4C2F2C
:103E98000800033083120313AE008830AD0056309B
:103EA800AC00AC0B552FAD0B552FAE0B552F8030FA
:103EB8000A168A15DF270A168A1584300A168A1503
:103EC800DF270A168A1508000A168A1152200A16D0
:103ED8008A15831203134A08803AFF0080307F0254
:103EE800031D782F65304902031C7B2F7C2F802F00
:103EF8000310832F832F832F0314832F832F08000E
:103F08008C3402340D3448341C3448341C344F3457
:103F18004034803410344D341C344C341C34483410
:103F280040348034103445341C3445341C34453412
:103F38001C3448341C344834403483120313B20010
:103F4800AB015E08013EB1003108AC0032080A1628
:103F58008A113C240A168A15013083120313B10012
:103F68003108DE07AB01AC015E080A168A113C2451
:103F78000A168A150800831203136408013A031D00
:103F8800C62FC72FDE2F6508033A031DCC2FCD2F70
:103F9800DE2FAC01AD01AE0100300A168A111722DE
:103FA8000A168A1504300A168A15E7260A168A158B
:103FB8007017DE2F080083120313AB00E42FE42FE1
:103FC8007A08013E0F397B060319EB2FEC2FE42FFB
:103FD8008B132B08AA007A08B03E84002A088313A2
:103FE80080007A08013E0F39AA002A08FA008316D1
:083FF80003130C168B170800DF
:02400E0032FF7F
:00000001FF
