:060000000A128A11122809
:10000800FE00030E83120313A6000408A7000A08C3
:10001800A8007F08A9000A128A11C22E0A128A159E
:10002800452B831203134208803AFF0080307F0279
:10003800031D2028523041020318232824282D2884
:10004800E73083120313C1000330C200E329E32918
:10005800E329831203134208803AFF0080307F02AD
:10006800031D38288530410203183B283C28742892
:10007800333083120313B0000030B1004109C300CC
:100088004209C400C30A0319C40A4308853EAA00EA
:1000980044080318013E003EAB003230AC0000308B
:1000A800AD000A128A1594200A128A1183120313CA
:1000B8002B08B301B3072A08B201B2070A128A153E
:1000C80054250A128A11831203133008613EC100B5
:1000D80031080318013E003EC200E329E329E32961
:1000E800831203134208803AFF0080307F02031D09
:1000F8007F28B8304102031882288328BB28333070
:1001080083120313B0000030B1004109C300420953
:10011800C400C30A0319C40A4308B83EAA00440825
:100128000318013E003EAB001E30AC000030AD00AD
:100138000A128A1594200A128A11831203132B08B3
:10014800B301B3072A08B201B2070A128A15542567
:100158000A128A11831203133008433EC100310882
:100168000318013E003EC200E329E329E329831274
:1001780003134208803AFF0081307F02031DC6281E
:10018800003041020318C928CA28022948308312BE
:100198000313B0000030B1004109C3004209C40094
:1001A800C30A0319C40A4308003EAA0044080318F6
:1001B800013E013EAB001430AC000030AD000A1225
:1001C8008A1594200A128A11831203132B08B3018B
:1001D800B3072A08B201B2070A128A1554250A126F
:1001E8008A118312031330082E3EC1003108031808
:1001F800013E003EC200E329E329E32983120313E9
:100208004208803AFF0081307F02031D0D293D30EE
:10021800410203181029112949293D30831203137B
:10022800B0000030B1004109C3004209C400C30A4C
:100238000319C40A43083D3EAA0044080318013EB6
:10024800013EAB000A30AC000030AD000A128A153E
:1002580094200A128A11831203132B08B301B307DF
:100268002A08B201B2070A128A1554250A128A11FD
:10027800831203133008253EC10031080318013EDC
:10028800003EC200E329E329E3298312031342084D
:10029800803AFF0081307F02031D54299A304102C1
:1002A80003185729582990295D3083120313B00089
:1002B8000030B1004109C3004209C400C30A031950
:1002C800C40A43089A3EAA0044080318013E013EA6
:1002D800AB000A30AC000030AD000A128A15942039
:1002E8000A128A11831203132B08B301B3072A08D1
:1002F800B201B2070A128A1554250A128A1183120A
:10030800031330081C3EC10031080318013E003EAB
:10031800C200E329E329E329831203134208803A40
:10032800FF0082307F02031D9B290A304102031817
:100338009E299F29D729703083120313B0000030FB
:10034800B1004109C3004209C400C30A0319C40A21
:1003580043080A3EAA0044080318013E023EAB00C7
:100368000A30AC000030AD000A128A1594200A1237
:100378008A11831203132B08B301B3072A08B201A9
:10038800B2070A128A1554250A128A118312031316
:100398003008123EC10031080318013E003EC20079
:1003A800E329E329E32983120313C101C201E329E5
:1003B800E329E329E329E329E329E329E3290800D9
:1003C80083120313BA01BB01BC01BD017114FA30D9
:1003D800B8003808AC008030B9003908AD00AE016B
:1003E80000300A128A155A210A128A117111892BB2
:1003F800831203133D08803AFF0080307F02031DFB
:10040800072A64303C02031C0A2A0B2ABD2A8E30B4
:100418000A168A11DF260A128A110A300A168A1168
:10042800DF260A128A110A168A1121270A128A114E
:1004380083120313B8003808C100C108031D252A18
:10044800262A752A8E300A168A11DF260A128A1180
:100458000B300A168A11DF260A128A110A168A1127
:1004680021270A128A1183120313B8003808C10021
:10047800C108031D402A412A752A8E300A168A119E
:10048800DF260A128A1109300A168A11DF260A1293
:100498008A110A168A1121270A128A118312031354
:1004A800B8003808C100C108031D5B2A5C2A752AF8
:1004B8008E300A168A11DF260A128A110C300A16A3
:1004C8008A11DF260A128A110A168A1121270A12AE
:1004D8008A1183120313B8003808C100752A752AD7
:1004E800752A4108013A031D7A2A7B2ABD2AAC01E4
:1004F800AD01AE0100300A128A155A210A128A117A
:100508000A128A1559240A128A11831203136008E1
:10051800013A031D902A912AA02AE3010314E30D4E
:100528000A128A1501220A128A1103300A168A1140
:10053800F7250A128A11BA2A831203136008033AAC
:10054800031DA72AA82AB82A0330B8003808E300F0
:100558000A128A1591210A128A1101300A168A1183
:10056800F7250A128A11BA2AE301BA2A7110BD2A9C
:10057800BD2A8E300A168A11DF260A128A110D301A
:100588000A168A11DF260A128A110A168A112127E9
:100598000A128A1183120313B8003808C0004008F1
:1005A800013A031DD82AD92A322BAC01AD01AE017C
:1005B80000300A128A155A210A128A110A168A115B
:1005C800C0250A128A1183120313B8003808AE0036
:1005D8005D08B9003908AF000A168A11BB250A124E
:1005E8008A110A128A11CF240A128A110A128A154C
:1005F80059240A128A11831203136008013A031D51
:10060800062B072B162BE3010314E30D0A128A1598
:1006180001220A128A1103300A168A11F7250A12D2
:100628008A11302B831203136008033A031D1D2B14
:100638001E2B2E2B0330B8003808E3000A128A1547
:1006480091210A128A1101300A168A11F7250A1215
:100658008A11302BE301302B7110322B8E300A16A1
:100668008A11DF260A128A1113300A168A11DF2628
:100678000A128A110A168A1121270A128A1183126C
:100688000313B8003808BE000A168A1121270A1277
:100698008A1183120313B8003808BF003E08B80057
:1006A800B9013808B900B8013F083807BA00003066
:1006B800031801303907BB003A08BC070318BD0A04
:1006C8003B08BD073D08803AB8003708803A380231
:1006D800031D702B36083C02031C732B742B892BCB
:1006E80083120313AC01AD01AE0100300A128A1562
:1006F8005A210A128A1171157110023083120313DC
:10070800B8003808E300892B892B71188C2B8D2BA6
:10071800FC298E2B0800033083120313D8005808D5
:100728008704E73083160313E5000330E600F4304E
:10073800EB00FF30EC006C08803AFF0080307F024D
:10074800031DA82B0C306B02031CAB2BAC2BAE2B60
:100758000A2C0A2C0A168A1143270A128A118312B4
:1007680003134A0883160313EA01EA0783120313E3
:10077800490883160313E901E9076A08803A8312D6
:100788000313D800831603136608803A83120313F1
:100798005802031DD32B8316031365086902031837
:1007A800D62BD72BE82B831603136B08831203135E
:1007B800D800580883160313E4006A08E601E60720
:1007C8006908E501E507E82B0D3083120313D8000B
:1007D8005808AA0001300A128A1513240A128A112D
:1007E800013083160313EB070318EC0A0030EC07FB
:1007F8006C08803AFF0080307F02031D052C0C3006
:100808006B02031C082C092CAE2B0A2C05300A1687
:100818008A1108260A128A110F3083120313D8008E
:100828005808AA000C300A128A1513240A128A11D1
:1008380005300A168A1108260A128A11831603132C
:1008480064080A168A1100270A128A1183120313F0
:100858004008CB004108CC004208CD008F30C800CA
:100868006230C9004030CA000A128A11D4250A121F
:100878008A11831203134808B2004908B3004A08D2
:10088800B4000A128A155A270A128A11831203130E
:10089800330883160313EE01EE078312031332089D
:1008A80083160313ED01ED07E7016D0883120313A7
:1008B800D800580883160313E800EE1F642C652C33
:1008C800812C6D0983120313D800831603136E0954
:1008D80083120313D900D80A0319D90A5808683EA5
:1008E80083160313ED008312031359080318013EFE
:1008F800013E83160313EE00812C6E08803AFF0038
:1009080081307F02031D8A2C00306D02031C8D2C60
:100918008E2C9D2C83160313E7010314E70D6D0835
:10092800013E83120313D800580883160313E80006
:100938009D2C193083120313D8005808AC00AD0160
:10094800AE010314AE0D00300A128A155A210A129C
:100958008A1183160313670883120313D8005808F3
:10096800AC0083160313680883120313D9005908CF
:10097800AD009D300A128A1517200A128A118312B7
:100988000313AC01AD01AE0100300A128A155A21D9
:100998000A128A11080083120313B100A62DE72C4E
:1009A800DE01DF010314DF0DB72DDE010230B000D8
:1009B8003008DF00B72DDE010330B0003008DF005B
:1009C800B72DB72DB72D2E08013A0319D42C033AA9
:1009D8000319D92C013A0319DF2CB72DB72D122D85
:1009E800DE010314DE0DDF01B72DDE010314DE0D79
:1009F800DF010314DF0DB72DDE010314DE0D023015
:100A0800B0003008DF00B72DDE010314DE0D03301F
:100A1800B0003008DF00B72DB72DB72D2E08003AEB
:100A28000319F42C013A0319F92C033A0319002D80
:100A3800013A0319082DB72DB72D4A2DAF08031D0C
:100A4800262D272DB72D0330B0003008DE00DF013A
:100A58000314DF0DB72DB72D0230B0003008DE00CB
:100A6800DF010314DF0DB72D2F08023A031D3D2DBA
:100A78003E2DB72D0230B0003008DE000230B00045
:100A88003008DF00B72DB72DB72DB72D2E08003A47
:100A98000319222D013A0319302D033A0319382D71
:100AA800B72DB72D682D0330B0003008DE00DF0108
:100AB800B72D0330B0003008DE000230B000300837
:100AC800DF00B72DB72DB72D2E08003A0319572D83
:100AD800023A03195D2DB72DB72D952D0430B000BE
:100AE8003008DE00DF01B72D0430B0003008DE002A
:100AF800DF010314DF0DB72D2F08013A031D852DE3
:100B0800862DB72D0430B0003008DE000230B0006A
:100B18003008DF00B72DB72DDE01DF01B72DB72D67
:100B2800B72D2E08003A0319722D013A0319782DB2
:100B3800033A0319802D013A0319902DB72DB72DCB
:100B4800B72DB72D3108003A0319E72C013A0319DC
:100B5800122D033A03194A2D013A0319682D073A51
:100B68000319952DB72D47300A168A11E1250A1267
:100B78008A11831203135E080A168A11EC250A12D9
:100B88008A1149300A168A11E1250A128A1183123C
:100B980003135F080A168A11EC250A128A11080045
:100BA800831203134808CE004908CF004A08D00032
:100BB80003104F0D500DD1005108D200D208031D6B
:100BC800E62DE72DEF2D0030C8000030C9000030B9
:100BD800CA00C12EC12E4B08CE004C08CF004D08CC
:100BE800D00003104F0D500DD1005108D700D70881
:100BF800031DFF2D002E082E0030C8000030C9004C
:100C08000030CA00C12EC12E57087B3ECE004E08C8
:100C1800D2074808CE004908CF004A08D000103053
:100C28000310D00CCF0CCE0CFF3E031D142E4E0823
:100C3800D1005108D7004B08CE004C08CF004D0812
:100C4800D00010300310D00CCF0CCE0CFF3E031D8B
:100C5800262E4E08D1005108D7068030CE004E0807
:100C6800D705C917CC17FF30CB05FF30CC050030AE
:100C7800CD050030D3000030D4000030D500073057
:100C8800CE004E08D600482E481C4B2E4C2E5D2E0A
:100C98004B08D3074C08031103184C0A0319552EA7
:100CA800D4074D08031103184D0A03195C2ED50704
:100CB8005D2E01300310CA0CC90CC80CFF3E031D81
:100CC8005E2E01300310CB0DCC0DCD0DFF3E031D64
:100CD800662E0130D602031D722E732E482E742EF6
:100CE8000930CE004E08D600792E481C7C2E7D2E69
:100CF8008E2E4B08D3074C08031103184C0A03190E
:100D0800862ED4074D08031103184D0A03198D2E9A
:100D1800D5078E2E01300310CA0CC90CC80CFF3E33
:100D2800031D8F2E01300310D50CD40CD30CFF3EBD
:100D3800031D972E0130D602031DA32EA42E792E53
:100D4800A52E5308AA005408AB005508AC00520859
:100D5800CE004E08AD005708CF004F08AE000A126B
:100D68008A15CA250A128A11831203132A08C80091
:100D78002B08C9002C08CA00C12E08000B1DC52E5F
:100D8800C62E8D2F0B11643081000130DB0703184C
:100D9800DC0A0030DC07F0140A30F2000030F300FF
:100DA8005C08F501F5075B08F401F4070A128A15D7
:100DB80001230A128A1173087204031DE42EE52E1A
:100DC800E72E7014E72E3230F2000030F300831261
:100DD80003135C08F501F5075B08F401F4070A1230
:100DE8008A1501230A128A1173087204031DFD2E45
:100DF800FE2E002FF015002FF430F2000130F30022
:100E0800831203135C08F501F5075B08F401F40786
:100E18000A128A1501230A128A118312031306186B
:100E2800162F172F412F0130A00020088316031317
:100E3800C207410883120313A000A1010A308316D8
:100E48000313420200300318013083120313A20077
:100E5800A30120082205A40021082305A5002508D0
:100E680024040319382F392F482F83160313C00180
:100E78000314C00DC101482F482F83160313C20164
:100E8800C1010314C10D482F83128C1E4C2F4D2F06
:100E9800672F1A08A0007808A03E84002008831352
:100EA80080007808013E0F39A0002008E1006108A1
:100EB80079060319602F612F672F6108A0002008A9
:100EC800F800672F672F0C1E6A2F6B2F8D2F831644
:100ED80003130C1E702F712F8D2F7B08B03E8400DA
:100EE800831300088312031399000130A00020081F
:100EF800FB070F30A0002008FB057B087A06031DBE
:100F0800862F872F8D2F831603130C128D2F8D2F6D
:100F18008D2F83122908FF0028088A0027088400DB
:100F2800260E8300FE0E7E0E09008C3402340D342A
:100F380048341C3448341C344F3440348034103422
:100F48004D341C344C341C34483440348034103410
:100F580045341C3445341C3445341C3448341C3462
:100F6800483440348C3403340C344934083447341E
:100F780008344934203442344034803420344A34EC
:100F88000834493408344A34083480340C34493439
:100F9800063480340C34473430348C3401340B3408
:100FA8004C340834803404344C34103480340434E1
:100FB8004C34103480340434483408344C341034FD
:100FC8004F342034803408344334103483120313EC
:100FD80085013F30831603138500A1308312031364
:100FE8009F000230831603139F00533083120313AC
:100FF800AA00AA0BFD2F080083120313981C0528CA
:1010080006280B2818121816031016281628780810
:101018007906031D10281128132803101628031415
:1010280016281628080083120313B1000330B000F5
:101038008A30AF005630AE00AE0B2028AF0B202808
:10104800B00B202827288312031331080A168A11A7
:10105800DF260A128A15831203132C080A168A112E
:10106800DF260A128A15831203132D080A168A111D
:10107800DF260A128A1508000F300A168A11E125A0
:101088000A128A1542300A168A111A260A128A1575
:101098000A128A1589230A128A1502300A168A1139
:1010A800F7250A128A15E83083120313B6000330B5
:1010B800B7000A128A11E4210A128A150230831233
:1010C8000313C2004208E00008000230831603132D
:1010D8009F00831203138801890183160313880173
:1010E800890101300A168A1140260A128A153830F9
:1010F8000A168A1140260A128A150C300A168A1115
:1011080040260A128A1506300A168A1140260A1243
:101118008A1502300A168A1140260A128A15080012
:1011280083120313AE01AF0199282A1C9C289D281D
:10113800A3282C08AE070318AF0A2D08AF07013003
:101148000310AC0DAD0DFF3E031DA42801300310A4
:10115800AB0CAA0CFF3E031DAB282B082A04031D69
:10116800B628B7289928B8282F08AB01AB072E084E
:10117800AA01AA07BF280800F01AC328C428F02823
:101188000A168A11B1250A128A15831203136406F6
:10119800031DCF28D028F0280A168A11B6250A126E
:1011A8008A15831203136506031DDB28DC28F02843
:1011B80002300A168A1108260A128A15F016063015
:1011C8000A168A11E1250A128A1552300A168A115E
:1011D8001A260A128A15F02808008E300A168A1173
:1011E800DF260A128A1511300A168A11DF260A121A
:1011F8008A150A168A1121270A128A1583120313DF
:10120800AE002E08AF002F08FE3A031D0C290D2949
:10121800232903300A168A1108260A128A1583160A
:101228000313C80109300A168A11E1250A128A1522
:1012380056300A168A111A260A128A152329080016
:1012480083160313C001C1010314C10D0A128A11C8
:10125800EA270A128A150A128A1569200A128A15BB
:101268000130831603138600043081008B1640304A
:1012780094002230831203139400903083160313D2
:1012880087008312031387010B178B170A168A111D
:10129800D8270A128A150A168A1187260A128A1569
:1012A8000A128A15A0240A128A1508008312031349
:1012B800B2000330B1008A30B0005630AF00AF0B37
:1012C8006329B00B6329B10B63296A2989300A168F
:1012D8008A11DF260A128A158312031332080A16A6
:1012E8008A11DF260A128A15831203132C080A169C
:1012F8008A11DF260A128A15831203132D080A168B
:101308008A11DF260A128A15831203132E080A1679
:101318008A11DF260A128A1508001930831203136E
:10132800B3003308AC00AD01AE010314AE0D0030BC
:101338000A128A155A210A128A1583120313AC015C
:101348005530B3003308AD009D300A128A151720B6
:101358000A128A1583120313AC01AD01AE010030E5
:101368000A128A155A210A128A15A5308312031304
:10137800B500E030B400FE30B300B30BC129B40BA4
:10138800C129B50BC129080083120313B301B401A5
:10139800F1298312031333082C07B1002D08B0007C
:1013A8000318B00AB31FD929B003831203133008F6
:1013B800B200310884008317321C831300080A1610
:1013C8008A11DF260A128A15013083120313B30724
:1013D8000318B40A0030B407F1293408803AB00081
:1013E8002F08803A3002031DFB292E083302031C04
:1013F800FE29FF29CD29002A08001930831203137A
:10140800B3003308AC00FF30B4003408AD00FF303F
:10141800B5003508AE0000300A128A155A210A12A2
:101428008A15FF3083120313B3003308AC00A930C8
:10143800B4003408AD009D300A128A1517200A122C
:101448008A1583120313AC01AD01AE0100300A12F4
:101458008A155A210A128A15A53083120313B5007A
:10146800E030B400FE30B300B30B382AB40B382A8E
:10147800B50B382A0800831203139E018316031341
:101488009E01831203131F15492A1F194C2A4D2A3E
:10149800492A4E2A4030B0000030B10083160313A9
:1014A8001E0883120313BB00BC013B08B2003C08B2
:1014B800B3000A128A1554250A128A1583120313D7
:1014C8001E08BD00BE010230FF000310BD0DBE0D99
:1014D800FF0B692A30083D07BF0031080318310A9D
:1014E8003E07C0004008BA01BA073F08B901B9076A
:1014F8007D2A080083120313C8009B2A9F111F121C
:101508009F12AC2A9F151F129F12AC2A9F111F16FB
:101518009F12AC2A9F151F169F12AC2A9F111F12EB
:101528009F16AC2AC501C601BE2ABE2AAC2A4808A5
:10153800003A0319822A013A0319862A033A031941
:101548008A2A013A03198E2A073A0319922A962AF7
:101558005330C700C70BAE2A0A128A153F220A1257
:101568008A15831203133A08C601C6073908C5014C
:10157800C507BE2A0800831203136408023A031D34
:10158800C62AC72AD32A6508023A031DCC2ACD2ABF
:10159800D32A83160313C5010314C50D002B831228
:1015A8006408043A031DD92ADA2AE72A6508023AA8
:1015B800031DDF2AE02AE72A0230AA002A08831638
:1015C8000313C500002B83126408023A031DED2A99
:1015D800EE2AFA2AE508031DF22AF32AFA2A03302A
:1015E800AA002A0883160313C500002B83160313C9
:1015F800C501002B002B002B080073087204031987
:10160800062B072B3D2BF7010314F70D172B013081
:101618000310F20DF30DFF3E031D0C2B0130F600F5
:101628007608F707172BF31F1A2B1B2B0B2B1D2BD9
:101638001D2B73087502031D232B72087402031CEB
:10164800262B272B2E2B7208F4027308031CF50394
:10165800F5022E2B01300310F30CF20CFF3E031D94
:101668002F2B0130F702031D3A2B3B2B1D2B3D2B53
:101678003D2B7508F301F3077408F201F207442BB8
:101688000800F001F101F801F901FA01FB018313E7
:101698005B30840063300A168A11CF250A128A1536
:1016A800A0308400CA300A168A11CF250A128A157A
:1016B8008317E130FD000730FE009930FF009030BD
:1016C80084000A168A1131260A128A158313E43017
:1016D800FD001630FE006D30FF00CA3084000A1687
:1016E8008A1131260A128A156630FD001530FE006F
:1016F800AE30FF00633084000A168A1131260A12C0
:101708008A1583010A128A15472E1930831203138A
:10171800B3003308AC00AD01AE010314AE0D0030C8
:101728000A128A155A210A128A1583120313AC0168
:10173800AA30B3003308AD009D300A128A1517206D
:101748000A128A1583120313AC01AD01AE010030F1
:101758000A128A155A210A128A15A5308312031310
:10176800B500E030B400FE30B300B30BB92BB40BB6
:10177800B92BB50BB92BA53083120313B500E03094
:10178800B400FE30B300B30BC72BB40BC72BB50B9B
:10179800C72B0800F01BD12BD22BE22B0A168A117B
:1017A800CA250A128A15013A0319DB2BDC2BE22B16
:1017B8000A168A118B270A128A15122C701AE52B21
:1017C800E62BF62B0A168A11CA250A128A15003A40
:1017D8000319EF2BF02BF62B0A168A1154260A123E
:1017E8008A15122CF118F92BFA2B0A2C0A168A11D1
:1017F800CA250A128A15033A0319032C042C0A2C49
:101808000A168A11B1270A128A15122C0A128A1589
:1018180040200A128A15122C122C122C080083124E
:101828000313AE000330AB002B0887042A0893008B
:101838000630AD001330AC00B130AB00AB0B222C3E
:10184800AC0B222CAD0B222C292C83120313AF01D5
:101858000314AF0D432C0715FB30AB002B0887058D
:101868008230AC00DD30AB00AB0B382CAC0B382C25
:101878003D2C013083120313AB002B08AF072F0850
:101888002E020318482C492C2F2C4A2C9301063081
:10189800AD001330AC00B130AB00AB0B512CAC0B2E
:1018A800512CAD0B512C582C08000F300A168A11F8
:1018B800E1250A128A1521300A168A111A260A12F7
:1018C8008A157D3083120313B3003308AC008030CF
:1018D800B4003408AD00AE01FF300A128A155A214F
:1018E8000A128A15FE3083120313B3003308AC00C2
:1018F8000C30B4003408AD009C300A128A15172049
:101908000A128A1583120313AC01AD01AE0100302F
:101918000A128A155A210A128A15333083120313C0
:10192800B500BC30B4001030B300B30B992CB40B25
:10193800992CB50B992C0800AD3083120313AC0019
:101948000130AD001B30AE000030AF000A128A151E
:10195800C8210A128A15C83083120313AC0001305B
:10196800AD001930AE000030AF000A128A15C82148
:101978000A128A15903083120313AC000130AD00AF
:101988001D30AE000030AF000A128A15C8210A12B5
:101998008A15CA3083120313AC000030AD0015302D
:1019A800AE000030AF000A128A15C8210A128A1543
:1019B800DF3083120313AC000030AD000530AE00F9
:1019C8000030AF000A128A15C8210A128A150800C9
:1019D80040300A168A11E1250A128A15252D013090
:1019E80083120313AE002E08E5074E300A168A113B
:1019F8001A260A128A15372D013083120313E502BD
:101A080053300A168A111A260A128A15372D013000
:101A180083120313AE002E08E40745300A168A1114
:101A28001A260A128A15372D013083120313E4028D
:101A380057300A168A111A260A128A15372D372D99
:101A4800372D0A168A11C5250A128A15003A031974
:101A5800182D013A0319002D033A03190B2D013AE9
:101A68000319F32C372D01300A168A11E1250A12C1
:101A78008A158312031364080A168A11EC250A12C0
:101A88008A1503300A168A11E1250A128A1583126B
:101A9800031365080A168A11EC250A128A1508002C
:101AA80083120313B601B11F5A2D5B2D642DB009A3
:101AB800B109B00A0319B10AB6010314B60D642DB1
:101AC800B31F672D682D722DB209B309B20A031925
:101AD800B30A0130B4003408B606722DB701B80154
:101AE800310830040319792D7A2DB82DB501031466
:101AF800B50D8A2D01300310B00DB10DFF3E031D49
:101B08007F2D0130B4003408B5078A2DB11F8D2D03
:101B18008E2D7E2D902D902D01300310B70DB80D10
:101B2800FF3E031D912D31083302031D9D2D300802
:101B38003202031CA02DA12DA92D3008B2023108B4
:101B4800031CB303B3023714A92D01300310B10CE1
:101B5800B00CFF3E031DAA2D0130B502031DB52DA3
:101B6800B62D902DB82DB82D3608031DBC2DC22DCD
:101B7800B709B809B70A0319B80AC22D3808B1015C
:101B8800B1073708B001B007C92D08008312031345
:101B98002D08031DD02DD82D2C082B042A04031D35
:101BA800D62DD72DEE2DD82D0030AA000030AB0051
:101BB8000030AC00462E462EEE2D0130AF002F0827
:101BC800AD0701300310AC0CAB0CAA0CFF3E031D93
:101BD800E62DEE2DFE302C05031DF32DF42DE12D01
:101BE8000C2E0C2E0130AF002F08AD070130AA07CC
:101BF800003003180130AB07003003180130AC0780
:101C080001300310AC0CAB0CAA0CFF3E031D052ED3
:101C1800FF302C05031D112E122EF62D1F2E1F2E00
:101C28000130AD0201300310AA0DAB0DAC0DFF3E23
:101C3800031D172E1F2EAB1F222E232E142E2D18F8
:101C4800262E272E2D2EFF30AA057F30AB05FF301C
:101C5800AC050310AD0C2D08AF00B001B101103078
:101C68000310AF0DB00DB10DFF3E031D342E2F082C
:101C7800AA043008AB043108AC042E08031D452E15
:101C8800462EAC1708000A128A1524210A128A1552
:101C980083120313AC01AD01AE0100300A128A159C
:101CA8005A210A128A1500300A168A11E1250A12E9
:101CB8008A1501300A168A1166270A128A154030D9
:101CC8000A168A11E1250A128A1512300A168A1193
:101CD80066270A128A15C12E831603134008031DAE
:101CE800762EC12E0A128A15C0200A128A150A12E7
:101CF8008A15F1200A128A150A128A15C9260A12AB
:101D08008A15F01F882E892E8F2E0A128A118F238A
:101D18000A128A159C2E0D3083120313DA005A0812
:101D2800AA000C300A128A1513240A128A159C2E4E
:101D38000A128A15CE230A128A150A168A11D7257D
:101D48000A128A15031CA92EAA2EC12E0A128A1558
:101D5800EC240A128A150A128A15BF220A128A1559
:101D6800F01EB72EB82EC12E0A168A11BF260A12E7
:101D78008A15C12EC12EC12EC12E701FC42EC52E8C
:101D8800702EC62E0A128A1112280B300A168A11D2
:101D9800E1250A128A150A168A11A3260A128A153B
:101DA8000318D72ED92EF017DA2EF013F01FDD2ED8
:101DB800DE2EE52E4C300A168A111A260A128A15CA
:101DC800EB2E20300A168A111A260A128A150F30AD
:101DD80083120313CD004D08AA0018300A128A1581
:101DE80013240A128A1505300A168A1108260A12BF
:101DF8008A150A168A11A3260A128A150318052FAE
:101E0800072F7016082F7012701E0B2F0C2F132F10
:101E180046300A168A111A260A128A15192F2030F6
:101E28000A168A111A260A128A150F30831203130A
:101E3800CD004D08AA0018300A128A1513240A1278
:101E48008A1505300A168A1108260A128A150A16F2
:101E58008A11A3260A128A150318332F352FF11475
:101E6800362FF110F11C392F3A2F412F52300A1614
:101E78008A111A260A128A15472F20300A168A1143
:101E88001A260A128A150D3083120313CD004D0845
:101E9800AA0024300A128A1513240A128A1505305A
:101EA8000A168A1108260A128A15080083120313D3
:101EB8003208B6003308B7003408B8000310370DED
:101EC800380DB9003908BF00BF08031D6C2F6D2FEE
:101ED800772F0030B5000030B4000030B300003078
:101EE800B200FF2FFF2F3208B6003308B7003408BE
:101EF800B80017300310B80CB70CB60CFF3E031D22
:101F08007E2F3608B9003908BA00B317FF30B2057A
:101F1800FF30B3050030B4053208BB003308BC00FD
:101F28003408BD00BE018E30BF02BF1F9C2F9D2FFD
:101F3800C22F3F08803A8F3E0318A32FA42FAF2F3C
:101F48000030B5000030B4000030B3000030B200FB
:101F5800FF2FFF2FAF2F01300310BE0CBD0CBC0CA0
:101F6800BB0CFF3E031DB02F0130B6003608BF077B
:101F7800031DBF2FC02FAF2FE62FE62F18303F02CB
:101F8800031CC72FC82FDF2F0030B5000030B40066
:101F98000030B3000030B200FF2FFF2FDF2F0130D9
:101FA800B6000310BB0DBC0DBD0DBE0DB60BD52F75
:101FB8000130BF02DF2FBF08031DE32FE42FD32F0B
:101FC800E62FE62F3A08031DEA2FF62FBB09BC09B6
:101FD800BD09BE09BB0A0319BC0A0319BD0A0319C6
:101FE800BE0AF62F3E08B5003D08B4003C08B30011
:101FF8003B08B200FF2F080010308A000408840A4A
:102008008207003428342D342C342D3429342034DC
:10201800453420342D342D3420342D342D342D34B2
:1020280020342D3400342D3420342D3420342D34F4
:102038002034283430342C34303429342034473494
:082048005234453447340034E2
:102B5C00023401340334831203135E08B52D0800CC
:102B6C00831203135F08BA2D080083120313640841
:102B7C00BF2D0800831203136508C42D08008312AF
:102B8C0003135D08C92D0800831203136308CE2DAF
:102B9C00080064008001840A04060319003404064A
:102BAC00D02D7119DA2DDB2DDD2D0310E02D031442
:102BBC00E02DE02D080083120313AD00AD172D0896
:102BCC000A168A1140260A168A110800831203136A
:102BDC00AD002D08303E0A168A111A260A168A11E3
:102BEC00080083120313AB002B08AA002A08DD0788
:102BFC0004305D02031C032E042E072E0430DD026C
:102C0C00072E080083120313AC008D300A168A11AC
:102C1C00DF260A168A11831203132C080A168A114E
:102C2C00DF260A168A11080083120313AC0009115F
:102C3C00891009142C088800091509110730AB00FC
:102C4C007D30AA00AA0B282EAB0B282E08007E087C
:102C5C008A007F0882000A168A112D260A168A110C
:102C6C008000840A04087D0603190034FF0A031946
:102C7C00FE0A312E83120313AC00091189100910BE
:102C8C002C088800091509110D30AB00FB30AA0087
:102C9C00AA0B4E2EAB0B4E2E532E08000F300A16DD
:102CAC008A11E1250A168A1146300A168A111A264B
:102CBC000A168A1183120313E001E830B6000330C0
:102CCC00B7000A128A11E4210A168A1108008C3402
:102CDC00043409344A344034493410344A341034FE
:102CEC0049343034453430348034203442341C344C
:102CFC0047342034423430348C3405340134483475
:102D0C000434033083120313AE008A30AD00563006
:102D1C00AC00AC0B8F2EAD0B8F2EAE0B8F2E962ED8
:102D2C0080300A168A11DF260A168A1184300A1698
:102D3C008A11DF260A168A1108000A168A114327FF
:102D4C000A168A11831203134A08803AFF00803056
:102D5C007F02031DB32E65304902031CB62EB72E1D
:102D6C00BB2E0310BE2EBE2EBE2E0314BE2EBE2EA8
:102D7C000800831203136408013A031DC62EC72EE4
:102D8C00DE2E6508033A031DCC2ECD2EDE2EAC01B3
:102D9C00AD01AE0100300A128A155A210A168A11A9
:102DAC0004300A168A1108260A168A117017DE2EAC
:102DBC00080083120313AB00E42EE42E7A08013EC4
:102DCC000F397B060319EB2EEC2EE42E8B132B08FC
:102DDC00AA007A08B03E84002A08831380007A087F
:102DEC00013E0F39AA002A08FA00831603130C16A9
:102DFC008B17080083120313C7004708C300C401D4
:102E0C00C5014308AA004408AB004508AC008E304D
:102E1C00C6004608AD00AE010A128A15CA250A166C
:102E2C008A11831203132A08C0002B08C1002C0836
:102E3C00C200202F0800232F232F0A128A150020EE
:102E4C000A168A11031C2B2F2C2F232F8B13790876
:102E5C00A03E84008313000883120313AA002A08DF
:102E6C00AB000130AA002A08F9070F30AA002A0883
:102E7C00F9058B172B08422F080000300A128A150F
:102E8C007E220A168A11831203134608C201C20756
:102E9C004508C101C1070A128A1115200A168A11A8
:102EAC00831203134208CC01CC074108CB01CB079A
:102EBC004C08CA01CA074B08C901C907652F08008D
:102ECC0083120313AE007D2F2E0884000A168A117C
:102EDC0000200A168A110A168A111A260A168A1155
:102EEC00013083120313AD002D08AE077D2F2E0881
:102EFC0084000A168A1100200A168A110038031D54
:102F0C00882F892F6A2F8A2F08000F300A168A11F2
:102F1C00E1250A168A114C300A168A111A260A164D
:102F2C008A110A128A1591210A168A1101300A1681
:102F3C008A11F7250A168A1183120313E001031470
:102F4C00E00DE830B6000330B7000A128A11E42114
:102F5C000A168A1108000F300A168A11E1250A1682
:102F6C008A1152300A168A111A260A168A110A1266
:102F7C008A1501220A168A1103300A168A11F725BE
:102F8C000A168A11033083120313C2004208E000B0
:102F9C00E830B6000330B7000A128A11E4210A1691
:102FAC008A110800831603138717BF30831203138B
:102FBC00AA002A08831603138705181514309900E4
:102FCC001813831203131813831603131812831286
:102FDC00031398171816831603130C128C169816D5
:102FEC000030FB00FA00F90083120313AA002A0830
:042FFC00F8000800D1
:02400E0032FF7F
:00000001FF
