:060000000A128A11122809
:10000800FE00030E83120313A6000408A7000A08C3
:10001800A8007F08A9000A128A11E22A0A128A1186
:10002800562D831203134208803AFF0080307F0266
:10003800031D2028523041020318232824282D2884
:10004800E73083120313C1000330C200E329E32918
:10005800E329831203134208803AFF0080307F02AD
:10006800031D38288530410203183B283C28742892
:10007800333083120313B0000030B1004109C300CC
:100088004209C400C30A0319C40A4308853EAA00EA
:1000980044080318013E003EAB003230AC0000308B
:1000A800AD000A128A15CA260A128A11831203138E
:1000B8002B08B301B3072A08B201B2070A128A1142
:1000C800B8230A128A11831203133008613EC10053
:1000D80031080318013E003EC200E329E329E32961
:1000E800831203134208803AFF0080307F02031D09
:1000F8007F28B8304102031882288328BB28333070
:1001080083120313B0000030B1004109C300420953
:10011800C400C30A0319C40A4308B83EAA00440825
:100128000318013E003EAB001E30AC000030AD00AD
:100138000A128A15CA260A128A11831203132B0877
:10014800B301B3072A08B201B2070A128A11B82309
:100158000A128A11831203133008433EC100310882
:100168000318013E003EC200E329E329E329831274
:1001780003134208803AFF0081307F02031DC6281E
:10018800003041020318C928CA28022948308312BE
:100198000313B0000030B1004109C3004209C40094
:1001A800C30A0319C40A4308003EAA0044080318F6
:1001B800013E013EAB001430AC000030AD000A1225
:1001C8008A15CA260A128A11831203132B08B3014F
:1001D800B3072A08B201B2070A128A11B8230A1211
:1001E8008A118312031330082E3EC1003108031808
:1001F800013E003EC200E329E329E32983120313E9
:100208004208803AFF0081307F02031D0D293D30EE
:10021800410203181029112949293D30831203137B
:10022800B0000030B1004109C3004209C400C30A4C
:100238000319C40A43083D3EAA0044080318013EB6
:10024800013EAB000A30AC000030AD000A128A153E
:10025800CA260A128A11831203132B08B301B307A3
:100268002A08B201B2070A128A11B8230A128A119F
:10027800831203133008253EC10031080318013EDC
:10028800003EC200E329E329E3298312031342084D
:10029800803AFF0081307F02031D54299A304102C1
:1002A80003185729582990295D3083120313B00089
:1002B8000030B1004109C3004209C400C30A031950
:1002C800C40A43089A3EAA0044080318013E013EA6
:1002D800AB000A30AC000030AD000A128A15CA26FD
:1002E8000A128A11831203132B08B301B3072A08D1
:1002F800B201B2070A128A11B8230A128A118312AC
:10030800031330081C3EC10031080318013E003EAB
:10031800C200E329E329E329831203134208803A40
:10032800FF0082307F02031D9B290A304102031817
:100338009E299F29D729703083120313B0000030FB
:10034800B1004109C3004209C400C30A0319C40A21
:1003580043080A3EAA0044080318013E023EAB00C7
:100368000A30AC000030AD000A128A15CA260A12FB
:100378008A11831203132B08B301B3072A08B201A9
:10038800B2070A128A11B8230A128A1183120313B8
:100398003008123EC10031080318013E003EC20079
:1003A800E329E329E32983120313C101C201E329E5
:1003B800E329E329E329E329E329E329E3290800D9
:1003C8000F3083160313E200620883120313AA0096
:1003D80018300A128A119F250A128A110A128A15E0
:1003E80012250A128A110318FA29FC29F017FD2987
:1003F800F0130D3083160313E2006208831203130F
:10040800AA0018300A128A119F250A128A110A12A4
:100418008A1512250A128A110318132A152A70162A
:10042800162A70120D3083160313E2006208831235
:100438000313AA0018300A128A119F250A128A117A
:100448000A128A1512250A128A1103182C2A2E2A32
:10045800F0162F2AF0120F3083160313E2006208F9
:1004680083120313AA0018300A128A119F250A1250
:100478008A1183160313E301E40107300A128A156F
:1004880063240A128A11F01F4A2A4B2A7D2A523005
:100498000A128A158B240A128A11831203135E0822
:1004A800033E83160313E300003003180130E40011
:1004B8006408803AFF0080307F02031D652A0430FB
:1004C8006302031C682A692A722AFC308316031304
:1004D800E3070318E40AFF30E407722A01308316A1
:1004E8000313E2006308613E8400620883138000FE
:1004F800842A20300A128A158B240A128A11842A27
:10050800701E872A882A9D2A46300A128A158B244B
:100518000A128A11013083160313E20083120313AF
:100528005E08613E8400831603136208831380000B
:10053800A42A20300A128A158B240A128A11A42AA6
:10054800F01EA72AA82ADA2A4C300A128A158B2408
:100558000A128A11831203135E08013E83160313DD
:10056800E300003003180130E4006408803AFF001B
:1005780080307F02031DC22A04306302031CC52A8F
:10058800C62ACF2AFC3083160313E3070318E40AAC
:10059800FF30E407CF2A013083160313E200630813
:1005A800613E8400620883138000E12A20300A1229
:1005B8008A158B240A128A11E12A08000B1DE52AE4
:1005C800E62AAC2B0B11643081000130DC070318DC
:1005D800DD0A0030DD07F0140A30F1000030F200C7
:1005E8005D08F401F4075C08F301F3070A128A11A5
:1005F8006E260A128A1172087104031D042B052B3A
:10060800072B7014072B3230F1000030F2008312F0
:1006180003135D08F401F4075C08F301F3070A12F9
:100628008A116E260A128A1172087104031D1D2B85
:100638001E2B202BF015202BF430F1000130F20096
:10064800831203135D08F401F4075C08F301F30750
:100658000A128A116E260A128A1172087104031D81
:10066800362B372B3D2B701583120313DC01DD016C
:100678003D2B831203130618422B432B632B0130A7
:10068800A0002008DB075A08A000A1010A305B027D
:10069800003003180130A200A30120082205A4009D
:1006A80021082305A5002508240403195C2B5D2BCC
:1006B800682BD9010314D90DDA01682B682BDB01EB
:1006C800DA010314DA0D682B8C1E6B2B6C2B862B2E
:1006D8001A08A0007708493E840020088313800088
:1006E8007708013E0F39A0002008E000600878066E
:1006F80003197F2B802B862B6008A0002008F700A9
:10070800862B862B0C1E892B8A2BAC2B8316031366
:100718000C1E8F2B902BAC2B7A08CE3E84008313B3
:1007280000088312031399000130A0002008FA077B
:100738000F30A0002008FA057A087906031DA52BBA
:10074800A62BAC2B831603130C12AC2BAC2BAC2BA7
:1007580083122908FF0028088A0027088400260E2B
:100768008300FE0E7E0E090083120313B601B11F2B
:10077800BE2BBF2BC82BB009B109B00A0319B10AA7
:10078800B6010314B60DC82BB31FCB2BCC2BD62B1D
:10079800B209B309B20A0319B30A0130B400340824
:1007A800B606D62BB701B801310830040319DD2B82
:1007B800DE2B1C2CB5010314B50DEE2B01300310F4
:1007C800B00DB10DFF3E031DE32B0130B40034081A
:1007D800B507EE2BB11FF12BF22BE22BF42BF42BE8
:1007E80001300310B70DB80DFF3E031DF52B31087E
:1007F8003302031D012C30083202031C042C052C83
:100808000D2C3008B2023108031CB303B3023714AD
:100818000D2C01300310B10CB00CFF3E031D0E2C43
:100828000130B502031D192C1A2CF42B1C2C1C2C7E
:100838003608031D202C262CB709B809B70A031956
:10084800B80A262C3808B101B1073708B001B0073B
:100858002D2C0800831203135F08AE002E08DE0754
:1008680004305E02031C392C3A2C3D2C0430DE0285
:100878003D2C46300A128A1563240A128A11742CF8
:10088800013083120313AE002E08E5074E300A121A
:100898008A158B240A128A11842C013083120313BF
:1008A800E50253300A128A158B240A128A11842C05
:1008B800013083120313AE002E08FB0745300A12DD
:1008C8008A158B240A128A11842C0130FB025730B6
:1008D8000A128A158B240A128A11842C842C842CDF
:1008E800831203135E08003A0319692C013A0319AD
:1008F800512C033A03195C2C013A0319442C842C1B
:100908000C300A128A1563240A128A117B080A120B
:100918008A156E240A128A110E300A128A15632467
:100928000A128A118312031365080A128A156E24A3
:100938000A128A11080083120313B701B801B9011A
:10094800BA017017FA30B5003508AC008030B6002F
:100958003608AD00AE0100300A128A155A270A126D
:100968008A11062D8E300A128A152E250A128A112E
:1009780013300A128A152E250A128A110A128A15AC
:100988004F250A128A1183120313B5003508BB00DC
:100998000A128A154F250A128A1183120313B50009
:1009A8003508BC003B08B500B6013508B600B501EE
:1009B8003C083507B7000030031801303607B80087
:1009C8003708B9070318BA0A3808BA073A08803A44
:1009D800B5003408803A3502031DF42C3308390277
:1009E800031CF72CF82C062D83120313AC01AD0160
:1009F800AE0100300A128A155A270A128A1170139A
:100A0800062D062D701B092D0A2DB62C0B2D08005E
:100A18000A128A1524270A128A1183120313AC01B9
:100A2800AD01AE0100300A128A155A270A128A113E
:100A380000300A128A1563240A128A1101300A1238
:100A48008A15D9250A128A1140300A128A15632498
:100A58000A128A1112300A128A15D9250A128A1125
:100A680004300A128A1579240A128A113B2D83123E
:100A780003135908031D412D3B2D0A128A11E42145
:100A88000A128A110A128A15FE250A128A110A12F6
:100A98008A112E240A128A113B2D3B2D3B2D0A1256
:100AA8008A111228F001F701F801F901FA018313FC
:100AB8004930840061300A128A155B240A128A11AF
:100AC800CE308400DE300A128A155B240A128A119D
:100AD8008317C830FD000F30FE00C830FF0090308B
:100AE80084000A128A15A2240A128A118313CE30AE
:100AF800FD000E30FE00F630FF00A03084000A1220
:100B08008A15A2240A128A116630FD000C30FE00F4
:100B18005630FF00613084000A128A15A2240A1296
:100B28008A110A128A11FD270A128A11FB00830111
:100B38000A128A110C2D83120313AE000330AB0086
:100B48002B0887042A0893000630AD001330AC0048
:100B5800B130AB00AB0BAE2DAC0BAE2DAD0BAE2D4B
:100B6800B52D83120313AF010314AF0DCF2D071555
:100B7800FB30AB002B0887058230AC00DD30AB00C2
:100B8800AB0BC42DAC0BC42DC92D0130831203133C
:100B9800AB002B08AF072F082E020318D42DD52D34
:100BA800BB2DD62D93010630AD001330AC00B1300B
:100BB800AB00AB0BDD2DAC0BDD2DAD0BDD2DE42D2E
:100BC8000800193083120313B3003308AC00AD01D9
:100BD800AE010314AE0D00300A128A155A270A1204
:100BE8008A1183120313AC01AA30B3003308AD0095
:100BF8009D300A128A154D260A128A118312031390
:100C0800AC01AD01AE0100300A128A155A270A124A
:100C18008A11A53083120313B500E030B400FE300A
:100C2800B300B30B152EB40B152EB50B152EA5302E
:100C380083120313B500E030B400FE30B300B30BE9
:100C4800232EB40B232EB50B232E080006308A0062
:100C58000408840A82070034573461346C346C34D5
:100C68007334403420342D342D342D34203428343A
:100C780031342C34303429340034633475344F34EF
:100C880072343A3420342D34203464346934723464
:100C98004D346F343A3420342D34003445344534DF
:100CA800503452344F344D34203457346F34723406
:100CB8006B3465346434003445344534503452342C
:100CC8004F344D3420344634613469346C346534DF
:100CD80064340034720871040319732E742EAA2E1A
:100CE800F6010314F60D842E01300310F10DF20DF8
:100CF800FF3E031D792E0130F5007508F607842E96
:100D0800F21F872E882E782E8A2E8A2E7208740259
:100D1800031D902E71087302031C932E942E9B2E94
:100D28007108F3027208031CF403F4029B2E0130CD
:100D38000310F20CF10CFF3E031D9C2E0130F6024D
:100D4800031DA72EA82E8A2EAA2EAA2E7408F201F9
:100D5800F2077308F101F107B12E0800831203139B
:100D6800C800CF2E9F111F129F12E02E9F151F1231
:100D78009F12E02E9F111F169F12E02E9F151F161F
:100D88009F12E02E9F111F129F16E02EC501C6016B
:100D9800F22EF22EE02E4808003A0319B62E013A38
:100DA8000319BA2E033A0319BE2E013A0319C22EAB
:100DB800073A0319C62ECA2E5330C700C70BE22EB6
:100DC8000A128A11F3260A128A11831203133A08A7
:100DD800C601C6073908C501C507F22E08008312E7
:100DE80003139E01831603139E01831203131F1519
:100DF800FD2E1F19002F012FFD2E022F4030B000AD
:100E08000030B100831603131E0883120313BB00BE
:100E1800BC013B08B2003C08B3000A128A11B8238F
:100E28000A128A11831203131E08BD00BE01023084
:100E3800FF000310BD0DBE0DFF0B1D2F30083D0731
:100E4800BF0031080318310A3E07C0004008BA0144
:100E5800BA073F08B901B907312F080019308312C2
:100E68000313B3003308AC00FF30B4003408AD00FE
:100E7800FF30B5003508AE0000300A128A155A272F
:100E88000A128A11FF3083120313B3003308AC002F
:100E9800A930B4003408AD009D300A128A154D26D9
:100EA8000A128A1183120313AC01AD01AE0100309E
:100EB8000A128A155A270A128A11A53083120313B7
:100EC800B500E030B400FE30B300B30B692FB40BAB
:100ED800692FB50B692F0800AD3083120313AC00DE
:100EE8000130AD001B30AE000030AF000A128A118D
:100EF800AD270A128A11A03083120313AC00003008
:100F0800AD001930AE000030AF000A128A11AD27CB
:100F18000A128A11903083120313AC000130AD001D
:100F28001D30AE000030AF000A128A11AD270A1238
:100F38008A11B93083120313AC000030AD001530AC
:100F4800AE000030AF000A128A11AD270A128A11CA
:100F5800080083120313B301B401D62F83120313BD
:100F680033082C07B1002D08B0000318B00AB31FCE
:100F7800BE2FB003831203133008B2003108840077
:100F88008317321C831300080A128A152E250A12A9
:100F98008A11013083120313B3070318B40A00300F
:100FA800B407D62F3408803AB0002F08803A3002B0
:100FB800031DE02F2E083302031CE32FE42FB22F6A
:100FC800E52F080083120313981CEB2FEC2FF12F49
:100FD800181218160310FC2FFC2F77087806031D2B
:100FE800F62FF72FF92F0310FC2F0314FC2FFC2FDB
:040FF80008000134B8
:1018AC000134013401340034043464008001840AAE
:1018BC0004060319003404065C2C83120313AD00D8
:1018CC00AD172D080A128A15B1240A128A150800C0
:1018DC0083120313AD002D08303E0A128A158B2497
:1018EC000A128A15080083120313AC008D300A12F9
:1018FC008A152E250A128A15831203132C080A1234
:10190C008A152E250A128A15080083120313AC00BF
:10191C000911891009142C088800091509110730C0
:10192C00AB007D30AA00AA0B992CAB0B992C0800AC
:10193C007E088A007F0882000A128A159E240A12E9
:10194C008A158000840A04087D0603190034FF0AF6
:10195C000319FE0AA22C83120313AC00091189107F
:10196C0009102C088800091509110D30AB00FB304B
:10197C00AA00AA0BBF2CAB0BBF2CC42C08008312E3
:10198C00031385013F30831603138500A1308312A6
:10199C0003139F000230831603139F0053308312EE
:1019AC000313AA00AA0BD82C0800E83083120313E7
:1019BC00B3000330B4000A128A119F240A128A154C
:1019CC0083120313DF014F300A128A1563240A12A3
:1019DC008A1546300A128A158B240A128A150800B9
:1019EC00033083120313AE008A30AD005630AC00C6
:1019FC00AC0BFE2CAD0BFE2CAE0BFE2C052D803053
:101A0C000A128A152E250A128A1584300A128A1592
:101A1C002E250A128A1508000A128A1576260A1231
:101A2C008A15831603135F08803AFF0080307F020B
:101A3C00031D222D65305E02031C252D262D2A2D1B
:101A4C0003102D2D2D2D2D2D03142D2D2D2D080096
:101A5C0083120313AB00332D332D7908013E0F395C
:101A6C007A0603193A2D3B2D332D8B132B08AA0024
:101A7C007908CE3E84002A08831380007908013E41
:101A8C000F39AA002A08F900831603130C168B17BA
:101A9C000800512D512D0A128A11E6270A128A15B7
:101AAC00031C592D5A2D512D8B137808493E840057
:101ABC008313000883120313AA002A08AB00013019
:101ACC00AA002A08F8070F30AA002A08F8058B1775
:101ADC002B08702D08000A128A1591270A128A15F4
:101AEC00E83083120313B3000330B4000A128A11D6
:101AFC009F240A128A1583120313DF010314DF0DCE
:101B0C004F300A128A1563240A128A154C300A12B5
:101B1C008A158B240A128A1508000A128A11E525E7
:101B2C000A128A15E83083120313B3000330B40091
:101B3C000A128A119F240A128A1502308312031387
:101B4C00BD003D08DF004F300A128A1563240A12CB
:101B5C008A1542300A128A158B240A128A1508003B
:101B6C000A128A1132270A128A15E83083120313DB
:101B7C00B3000330B4000A128A119F240A128A158A
:101B8C00033083120313BD003D08DF004F300A12EF
:101B9C008A1563240A128A1552300A128A158B246C
:101BAC000A128A15080083120313AE00F02D2E08BA
:101BBC0084000A128A112A260A128A150A128A1518
:101BCC008B240A128A15013083120313AD002D08E1
:101BDC00AE07F02D2E0884000A128A112A260A124A
:101BEC008A150038031DFB2DFC2DDD2DFD2D080065
:101BFC00F01B012E022E082E0A128A15B6250A1287
:101C0C008A15242E701A0B2E0C2E122E0A128A15DF
:101C1C00DB240A128A15242EF01A152E162E1C2ED1
:101C2C000A128A1571250A128A15242E0A128A158F
:101C3C0093250A128A15242E242E242E080083168E
:101C4C0003138717BF3083120313AA002A088316C5
:101C5C0003138705181514309900181383120313F6
:101C6C0018138316031318128312031398171816DC
:101C7C00831603130C128C1698160030FA00F90018
:101C8C00F80083120313AA002A08F7000800831235
:101C9C000313B1000330B0008A30AF005630AE00F1
:101CAC00AE0B562EAF0B562EB00B562E5D2E83124E
:101CBC00031331080A128A152E250A128A1583126B
:101CCC0003132C080A128A152E250A128A15831260
:101CDC0003132D080A128A152E250A128A150800DC
:101CEC0000300A128A11B2260A128A1583120313C3
:101CFC004608C201C2074508C101C1070A128A1170
:101D0C0015200A128A158312031342088316031333
:101D1C00E101E10783120313410883160313E00169
:101D2C00E0076108DF01DF076008DE01DE079E2E99
:101D3C0008000230831603139F00831203138801DB
:101D4C008901831603138801890101300A128A154F
:101D5C00B1240A128A1538300A128A15B1240A12D3
:101D6C008A150C300A128A15B1240A128A1506300B
:101D7C000A128A15B1240A128A1502300A128A151F
:101D8C00B1240A128A15080083120313AE01AF01A5
:101D9C00CF2E2A1CD22ED32ED92E2C08AE070318E8
:101DAC00AF0A2D08AF0701300310AC0DAD0DFF3E8F
:101DBC00031DDA2E01300310AB0CAA0CFF3E031DE1
:101DCC00E12E2B082A04031DEC2EED2ECF2EEE2E29
:101DDC002F08AB01AB072E08AA01AA07F52E0800A5
:101DEC008C3401340B344C340834803404344C348B
:101DFC001034803404344C3410348034043448347B
:101E0C0008344C3410344F34203480340834433488
:101E1C0010348C34043409344A344034493410348A
:101E2C004A3410344934303445343034803420341E
:101E3C0042341C344734203442343034831203137C
:101E4C00D901DA010314DA0D0A128A15C5240A1213
:101E5C008A150A128A159F260A128A1501308316D2
:101E6C0003138600043081008B164030940022301E
:101E7C00831203139400903083160313870083128C
:101E8C00031387010B178B170A128A1525260A12C2
:101E9C008A150A128A15F6240A128A150A128A1150
:101EAC0070270A128A15080083120313B20003303C
:101EBC00B1008A30B0005630AF00AF0B632FB00BBF
:101ECC00632FB10B632F6A2F89300A128A152E25C6
:101EDC000A128A158312031332080A128A152E2548
:101EEC000A128A15831203132C080A128A152E253E
:101EFC000A128A15831203132D080A128A152E252D
:101F0C000A128A15831203132E080A128A152E251B
:101F1C000A128A150800193083120313B300330810
:101F2C00AC00AD01AE010314AE0D00300A128A15DF
:101F3C005A270A128A1583120313AC015530B300C9
:101F4C003308AD009D300A128A154D260A128A15E7
:101F5C0083120313AC01AD01AE0100300A128A15D5
:101F6C005A270A128A15A53083120313B500E030E4
:101F7C00B400FE30B300B30BC12FB40BC12FB50BA3
:101F8C00C12F08008C3402340D3448341C344834CE
:101F9C001C344F344034803410344D341C344C34A5
:101FAC001C34483440348034103445341C344534AB
:101FBC001C3445341C3448341C34483440348C3480
:101FCC0003340C344934083447340834493420344D
:101FDC0042344034803420344A3408344934083490
:101FEC004A34083480340C344934063480340C348C
:041FFC004734303402
:02400E0032FF7F
:00000001FF
