:060000000A128A11122809
:10000800FE00030E83120313A6000408A7000A08C3
:10001800A8007F08A9000A128A11E4290A128A1581
:10002800F02E831203134208803AFF0080307F02CB
:10003800031D2028523041020318232824282D2884
:10004800E73083120313C1000330C200E329E32918
:10005800E329831203134208803AFF0080307F02AD
:10006800031D38288530410203183B283C28742892
:10007800333083120313B0000030B1004109C300CC
:100088004209C400C30A0319C40A4308853EAA00EA
:1000980044080318013E003EAB003230AC0000308B
:1000A800AD000A128A15ED230A128A11831203136E
:1000B8002B08B301B3072A08B201B2070A128A1142
:1000C80059260A128A11831203133008613EC100AF
:1000D80031080318013E003EC200E329E329E32961
:1000E800831203134208803AFF0080307F02031D09
:1000F8007F28B8304102031882288328BB28333070
:1001080083120313B0000030B1004109C300420953
:10011800C400C30A0319C40A4308B83EAA00440825
:100128000318013E003EAB001E30AC000030AD00AD
:100138000A128A15ED230A128A11831203132B0857
:10014800B301B3072A08B201B2070A128A11592665
:100158000A128A11831203133008433EC100310882
:100168000318013E003EC200E329E329E329831274
:1001780003134208803AFF0081307F02031DC6281E
:10018800003041020318C928CA28022948308312BE
:100198000313B0000030B1004109C3004209C40094
:1001A800C30A0319C40A4308003EAA0044080318F6
:1001B800013E013EAB001430AC000030AD000A1225
:1001C8008A15ED230A128A11831203132B08B3012F
:1001D800B3072A08B201B2070A128A1159260A126D
:1001E8008A118312031330082E3EC1003108031808
:1001F800013E003EC200E329E329E32983120313E9
:100208004208803AFF0081307F02031D0D293D30EE
:10021800410203181029112949293D30831203137B
:10022800B0000030B1004109C3004209C400C30A4C
:100238000319C40A43083D3EAA0044080318013EB6
:10024800013EAB000A30AC000030AD000A128A153E
:10025800ED230A128A11831203132B08B301B30783
:100268002A08B201B2070A128A1159260A128A11FB
:10027800831203133008253EC10031080318013EDC
:10028800003EC200E329E329E3298312031342084D
:10029800803AFF0081307F02031D54299A304102C1
:1002A80003185729582990295D3083120313B00089
:1002B8000030B1004109C3004209C400C30A031950
:1002C800C40A43089A3EAA0044080318013E013EA6
:1002D800AB000A30AC000030AD000A128A15ED23DD
:1002E8000A128A11831203132B08B301B3072A08D1
:1002F800B201B2070A128A1159260A128A11831208
:10030800031330081C3EC10031080318013E003EAB
:10031800C200E329E329E329831203134208803A40
:10032800FF0082307F02031D9B290A304102031817
:100338009E299F29D729703083120313B0000030FB
:10034800B1004109C3004209C400C30A0319C40A21
:1003580043080A3EAA0044080318013E023EAB00C7
:100368000A30AC000030AD000A128A15ED230A12DB
:100378008A11831203132B08B301B3072A08B201A9
:10038800B2070A128A1159260A128A118312031314
:100398003008123EC10031080318013E003EC20079
:1003A800E329E329E32983120313C101C201E329E5
:1003B800E329E329E329E329E329E329E3290800D9
:1003C8000B1DE729E829A22A0B11643081000130AE
:1003D800D8070318D90A0030D907F0140A30F200F8
:1003E8000030F3005908F501F5075808F401F4073F
:1003F8000A128A1531270A128A1173087204031D1A
:10040800062A072A092A7014092A3230F200003015
:10041800F300831203135908F501F5075808F4018E
:10042800F4070A128A1531270A128A11730872040E
:10043800031D1F2A202A222AF015222AF430F2004E
:100448000130F300831203135908F501F507580822
:10045800F401F4070A128A1531270A128A11831245
:1004680003130618382A392A592A0130A00020080F
:10047800D7075608A000A1010A3057020030031818
:100488000130A200A30120082205A40021082305A9
:10049800A500250824040319522A532A5E2AD501E7
:1004A8000314D50DD6015E2A5E2AD701D60103149E
:1004B800D60D5E2A8C1E612A622A7C2A1A08A000A0
:1004C8007808453E84002008831380007808013EA0
:1004D8000F39A0002008E10061085F060319752A9A
:1004E800762A7C2A6108A0002008F8007C2A7C2A49
:1004F8000C1E7F2A802AA22A831603130C1E852A23
:10050800862AA22A831203136208CE3E840083132C
:10051800000899000130A0002008E2070F30A00071
:100528002008E20562087906031D9B2A9C2AA22A54
:10053800831603130C12A22AA22AA22A83122908BC
:10054800FF0028088A0027088400260E8300FE0E74
:100558007E0E09000B300A128A1560210A128A11D0
:100568000A128A152C220A128A110318BC2ABE2ADA
:10057800F017BF2AF013F01FC22AC32ACA2A4C3028
:100588000A128A158E210A128A11D02A20300A12DC
:100598008A158E210A128A110F3083160313E80078
:1005A800680883120313AA0018300A128A15BA279A
:1005B8000A128A110A128A152C220A128A110318A1
:1005C800E62AE82A7016E92A7012701EEC2AED2A2B
:1005D800F92A46300A128A158E210A128A110A123D
:1005E8008A1156240A128A11FF2A20300A128A1503
:1005F8008E210A128A110F3083160313E800680847
:1006080083120313AA0018300A128A15BA270A128D
:100618008A110A128A152C220A128A110318152B1C
:10062800172BF114182BF110F11C1B2B1C2B282B4A
:1006380052300A128A158E210A128A110A128A1158
:100648003D230A128A112E2B20300A128A158E2178
:100658000A128A110D3083160313E8006808831202
:100668000313AA0030300A128A15BA270A128A110F
:1006780008000A128A1533260A128A110D308316C9
:100688000313E600660883120313AA0018300A123F
:100698008A15BA270A128A11692B83308316031325
:1006A800E600660883120313AC0080308316031338
:1006B800E700670883120313AD00AE01FF300A128A
:1006C8008A15D9240A128A11692B0A128A157424E8
:1006D8000A128A11831603136308803AFF008030D8
:1006E8007F02031D792B2D306202031C7C2B7D2B8E
:1006F800512B972B972BFA3083160313E6006608C5
:1007080083120313AC00803083160313E7006708D5
:1007180083120313AD00AE0100300A128A15D924E2
:100728000A128A11972B0A128A1574240A128A113E
:10073800831603136308803AFF0080307F02031D8D
:10074800A72B383062020318AA2BAB2B7F2BAC2BBC
:100758000A128A1510250A128A110F3083160313FC
:10076800E600660883120313AA0018300A128A15D5
:10077800BA270A128A1183120313AC01AD01AE0124
:1007880000300A128A15D9240A128A110800831225
:100798000313B901BA01BB01BC017114FA30B700E7
:1007A8003708AC008030B8003808AD00AE01003022
:1007B8000A128A15D9240A128A11502C8E300A126C
:1007C8008A1568220A128A1113300A128A156822B9
:1007D8000A128A110A128A1589220A128A118312A8
:1007E8000313B7003708BD000A128A1589220A12B6
:1007F8008A1183120313B7003708BE003D08B700FB
:10080800B8013708B800B7013E083707B90000300B
:10081800031801303807BA003908BB070318BC0AA7
:100828003A08BC070A128A11DE240A128A11031C2C
:100838001E2C1F2C312C83120313AC01AD01AE0109
:1008480000300A128A15D9240A128A110A128A114A
:10085800CF260A128A11F111552C831203133C0872
:10086800803AB7003608803A3702031D3D2C350818
:100878003B02031C402C412C502C83120313AC0167
:10088800AD01AE0100300A128A15D9240A128A1164
:100898007110F115502C502C7118532C542CE22B3C
:1008A800552C08006F2C833083160313E600660866
:1008B80083120313AC00803083160313E700670824
:1008C80083120313AD00AE01FF300A128A15D92432
:1008D8000A128A116F2C0A128A1574240A128A11B4
:1008E800831603136308803AFF0080307F02031DDC
:1008F8007F2C32306202031C822C832C572C842CD0
:1009080083120313AC01AD01AE0100300A128A153F
:10091800D9240A128A11A82CFA3083160313E60088
:10092800660883120313AC00803083160313E700B4
:10093800670883120313AD00AE0100300A128A154E
:10094800D9240A128A11A82C0A128A1574240A12A8
:100958008A11831603136308803AFF0080307F02F0
:10096800031DB82C38306202031CBB2CBC2CD22CC3
:100978000A128A1574240A128A118316031363084B
:10098800803AFF0080307F02031DCC2C6430620265
:10099800031CCF2CD02C902CD22CD22C83120313D6
:1009A800AC01AD01AE0100300A128A15D9240A1231
:1009B8008A110800711195300A128A1568220A12E4
:1009C8008A1104300A128A1568220A128A1109301B
:1009D8000A128A1568220A128A110A300A128A151E
:1009E80068220A128A110B300A128A1568220A1222
:1009F8008A110C300A128A1568220A128A110A1200
:100A08008A1589220A128A1183120313AC002C0852
:100A1800E0006008013A031D122D132D152D7115E4
:100A2800152D0A128A1589220A128A1183120313B4
:100A3800AC002C08E0006008013A031D242D252D88
:100A48002B2D7119282D292D2B2D71152B2D0A12BF
:100A58008A1589220A128A1183120313AC002C0802
:100A6800E0006008013A031D3A2D3B2D412D711914
:100A78003E2D3F2D412D7115412D0A128A158922CF
:100A88000A128A1183120313AC002C08E0006008D4
:100A9800013A031D502D512D562D7119542D552DE8
:100AA800562D71157119592D5A2D5C2D03105F2D76
:100AB80003145F2D5F2D080083120313AC00CB2DA8
:100AC800712D0430AB002B08E300DC2D0430AB00A3
:100AD8002B08E300DC2DDC2DDC2D2A08003A031955
:100AE800652D013A03196A2DDC2DDC2D872D043084
:100AF800AB002B08E300DC2D0430AB002B08E3002F
:100B0800DC2DDC2DDC2D2A08003A03197B2D013A57
:100B18000319802DDC2DDC2D9C2D0330AB002B0818
:100B2800E300DC2DE3010314E30DDC2DDC2DDC2DCB
:100B38002A08013A0319912D023A0319962DDC2D42
:100B4800DC2DB22D0330AB002B08E300DC2D023086
:100B5800AB002B08E300DC2DDC2DDC2D2A08013A44
:100B68000319A62D023A0319AB2DDC2DDC2DC32D5C
:100B78000230AB002B08E300DC2DDC2DDC2D2A082D
:100B8800033A0319BC2DDC2DDC2DDC2DDC2D2C08C3
:100B9800003A0319712D013A0319872D033A0319F5
:100BA8009C2D013A0319B22D073A0319C32DDC2DE8
:100BB8006308DE2D08000A128A15A3240A128A1176
:100BC80083120313AC01AD01AE0100300A128A157D
:100BD800D9240A128A1100300A128A1560210A12D1
:100BE8008A1101300A128A15AB220A128A11403082
:100BF8000A128A1560210A128A1112300A128A15FD
:100C0800AB220A128A11512E831203135508031DB1
:100C18000E2E512E0A128A1519240A128A110A1246
:100C28008A15B0260A128A110A128A11AE220A12ED
:100C38008A11282E352E352E352E0A128A15D022E5
:100C48000A128A11352E352E831203135E08013AD3
:100C58000319352E033A0319352E013A0319352E97
:100C6800212E0A128A1556210A128A113B2E0A12BF
:100C78008A113E270A128A110A128A15F5250A12C4
:100C88008A11F01E482E492E512E0A128A15482222
:100C98000A128A11512E512E512E701F542E552E84
:100CA800082E562E0A128A11122883120313B6012F
:100CB800B11F5F2E602E692EB009B109B00A031961
:100CC800B10AB6010314B60D692EB31F6C2E6D2E32
:100CD800772EB209B309B20A0319B30A0130B40076
:100CE8003408B606772EB701B80131083004031965
:100CF8007E2E7F2EBD2EB5010314B50D8F2E01302B
:100D08000310B00DB10DFF3E031D842E0130B40059
:100D18003408B5078F2EB11F922E932E832E952E51
:100D2800952E01300310B70DB80DFF3E031D962E0A
:100D380031083302031DA22E30083202031CA52EEF
:100D4800A62EAE2E3008B2023108031CB303B3023C
:100D58003714AE2E01300310B10CB00CFF3E031D4A
:100D6800AF2E0130B502031DBA2EBB2E952EBD2E17
:100D7800BD2E3608031DC12EC72EB709B809B70AFC
:100D88000319B80AC72E3808B101B1073708B001EE
:100D9800B007CE2E08000F300A128A1560210A12F9
:100DA8008A1121300A128A158E210A128A1183307B
:100DB80083120313B3003308AC008030B400340846
:100DC800AD00AE01FF300A128A15D9240A128A1121
:100DD80083120313AC010314AC0DF430B3003308D1
:100DE800AD009C300A128A1547230A128A11831211
:100DF8000313AC01AD01AE0100300A128A15D924E3
:100E08000A128A11831203135D08013A031D0D2F7C
:100E18000E2F212F0F300A128A1560210A128A110B
:100E280052300A128A158E210A128A1103300A12C8
:100E38008A156B210A128A113D2F831203135D084C
:100E4800033A031D282F292F3D2F0F300A128A1528
:100E580060210A128A114C300A128A158E210A1250
:100E68008A1101300A128A156B210A128A113D2F44
:100E78003D2F080040300A128A1560210A128A1193
:100E8800732F013083120313AE002E08FB074E3078
:100E98000A128A158E210A128A11852F0130FB0247
:100EA80053300A128A158E210A128A11852F0130B1
:100EB80083120313AE002E08FA0745300A128A156A
:100EC8008E210A128A11852F0130FA0257300A1230
:100ED8008A158E210A128A11852F852F852F0A12CD
:100EE8008A153F210A128A11003A0319682F013A1C
:100EF8000319522F033A03195B2F013A0319452F9F
:100F0800852F01300A128A1560210A128A117A087F
:100F18000A128A11F3270A128A1103300A128A1553
:100F280060210A128A117B080A128A11F3270A1211
:100F38008A11080083160313E100C72F83120313D5
:100F48009F111F129F12D82F831203139F151F1270
:100F58009F12D82F831203139F111F169F12D82F89
:100F6800831203139F151F169F12D82F8312031382
:100F78009F111F129F16D82F83160313DE01DF015E
:100F8800F22FF22FD82F6108003A0319A22F013A45
:100F98000319A82F033A0319AE2F013A0319B42FE6
:100FA800073A0319BA2FC02F533083160313E000F2
:100FB800E00BDC2F0A128A1571260A128A11831295
:100FC80003133A0883160313DF01DF0783120313A1
:100FD800390883160313DE01DE07F22F0800831297
:100FE8000313AD002D08303E0A128A158E210A120D
:100FF8008A1108000134033408308A000408840A7E
:101008008207003428342D342C342D3429342034EC
:10101800453420342D342D3420342D342D342D34C2
:1010280020342D3400342D3420342D3420342D3404
:101038002034283430342C343034293420344734A4
:081048005234453447340034F2
:10127E00831203135A0843290800831203135B08D1
:10128E0048290800831203135C084D2908006400E6
:10129E008001840A04060319003404064F29F1194B
:1012AE0059295A295C2903105F2903145F295F29E4
:1012BE00080083120313AD00AD172D080A128A150C
:1012CE00B4210A128A15080083120313AB002B08EF
:1012DE00AA002A08DA0704305A02031C7729782953
:1012EE007B290430DA027B29080083120313AC0039
:1012FE008D300A128A1568220A128A158312031378
:10130E002C080A128A1568220A128A1508008312FE
:10131E000313AC000911891009142C088800091553
:10132E0009110730AB007D30AA00AA0B9C29AB0B2C
:10133E009C2908007E088A007F0882000A128A15FE
:10134E00A1210A128A158000840A04087D06031959
:10135E000034FF0A0319FE0AA52983120313AC00F9
:10136E000911891009102C088800091509110D3072
:10137E00AB00FB30AA00AA0BC229AB0BC229C729AE
:10138E0008008312031385013F3083160313850073
:10139E00A130831203139F000230831603139F00A4
:1013AE00533083120313AA00AA0BDB290800831201
:1013BE000313981CE329E429E929181218160310BF
:1013CE00F429F42978085F06031DEE29EF29F12987
:1013DE000310F4290314F429F42908000F300A121B
:1013EE008A1560210A128A1546300A128A158E2134
:1013FE000A128A15E83083120313B5000330B600C3
:10140E000A128A11CB230A128A1583120313DD01E5
:10141E000800033083120313AE008A30AD0056303D
:10142E00AC00AC0B182AAD0B182AAE0B182A1F2ACB
:10143E0080300A128A1568220A128A1584300A121E
:10144E008A1568220A128A1508000A128A1574244F
:10145E000A128A15831603136308803AFF00803040
:10146E007F02031D3C2A65306202031C3F2A402A7C
:10147E00442A0310472A472A472A0314472A472A91
:10148E0008007A08013A031D4D2A4E2A672A7B0866
:10149E00033A031D532A542A672A83120313AC01FD
:1014AE00AD01AE0100300A128A15D9240A128A152E
:1014BE0004300A128A157C210A128A157017672ABF
:1014CE00080083120313AB006D2A6D2A7908013EC2
:1014DE000F3962060319742A752A6D2A8B132B088D
:1014EE00AA007908CE3E84002A088313800079086A
:1014FE00013E0F39AA002A08F900831603130C16B1
:10150E008B1708008B2A8B2A0A128A15DE210A12E3
:10151E008A15031C932A942A8B2A8B138312031386
:10152E005F08453E840083130008AA002A08AB001A
:10153E000130AA002A08DF070F30AA002A08DF05AB
:10154E008B172B08AA2A080083120313AE00C22A97
:10155E002E0884000A128A1500200A128A150A1211
:10156E008A158E210A128A15013083120313AD00DB
:10157E002D08AE07C22A2E0884000A128A150020F2
:10158E000A128A150038031DCD2ACE2AAF2ACF2A79
:10159E000800F01BD32AD42ADA2A0A128A151F232E
:1015AE000A128A15F62A701ADD2ADE2AE42A0A128F
:1015BE008A15F5210A128A15F62AF118E72AE82A61
:1015CE00EE2A0A128A1599230A128A15F62A0A1287
:1015DE008A1570230A128A15F62AF62AF62A0800A8
:1015EE00831603138717BF3083120313AA002A082A
:1015FE0083160313870518151430990018138312D8
:10160E000313181383160313181283120313981758
:10161E001816831603130C128C16981600308312AC
:10162E000313E200F900DF00AA002A08F800080000
:10163E000F300A128A1560210A128A154C300A12CE
:10164E008A158E210A128A150A128A1510250A1277
:10165E008A1501300A128A156B210A128A15E83092
:10166E0083120313B5000330B6000A128A11CB237E
:10167E000A128A1583120313DD010314DD0D08000F
:10168E0083120313B1000330B0008A30AF0056301E
:10169E00AE00AE0B502BAF0B502BB00B502B572B6D
:1016AE008312031331080A128A1568220A128A1548
:1016BE00831203132C080A128A1568220A128A153D
:1016CE00831203132D080A128A1568220A128A152C
:1016DE0008000F300A128A1560210A128A1542304C
:1016EE000A128A158E210A128A150A128A15752770
:1016FE000A128A1502300A128A156B210A128A15ED
:10170E00E83083120313B5000330B6000A128A11B3
:10171E00CB230A128A15023083120313BF003F082F
:10172E00DD0008000F300A128A1560210A128A1590
:10173E0052300A128A158E210A128A150A128A1539
:10174E0033260A128A1503300A128A156B210A12E1
:10175E008A15E83083120313B5000330B6000A125F
:10176E008A11CB230A128A15033083120313BF008A
:10177E003F08DD0008000230831603139F0083121A
:10178E00031388018901831603138801890101302F
:10179E000A128A15B4210A128A1538300A128A15CD
:1017AE00B4210A128A150C300A128A15B4210A12B3
:1017BE008A1506300A128A15B4210A128A150230C9
:1017CE000A128A15B4210A128A150800831203130D
:1017DE00AE01AF01F22B2A1CF52BF62BFC2B2C089D
:1017EE00AE070318AF0A2D08AF0701300310AC0D7A
:1017FE00AD0DFF3E031DFD2B01300310AB0CAA0CEB
:10180E00FF3E031D042C2B082A04031D0F2C102C45
:10181E00F22B112C2F08AB01AB072E08AA01AA0739
:10182E00182C0800F01A1C2C1D2C452C0A128A1597
:10183E0044210A128A157A06031D262C272C452CC4
:10184E000A128A1549210A128A157B06031D302CAD
:10185E00312C452C02300A128A157C210A128A1567
:10186E00F01606300A128A1560210A128A155230B5
:10187E000A128A158E210A128A15452C08008C34FC
:10188E0001340B344C340834803404344C3410346A
:10189E00803404344C3410348034043448340834E6
:1018AE004C3410344F3420348034083443341034E4
:1018BE008C34043409344A344034493410344A34B4
:1018CE00103449343034453430348034203442348A
:1018DE001C34473420344234303400300A128A111A
:1018EE009E270A128A15831603135F0883120313A9
:1018FE00C201C207831603135E0883120313C101CC
:10190E00C1070A128A1115200A128A1583120313AF
:10191E00420883160313E501E507831203134108FA
:10192E0083160313E401E4076508E301E307640883
:10193E00E201E207A22C080083120313D501D6019F
:10194E000314D60D0A128A15C8210A128A150A1214
:10195E008A15C2230A128A150130831603138600D4
:10196E00043081008B164030940022308312031312
:10197E00940090308316031387008312031387019C
:10198E000B178B170A128A15F7220A128A150A12DA
:10199E008A1510220A128A150A128A15B8250A12F9
:1019AE008A15080083120313B2000330B1008A3087
:1019BE00B0005630AF00AF0BE22CB00BE22CB10BE7
:1019CE00E22CE92C89300A128A1568220A128A152D
:1019DE008312031332080A128A1568220A128A1514
:1019EE00831203132C080A128A1568220A128A150A
:1019FE00831203132D080A128A1568220A128A15F9
:101A0E00831203132E080A128A1568220A128A15E7
:101A1E000800193083120313B3003308AC00AD0174
:101A2E00AE010314AE0D00300A128A15D9240A1223
:101A3E008A1583120313AC015530B3003308AD0081
:101A4E009D300A128A1547230A128A158312031330
:101A5E00AC01AD01AE0100300A128A15D9240A126A
:101A6E008A15A53083120313B500E030B400FE30A2
:101A7E00B300B30B402DB40B402DB50B402D080019
:101A8E008C3402340D3448341C3448341C344F34F6
:101A9E004034803410344D341C344C341C344834AF
:101AAE0040348034103445341C3445341C344534B1
:101ABE001C3448341C34483440348C3403340C34D5
:101ACE0049340834473408344934203442344034DD
:101ADE00803420344A340834493408344A340834C3
:101AEE0080340C344934063480340C34473430346A
:101AFE0083120313B301B401A82D83120313330809
:101B0E002C07B1002D08B0000318B00AB31F902D9A
:101B1E00B003831203133008B20031088400831718
:101B2E00321C831300080A128A1568220A128A15BB
:101B3E00013083120313B3070318B40A0030B4073D
:101B4E00A82D3408803AB0002F08803A3002031DC9
:101B5E00B22D2E083302031CB52DB62D842DB72DB4
:101B6E000800AD3083120313AC000130AD001B3002
:101B7E00AE000030AF000A128A157F250A128A15B0
:101B8E00A03083120313AC000030AD001930AE004C
:101B9E000030AF000A128A157F250A128A1590307E
:101BAE0083120313AC000130AD001D30AE000030C7
:101BBE00AF000A128A157F250A128A15B9308312D0
:101BCE000313AC000030AD001530AE000030AF0096
:101BDE000A128A157F250A128A1508007A08023A17
:101BEE00031DFA2DFB2D072E7B08023A031D002E36
:101BFE00012E072E83120313DE010314DE0D322E87
:101C0E007A08043A031D0C2E0D2E1A2E7B08023A6A
:101C1E00031D122E132E1A2E023083120313AA0046
:101C2E002A08DE00322E7A08023A031D1F2E202EBD
:101C3E002C2EFB08031D242E252E2C2E0330831252
:101C4E000313AA002A08DE00322E83120313DE01CC
:101C5E00322E322E322E0800193083120313B300A7
:101C6E003308AC00FF30B4003408AD00FF30B500CF
:101C7E003508AE0000300A128A15D9240A128A15C8
:101C8E00FF3083120313B3003308AC00A930B40045
:101C9E003408AD009D300A128A1547230A128A15A0
:101CAE0083120313AC01AD01AE0100300A128A1586
:101CBE00D9240A128A15A53083120313B500E03019
:101CCE00B400FE30B300B30B6A2EB40B6A2EB50B04
:101CDE006A2E0800831203139E01831603139E01BE
:101CEE00831203131F157B2E1F197E2E7F2E7B2E24
:101CFE00802E4030B0000030B100831603131E0852
:101D0E0083120313BB00BC013B08B2003C08B300B6
:101D1E000A128A1159260A128A15831203131E08F3
:101D2E00BD00BE010230FF000310BD0DBE0DFF0B46
:101D3E009B2E30083D07BF0031080318310A3E07BD
:101D4E00C0004008BA01BA073F08B901B907AF2E63
:101D5E000800711EB32EB42EEF2EF01EB72EB82E25
:101D6E00CE2E03300A128A157C210A128A1583128E
:101D7E000313E40109300A128A1560210A128A152A
:101D8E0056300A128A158E210A128A15EF2E7B08FA
:101D9E0083120313AE002E08AA007A080A128A11C3
:101DAE0060250A128A1583120313AF002F08E40070
:101DBE0008300A128A1560210A128A15831203133B
:101DCE0064080A128A11F3270A128A15EF2EEF2ED3
:101DDE000800F001F101F801F90183134530840088
:101DEE0066300A128A154E210A128A15CE308400E8
:101DFE00DE300A128A154E210A128A158317C83050
:101E0E00FD000D30FE004730FF00903084000A12B6
:101E1E008A15A5210A128A158313CE30FD000C30C7
:101E2E00FE004630FF00A03084000A128A15A5215C
:101E3E000A128A150A128A11FE270A128A15FA0048
:101E4E000A128A11FF270A128A15FB0083010A1251
:101E5E008A11DF2D730872040319362F372F6D2F59
:101E6E00F7010314F70D472F01300310F20DF30D98
:101E7E00FF3E031D3C2F0130F6007608F707472F73
:101E8E00F31F4A2F4B2F3B2F4D2F4D2F73087502EB
:101E9E00031D532F72087402031C562F572F5E2FEB
:101EAE007208F4027308031CF503F5025E2F01306D
:101EBE000310F30CF20CFF3E031D5F2F0130F702EF
:101ECE00031D6A2F6B2F4D2F6D2F6D2F7508F3018C
:101EDE00F3077408F201F207742F08001930831209
:101EEE000313B3003308AC00AD01AE010314AE0D05
:101EFE0000300A128A15D9240A128A158312031386
:101F0E00AC01AA30B3003308AD009D300A128A1519
:101F1E0047230A128A1583120313AC01AD01AE01D9
:101F2E0000300A128A15D9240A128A15A530831296
:101F3E000313B500E030B400FE30B300B30BA52F91
:101F4E00B40BA52FB50BA52FA53083120313B50027
:101F5E00E030B400FE30B300B30BB32FB40BB32F8D
:101F6E00B50BB32F080083120313AE000330AB0082
:101F7E002B0887042A0893000630AD001330AC00FE
:101F8E00B130AB00AB0BC92FAC0BC92FAD0BC92FAA
:101F9E00D02F83120313AF010314AF0DEA2F0715D1
:101FAE00FB30AB002B0887058230AC00DD30AB0078
:101FBE00AB0BDF2FAC0BDF2FE42F0130831203139B
:101FCE00AB002B08AF072F082E020318EF2FF02FB0
:101FDE00D62FF12F93010630AD001330AC00B13087
:101FEE00AB00AB0BF82FAC0BF82FAD0BF82FFF2F70
:021FFE000800D9
:02400E0032FF7F
:00000001FF
