:060000000A128A11122809
:10000800FE00030E83120313A6000408A7000A08C3
:10001800A8007F08A9000A128A15972C0A128A15C7
:1000280023280A168A1175240A128A1183120313C7
:10003800AC01AD01AE0100300A168A11AB240A12D8
:100048008A1100300A168A1140210A128A110130D9
:100058000A168A11D2220A128A1140300A168A1107
:1000680040210A128A1112300A168A11D2220A1263
:100078008A11F129831603134008031D44289F2879
:10008800F118472848289F280A128A152C220A1294
:100098008A11F01F502851285F28711D54285528AF
:1000A8005F28701E582859285F280A168A11DD26ED
:1000B8000A128A117D28711D622863286D28701E16
:1000C800662867286D280A168A11E2240A128A11FE
:1000D8007D28F01F702871287D28701E74287528C7
:1000E8007D280A168A1192250A128A117D287D28F0
:1000F8007D28F11406300A168A1140210A128A1145
:1001080045300A168A1179210A128A1101300A1615
:100118008A1167210A128A110D3083160313E10030
:10012800610883120313AA000C300A168A114224AC
:100138000A128A119F28831603134008031DA52855
:10014800F129F11CA828A928F1290A168A111524D1
:100158000A128A1105300A168A1167210A128A11B1
:100168000A128A1573200A128A1105300A168A1192
:1001780067210A128A110A128A152C220A128A1178
:1001880005300A168A1167210A128A11F01FCD2834
:10019800CE28D4280A128A15A5260A128A11E3281D
:1001A8000D3083160313E100610883120313AA00BC
:1001B8000C300A168A1142240A128A11E3280530E3
:1001C8000A168A1167210A128A11701EEC28ED2876
:1001D800F3280A128A15EC230A128A11F32805302B
:1001E8000A168A1167210A128A11B6290A168A1173
:1001F80098260A128A11C629F01E032904293529CE
:10020800831203136208013A031D0B290C291229D2
:100218000A168A111D230A128A11C6290A168A117A
:100228001D210A128A11023A031D1B291C292229A1
:100238000A168A11E0210A128A11C6290A168A1199
:100248001D210A128A11013A031D2B292C29C629BE
:100258000A168A111D230A128A11C629C629C62917
:10026800C6290A168A1198260A128A11C629C62989
:10027800F01E3F2940297129831203136208023AAC
:10028800031D472948294E290A168A11E0210A1216
:100298008A11C6290A168A111D210A128A11013AE1
:1002A800031D572958295E290A168A111D230A1287
:1002B8008A11C6290A168A111D210A128A11033ABF
:1002C800031D67296829C6290A168A11F7220A1206
:1002D8008A11C629C629C629C6290A168A11982646
:1002E8000A128A11C629C629F01E7B297C29AD2944
:1002F800831203136208033A031D832984298A2978
:100308000A168A111D230A128A11C6290A168A1189
:100318001D210A128A11023A031D932994299A2948
:100328000A168A11E0210A128A11C6290A168A11A8
:100338001D210A128A11013A031DA329A429C629DD
:100348000A168A11F7220A128A11C629C629C6294D
:10035800C6290A168A1198260A128A11C629C62998
:10036800C629C629831603134508003A0319FA2833
:10037800013A03190029033A03193C29013A0319E0
:100388007829C62905300A168A1167210A128A11A6
:100398000A168A1136210A128A11031CD429D52972
:1003A800F1290A128A15D1200A128A110A168A110D
:1003B80012260A128A11F01EE229E329E8290A16F0
:1003C8008A114E220A128A1105300A168A116721EB
:1003D8000A128A11F129F129F129701FF429F52946
:1003E8003E28F6290A128A1112288312031342089A
:1003F800803AFF0080307F02031D042A52304102F8
:100408000318072A082A112AE73083120313C100A8
:100418000330C200C72BC72BC72B83120313420814
:10042800803AFF0080307F02031D1C2A853041027C
:1004380003181F2A202A582A333083120313B000C6
:100448000030B1004109C3004209C400C30A0319BE
:10045800C40A4308853EAA0044080318013E003E2A
:10046800AB003230AC000030AD000A168A11E92327
:100478000A128A11831203132B08B301B3072A083F
:10048800B201B2070A128A1539210A128A11831297
:1004980003133008613EC10031080318013E003ED5
:1004A800C200C72BC72BC72B831203134208803AFD
:1004B800FF0080307F02031D632AB8304102031811
:1004C800662A672A9F2A333083120313B00000304C
:1004D800B1004109C3004209C400C30A0319C40A90
:1004E8004308B83EAA0044080318013E003EAB008A
:1004F8001E30AC000030AD000A168A11E9230A123A
:100508008A11831203132B08B301B3072A08B20117
:10051800B2070A128A1539210A128A1183120313A3
:100528003008433EC10031080318013E003EC200B6
:10053800C72BC72BC72B831203134208803AFF002F
:1005480081307F02031DAA2A003041020318AD2A18
:10055800AE2AE62A483083120313B0000030B100F7
:100568004109C3004209C400C30A0319C40A430865
:10057800003EAA0044080318013E013EAB001430B7
:10058800AC000030AD000A168A11E9230A128A115C
:10059800831203132B08B301B3072A08B201B20769
:1005A8000A128A1539210A128A1183120313300894
:1005B8002E3EC10031080318013E003EC200C72B81
:1005C800C72BC72B831203134208803AFF008130E0
:1005D8007F02031DF12A3D3041020318F42AF52A4F
:1005E8002D2B3D3083120313B0000030B1004109B8
:1005F800C3004209C400C30A0319C40A43083D3EA4
:10060800AA0044080318013E013EAB000A30AC00C2
:100618000030AD000A168A11E9230A128A118312E2
:1006280003132B08B301B3072A08B201B2070A1251
:100638008A1539210A128A11831203133008253EBC
:10064800C10031080318013E003EC200C72BC72B6A
:10065800C72B831203134208803AFF0081307F02C0
:10066800031D382B9A30410203183B2B3C2B742B6B
:100678005D3083120313B0000030B1004109C3009C
:100688004209C400C30A0319C40A43089A3EAA00CF
:1006980044080318013E013EAB000A30AC000030AC
:1006A800AD000A168A11E9230A128A11831203136C
:1006B8002B08B301B3072A08B201B2070A128A1538
:1006C80039210A128A118312031330081C3EC10013
:1006D80031080318013E003EC200C72BC72BC72BA9
:1006E800831203134208803AFF0082307F02031D01
:1006F8007F2B0A3041020318822B832BBB2B7030CF
:1007080083120313B0000030B1004109C30042094D
:10071800C400C30A0319C40A43080A3EAA004408CD
:100728000318013E023EAB000A30AC000030AD00B9
:100738000A168A11E9230A128A11831203132B0855
:10074800B301B3072A08B201B2070A128A15392180
:100758000A128A11831203133008123EC1003108AD
:100768000318013E003EC200C72BC72BC72B8312BC
:100778000313C101C201C72BC72BC72BC72BC72B1C
:10078800C72BC72BC72B080083120313BA01BB0161
:10079800BC01BD017114FA30B8003808AC008030D3
:1007A800B9003908AD00AE0100300A168A11AB2431
:1007B8000A128A11F1117B2D831203133D08803A26
:1007C800FF0080307F02031DEB2B64303C02031CCA
:1007D800EE2BEF2BA72C8E300A168A116E220A12E6
:1007E8008A110A300A168A116E220A128A110A160A
:1007F8008A11B0220A128A1183120313B80038082A
:10080800C100C108031D092C0A2C592C8E300A1668
:100818008A116E220A128A110B300A168A116E2268
:100828000A128A110A168A11B0220A128A11831230
:100838000313B8003808C100C108031D242C252C57
:10084800592C8E300A168A116E220A128A11093022
:100858000A168A116E220A128A110A168A11B02201
:100868000A128A1183120313B8003808C100C1089C
:10087800031D3F2C402C592C8E300A168A116E22EB
:100888000A128A110C300A168A116E220A128A116B
:100898000A168A11B0220A128A1183120313B800A9
:1008A8003808C100592C592C592C4108013A031D0C
:1008B8005E2C5F2CA72CAC01AD01AE0100300A16EE
:1008C8008A11AB240A128A110A168A1124270A12DD
:1008D8008A11831203136108013A031D742C752CC5
:1008E800862C83160313E3010314E30D0A168A11F9
:1008F80092250A128A1103300A168A1156210A1201
:100908008A11A42C831203136108033A031D8D2C4A
:100918008E2CA02C0330B800380883160313E3008C
:100928000A168A11E2240A128A1101300A168A115B
:1009380056210A128A11A42C83160313E301A42C4E
:100948007110A72CA72C8E300A168A116E220A1253
:100958008A110D300A168A116E220A128A110A1695
:100968008A11B0220A128A1183120313B8003808B8
:10097800C0004008013A031DC22CC32C222DAC0133
:10098800AD01AE0100300A168A11AB240A128A1191
:100998000A168A1118210A128A1183120313B80041
:1009A8003808AE006008B9003908AF000A168A1185
:1009B80013210A128A110A128A1573250A128A113A
:1009C8000A168A1124270A128A118312031361084E
:1009D800013A031DF02CF12C022D83160313E301B9
:1009E8000314E30D0A168A1192250A128A1103309C
:1009F8000A168A1156210A128A11202D831203130E
:100A08006108033A031D092D0A2D1C2D0330B80077
:100A1800380883160313E3000A168A11E2240A121F
:100A28008A1101300A168A1156210A128A11202DBC
:100A380083160313E301202D7110222D8E300A1620
:100A48008A116E220A128A1113300A168A116E222E
:100A58000A128A110A168A11B0220A128A118312FE
:100A68000313B8003808BE000A168A11B0220A1209
:100A78008A1183120313B8003808BF003E08B80073
:100A8800B9013808B900B8013F083807BA00003082
:100A9800031801303907BB003A08BC070318BD0A20
:100AA8003B08BD073D08803AB8003708803A38024D
:100AB800031D602D36083C02031C632D642D7B2D1D
:100AC80083120313AC01AD01AE0100300A168A117E
:100AD800AB240A128A11F115711002308312031324
:100AE800B800380883160313E3007B2D7B2D71189B
:100AF8007E2D7F2DE02B802D0800831603134B08D5
:100B080083120313D800831603134C0883120313AC
:100B1800D900831603134D0883120313DA00031058
:100B2800590D5A0DDB005B0883160313D3004E08DA
:100B380083120313D800831603134F088312031379
:100B4800D90083160313500883120313DA00031025
:100B5800590D5A0DDB005B0883160313D2005308A6
:100B6800031DB72DCA2D520853020318BC2DBD2DE5
:100B7800D42D5303FF3A520783120313D8001930B8
:100B88005802031CC82DC92DD42DCA2D8316031352
:100B98004E08CB004F08CC005008CD000D2F0D2F6C
:100BA800831603135208031DDA2DEC2D5308520245
:100BB8000318DF2DE02DED2D5203FF3A5307831262
:100BC8000313D80019305802031CEB2DEC2DED2D22
:100BD8000D2F06308312D800580883160313D1004E
:100BE800CD1FF72DF82DF92DD117D01FFC2DFD2D78
:100BF800FE2D5117CC17FF30CB05FF30CC05003048
:100C0800CD05CF17FF30CE05FF30CF050030D0051A
:100C1800520853020318112E122E472E132E01309C
:100C28000310CE0DCF0DD00DFF3E031D142E013045
:100C3800D202520853060319222E232E3F2E0130CA
:100C4800D10251080739031D2A2E2B2E132E3F2EB1
:100C58003F2E3F2E01300310CD0CCC0CCB0CFF3EA9
:100C6800031D2F2E013083120313D8005808831652
:100C78000313D3073F2E53085206031D442E452E57
:100C88002E2E822E822E5308520203184C2E4D2EE1
:100C9800822E4E2E01300310CB0DCC0DCD0DFF3E14
:100CA800031D4F2E0130D3025208530603195D2E3F
:100CB8005E2E7A2E0130D10251080739031D652EA8
:100CC800662E4E2E7A2E7A2E7A2E01300310D00CF4
:100CD800CF0CCE0CFF3E031D6A2E01308312031386
:100CE800D800580883160313D2077A2E53085206E1
:100CF800031D7F2E802E692E822E822ED11F852ED7
:100D0800862E972EFF30CB06FF30CC06FF30CD065F
:100D18000130CB07003003180130CC07003003182E
:100D28000130CD07972E511F9A2E9B2EAC2EFF30E7
:100D3800CE06FF30CF06FF30D0060130CE07003098
:100D480003180130CF07003003180130D007AC2E4C
:100D5800D1014B08CE074C08031103184C0A03199C
:100D6800B62ECF074D08031103184D0A0319BD2EDF
:100D7800D007D01FC02EC12ED52EFF30CE06FF3093
:100D8800CF06FF30D0060130CE07003003180130FF
:100D9800CF07003003180130D007D1010314D10D5B
:100DA800D52E4E0883120313AA00831603134F0887
:100DB80083120313AB008316031350088312031323
:100DC800AC0083160313530883120313D800580882
:100DD800AD0083160313510883120313D900590871
:100DE800AE000A128A15AF210A128A118312031360
:100DF8002A0883160313CB00831203132B088316C8
:100E08000313CC00831203132C0883160313CD009D
:100E18000D2F0800831203134808CE004908CF009D
:100E28004A08D00003104F0D500DD1005108D200D0
:100E3800D208031D202F212F292F0030C800003091
:100E4800C9000030CA00FB2FFB2F4B08CE004C080E
:100E5800CF004D08D00003104F0D500DD1005108A0
:100E6800D700D708031D392F3A2F422F0030C8006A
:100E78000030C9000030CA00FB2FFB2F57087B3E0B
:100E8800CE004E08D2074808CE004908CF004A08CD
:100E9800D00010300310D00CCF0CCE0CFF3E031D39
:100EA8004E2F4E08D1005108D7004B08CE004C08F1
:100EB800CF004D08D00010300310D00CCF0CCE0C52
:100EC800FF3E031D602F4E08D1005108D706803021
:100ED800CE004E08D705C917CC17FF30CB05FF3019
:100EE800CC050030CD050030D3000030D4000030F0
:100EF800D5000730CE004E08D600822F481C852F1B
:100F0800862F972F4B08D3074C08031103184C0A58
:100F180003198F2FD4074D08031103184D0A03191D
:100F2800962FD507972F01300310CA0CC90CC80C8F
:100F3800FF3E031D982F01300310CB0DCC0DCD0DB6
:100F4800FF3E031DA02F0130D602031DAC2FAD2F8D
:100F5800822FAE2F0930CE004E08D600B32F481C82
:100F6800B62FB72FC82F4B08D3074C080311031807
:100F78004C0A0319C02FD4074D08031103184D0A52
:100F88000319C72FD507C82F01300310CA0CC90C85
:100F9800C80CFF3E031DC92F01300310D50CD40C1B
:100FA800D30CFF3E031DD12F0130D602031DDD2FC8
:100FB800DE2FB32FDF2F5308AA005408AB005508C3
:100FC800AC005208CE004E08AD005708CF004F08BD
:100FD800AE000A128A15AF210A128A11831203136E
:100FE8002A08C8002B08C9002C08CA00FB2F0800D3
:060FF80003340134033450
:1010000000300A168A11D1250A128A158312031399
:101010004608C201C2074508C101C1070A128A1168
:10102000F9210A128A15831203134208CC01CC0756
:101030004108CB01CB074C08CA01CA074B08C901BC
:10104000C90722280800F001F101F801F901FA01AD
:10105000FB01DC01DD01DE01DF01E001E101E20174
:101060008313A0308400CB300A168A112E210A1275
:101070008A158317D930FD001730FE006B30FF0052
:10108000903084000A168A1190210A128A152D3098
:10109000FD001230FE003130FF00103084000A16CF
:1010A0008A1190210A128A158313E930FD0011304C
:1010B000FE002730FF00E23084000A168A119021DA
:1010C0000A128A156630FD000730FE00FC30FF0072
:1010D000633084000A168A1190210A128A1583014E
:1010E0000A128A1115288E300A168A116E220A12E7
:1010F0008A1511300A168A116E220A128A150A16EA
:101100008A11B0220A128A1583120313AE002E0828
:10111000B000F2303002031C8E288F28D02830080F
:10112000FF3A031994289528D028F01E982899286A
:10113000AF2803300A168A1167210A128A15831212
:101140000313E20109300A168A1140210A128A1596
:1011500056300A168A1179210A128A15D02883126C
:1011600003136508AE002E08AA0064080A128A1547
:10117000AB220A128A1583120313AF002F08E20074
:1011800008300A168A1140210A128A1583120313A5
:1011900062080A168A114B210A128A15D028D02813
:1011A000080040300A168A1140210A128A150A29BD
:1011B000013083120313AE002E08E5074E300A16E5
:1011C0008A1179210A128A151C290130831203130E
:1011D000E50253300A168A1179210A128A151C2950
:1011E000013083120313AE002E08E40745300A16BF
:1011F0008A1179210A128A151C29013083120313DE
:10120000E40257300A168A1179210A128A151C291C
:101210001C291C290A168A111D210A128A15003A56
:101220000319FD28013A0319E528033A0319F028A8
:10123000013A0319D8281C2901300A168A114021C5
:101240000A128A158312031364080A168A114B21A5
:101250000A128A1503300A168A1140210A128A15C9
:101260008312031365080A168A114B210A128A1584
:10127000080083120313B601B11F3F2940294929F1
:10128000B009B109B00A0319B10AB6010314B60DC9
:101290004929B31F4C294D295729B209B309B20A6C
:1012A0000319B30A0130B4003408B6065729B70150
:1012B000B8013108300403195E295F299D29B50161
:1012C0000314B50D6F2901300310B00DB10DFF3EB1
:1012D000031D64290130B4003408B5076F29B11F1C
:1012E0007229732963297529752901300310B70DF7
:1012F000B80DFF3E031D762931083302031D8229F4
:1013000030083202031C852986298E293008B20252
:101310003108031CB303B30237148E2901300310C4
:10132000B10CB00CFF3E031D8F290130B502031D27
:101330009A299B2975299D299D293608031DA129D4
:10134000A729B709B809B70A0319B80AA72938089D
:10135000B101B1073708B001B007AE290800831208
:1013600003132D08031DB529BD292C082B042A04BD
:10137000031DBB29BC29D329BD290030AA00003098
:10138000AB000030AC002B2A2B2AD3290130AF0050
:101390002F08AD0701300310AC0CAB0CAA0CFF3EBC
:1013A000031DCB29D329FE302C05031DD829D929AB
:1013B000C629F129F1290130AF002F08AD0701300E
:1013C000AA07003003180130AB07003003180130C2
:1013D000AC0701300310AC0CAB0CAA0CFF3E031D94
:1013E000EA29FF302C05031DF629F729DB29042AF9
:1013F000042A0130AD0201300310AA0DAB0DAC0D73
:10140000FF3E031DFC29042AAB1F072A082AF929DD
:101410002D180B2A0C2A122AFF30AA057F30AB05A3
:10142000FF30AC050310AD0C2D08AF00B001B101C9
:1014300010300310AF0DB00DB10DFF3E031D192A82
:101440002F08AA043008AB043108AC042E08031D91
:101450002A2A2B2AAC1708000B300A168A114021C1
:101460000A128A150A168A1115220A128A150318F9
:101470003A2A3C2AF0173D2AF013F01F402A412A4D
:10148000482A4C300A168A1179210A128A154E2AE6
:1014900020300A168A1179210A128A150F30831218
:1014A0000313CD004D08AA0018300A168A114224F1
:1014B0000A128A150A168A1115220A128A150318A9
:1014C000622A642A7016652A7012701E682A692AB8
:1014D000702A46300A168A1179210A128A15762A4C
:1014E00020300A168A1179210A128A150F308312C8
:1014F0000313CD004D08AA0018300A168A114224A1
:101500000A128A150A168A1115220A128A15031858
:101510008A2A8C2A71158D2A7111711D902A912A9F
:10152000982A52300A168A1179210A128A159E2A9F
:1015300020300A168A1179210A128A150D30831279
:101540000313CD004D08AA0024300A168A11422444
:101550000A128A15080083120313AC00302BC12A2B
:101560000430AB002B0883160313C900412B043051
:101570008312AB002B0883160313C900412B412BA8
:10158000412B83122A08003A0319B02A013A0319A1
:10159000B72A412B412BDD2A0430AB002B088316E0
:1015A0000313C900412B04308312AB002B088316B0
:1015B0000313C900412B412B412B83122A08003A07
:1015C0000319CC2A013A0319D32A412B412BF72ABC
:1015D0000330AB002B0883160313C900412B83167D
:1015E0000313C9010314C90D412B412B412B831255
:1015F0002A08013A0319E82A023A0319EF2A412B73
:10160000412B132B0330AB002B0883160313C900A7
:10161000412B02308312AB002B0883160313C90041
:10162000412B412B412B83122A08013A0319022B2B
:10163000023A0319092B412B412B272B0230AB0017
:101640002B0883160313C900412B412B412B831216
:101650002A08033A03191E2B412B412B412B412B06
:101660002C08003A0319C12A013A0319DD2A033A6A
:101670000319F72A013A0319132B073A0319272BE9
:10168000412B831603134908452B080083120313CB
:101690003208B6003308B7003408B8000310370D1D
:1016A000380DB9003908BF00BF08031D582B592B4E
:1016B000632B0030B5000030B4000030B3000030C0
:1016C000B200EB2BEB2B3208B6003308B70034081E
:1016D000B80017300310B80CB70CB60CFF3E031D52
:1016E0006A2B3608B9003908BA00B317FF30B205C3
:1016F000FF30B3050030B4053208BB003308BC002E
:101700003408BD00BE018E30BF02BF1F882B892B5D
:10171000AE2B3F08803A8F3E03188F2B902B9B2BCC
:101720000030B5000030B4000030B3000030B2002B
:10173000EB2BEB2B9B2B01300310BE0CBD0CBC0C18
:10174000BB0CFF3E031D9C2B0130B6003608BF07C3
:10175000031DAB2BAC2B9B2BD22BD22B18303F0273
:10176000031CB32BB42BCB2B0030B5000030B400DE
:101770000030B3000030B200EB2BEB2BCB2B013051
:10178000B6000310BB0DBC0DBD0DBE0DB60BC12BBD
:101790000130BF02CB2BBF08031DCF2BD02BBF2B9B
:1017A000D22BD22B3A08031DD62BE22BBB09BC0946
:1017B000BD09BE09BB0A0319BC0A0319BD0A0319F6
:1017C000BE0AE22B3E08B5003D08B4003C08B30059
:1017D0003B08B200EB2B08000F3083120313CD003F
:1017E0004D08AA0018300A168A1142240A128A15D6
:1017F0000A128A1500200A128A15831203134A0856
:10180000D001D0074908CF01CF075008803AFF0028
:1018100080307F02031D0E2C2D304F020318112C37
:10182000122C462C7D3083120313CD004D08AC00E2
:101830008030CE004E08AD00AE01FF300A168A118E
:10184000AB240A128A15252C252C0A128A15002091
:101850000A128A15831203134A08803AFF00803067
:101860007F02031D352C33304902031C382C392CE0
:10187000252C3A2C83120313AC01AD01AE010030CC
:101880000A168A11AB240A128A158A2C83120313B2
:101890005008803AFF0080307F02031D512C383001
:1018A0004F02031C542C552C8A2CFA30831203133C
:1018B000CD004D08AC008030CE004E08AD00AE012A
:1018C00000300A168A11AB240A128A15682C682C7B
:1018D0000A128A1500200A128A15831203134A0875
:1018E000803AFF0080307F02031D782C343049029B
:1018F00003187B2C7C2C682C7D2C83120313AC01E9
:10190000AD01AE0100300A168A11AB240A128A1505
:101910008A2C8A2C0D3083120313CD004D08AA00A7
:1019200018300A168A1142240A128A1508000B1D63
:101930009A2C9B2C672D0B11643081000130DC0741
:101940000318DD0A0030DD07F0140A30F200003021
:10195000F3005D08F501F5075C08F401F4070A16C9
:101960008A1154260A128A1573087204031DB92CB1
:10197000BA2CBC2C7014BC2C3230F2000030F300B6
:10198000831203135D08F501F5075C08F401F40701
:101990000A168A1154260A128A1573087204031D46
:1019A000D22CD32CD52CF015D52CF430F2000130EC
:1019B000F300831203135D08F501F5075C08F401D9
:1019C000F4070A168A1154260A128A158312031381
:1019D0000618EB2CEC2C162D0130A00020088316E5
:1019E0000313C207410883120313A000A1010A30A8
:1019F00083160313420200300318013083120313CD
:101A0000A200A30120082205A40021082305A500A7
:101A10002508240403190D2D0E2D1D2D83160313E7
:101A2000C0010314C00DC1011D2D1D2D831603130C
:101A3000C201C1010314C10D1D2D83128C1E212D65
:101A4000222D402D1A08A0007808A03E840020080E
:101A5000831380007808013E0F39A0002008831608
:101A60000313C600460879060319372D382D402D7B
:101A7000460883120313A0002008F800402D402DD3
:101A800083120C1E442D452D672D831603130C1E47
:101A90004A2D4B2D672D7B08B03E84008313000830
:101AA0008312031399000130A0002008FB070F30B8
:101AB000A0002008FB057B087A06031D602D612D20
:101AC000672D831603130C12672D672D672D831264
:101AD0002908FF0028088A0027088400260E8300B2
:101AE000FE0E7E0E090083120313B100772E912D96
:101AF000E30183160313E2010314E20D882EE301D0
:101B00000230B000300883160313E200882EE30190
:101B10000330B000300883160313E200882E882EAD
:101B2000882E83122E08013A0319782D033A0319DF
:101B30007F2D013A0319872D882E882EC82DE301A9
:101B40000314E30D83160313E201882E8312E301CD
:101B50000314E30D83160313E2010314E20D882E30
:101B60008312E3010314E30D0230B0003008831642
:101B70000313E200882E8312E3010314E30D033004
:101B8000B000300883160313E200882E882E882EBA
:101B900083122E08003A03199F2D013A0319A62D2E
:101BA000033A0319B02D013A0319BB2D882E882E54
:101BB000092EAF08031DDD2DDE2D882E0330B00069
:101BC0003008E30083160313E2010314E20D882EAC
:101BD000882E02308312B0003008E300831603130E
:101BE000E2010314E20D882E83122F08023A031D2E
:101BF000FA2DFB2D882E0230B0003008E3000230B1
:101C0000B000300883160313E200882E882E882E39
:101C1000882E83122E08003A0319D92D013A031990
:101C2000E92D033A0319F42D882E882E2D2E03302A
:101C3000B0003008E30083160313E201882E03305E
:101C40008312B0003008E3000230B0003008831681
:101C50000313E200882E882E882E83122E08003A65
:101C60000319172E023A03191F2E882E882E652E6F
:101C70000430B0003008E30083160313E201882E1D
:101C800004308312B0003008E30083160313E2012E
:101C90000314E20D882E83122F08013A031D512EE2
:101CA000522E882E0430B0003008E3000230B0001D
:101CB000300883160313E200882E882EE301831672
:101CC0000313E201882E882E882E83122E08003AF4
:101CD0000319382E013A0319402E033A03194B2EEB
:101CE000013A03195E2E882E882E882E882E310800
:101CF000003A0319912D013A0319C82D033A03192B
:101D0000092E013A03192D2E073A0319652E882E44
:101D100047300A168A1140210A128A1583120313CA
:101D200063080A168A114B210A128A1549300A16CD
:101D30008A1140210A128A158316031362080A16B3
:101D40008A114B210A128A150800033083160313E7
:101D5000D4005408831203138704E7308316031357
:101D6000D7000330D800F430DD00FF30DE005E081D
:101D7000803AFF0080307F02031DC02E0D305D02CF
:101D8000031CC32EC42EC62E182F182F0A128A1514
:101D900000200A128A15831203134A0883160313BC
:101DA000DC01DC0783120313490883160313DB01EC
:101DB000DB075C08803AD4005808803A5402031DBF
:101DC000E32E57085B020318E62EE72EF42E831647
:101DD00003135D08D4005408D6005C08D801D80766
:101DE0005B08D701D707F42E0D3083160313D400F8
:101DF000540883120313AA0001300A168A114224E0
:101E00000A128A15013083160313DD070318DE0A50
:101E10000030DE075E08803AFF0080307F02031D3D
:101E2000132F0D305D02031C162F172FC62E182FEF
:101E30000F3083160313D400540883120313AA002F
:101E40000C300A168A1142240A128A1583160313CB
:101E500056080A168A118F220A128A158312031352
:101E60004008CB004108CC004208CD000030C8003B
:101E70007030C9004030CA000A128A110E270A12B7
:101E80008A1583120313480883160313CE008312A6
:101E90000313490883160313CF00831203134A0860
:101EA00083160313D0000030CB00C030CC00C0300C
:101EB000CD000A128A1181250A128A15831603138E
:101EC0004B0883120313B200831603134C088312CA
:101ED0000313B300831603134D0883120313B400D6
:101EE0000A128A1546230A128A158312031333082D
:101EF00083160313E001E0078312031332088316ED
:101F00000313DF01DF07D9015F08D4005408DA00AA
:101F1000E01F8B2F8C2F952F5F08683EDF00600835
:101F20000318013E013EE000952F6008803AFF0053
:101F300081307F02031D9E2F00305F02031CA12F02
:101F4000A22FAD2F83160313D9010314D90D5F08F7
:101F5000013ED4005408DA00AD2F83160313600845
:101F6000803AFF0080307F02031DB82F09305F02E6
:101F7000031CBB2FBC2FFF2F831603136008803A6E
:101F8000FF0081307F02031DC72F60305F020318FE
:101F9000CA2FCB2FFF2F323083160313D4005408DF
:101FA00083120313AC00AD01AE010314AE0D00307B
:101FB0000A168A11AB240A128A15831603135908CC
:101FC000D400540883120313AC00831603135A0879
:101FD000D500550883120313AD009D300A168A11EF
:101FE0006C230A128A1583120313AC01AD01AE01F2
:101FF00000300A168A11AB240A128A15FF2F080036
:1020000010308A000408840A8207003428342D34F2
:102010002C342D34293420342D3420342D342D34D7
:1020200020342D342D342D3420342D3400342D34EF
:1020300020342D3420342D342034283433342C34BF
:102040003134293420344734523445344734003451
:1020500045344534503452344F344D3420345334A5
:102060007534633463346534733473340034453405
:102070004534503452344F344D3420344634613476
:0A20800069346C34653464340034B4
:102212008312031363080D2908008316031362084F
:102222001229080083120313640817290800831275
:10223200031365081C29080083120313600821296F
:1022420008008316031363082629080001340234A8
:102252008C34053401344834043464008001840A27
:1022620004060319003404062F29F11939293A29E1
:102272003C2903103F2903143F293F2908008312F8
:102282000313AD00AD172D080A168A119F210A16F5
:102292008A11080083120313AD002D08303E0A167E
:1022A2008A1179210A168A11080083120313AB00DE
:1022B2002B08AA002A08E00704306002031C6229E6
:1022C200632966290430E002662908008312031399
:1022D200AC008D300A168A116E220A168A118312F8
:1022E20003132C080A168A116E220A168A11080094
:1022F20083120313AC000911891009142C088800F9
:10230200091509110730AB007D30AA00AA0B8729F5
:10231200AB0B872908007E088A007F0882000A1614
:102322008A118C210A168A118000840A04087D060B
:1023320003190034FF0A0319FE0A902983120313BA
:10234200AC000911891009102C088800091509111F
:102352000D30AB00FB30AA00AA0BAD29AB0BAD29A7
:10236200B22908008312031385013F308316031339
:102372008500A130831203139F00023083160313DA
:102382009F00533083120313AA00AA0BC629080028
:1023920083120313981CCE29CF29D4291812181698
:1023A2000310DF29DF2978087906031DD929DA29E4
:1023B200DC290310DF290314DF29DF2908000F308D
:1023C2000A168A1140210A168A1146300A168A1103
:1023D20079210A168A1183120313E101E830B6004B
:1023E2000330B7000A128A11C8230A168A1108009C
:1023F200033083120313AE008A30AD005630AC00B6
:10240200AC0B012AAD0B012AAE0B012A082A80303F
:102412000A168A116E220A168A1184300A168A1145
:102422006E220A168A1108000A128A1500200A165C
:102432008A11831203134A08803AFF0080307F0218
:10244200031D252A65304902031C282A292A2D2A20
:102452000310302A302A302A0314302A302A080086
:102462008C3402340D3448341C3448341C344F3418
:102472004034803410344D341C344C341C344834D1
:1024820040348034103445341C3445341C344534D3
:102492001C3448341C344834403483120313640817
:1024A200013A031D552A562A6D2A6508033A031D6F
:1024B2005B2A5C2A6D2AAC01AD01AE0100300A161E
:1024C2008A11AB240A168A1104300A168A1167216E
:1024D2000A168A1170176D2A080083120313AB00C3
:1024E200732A732A7A08013E0F397B0603197A2A66
:1024F2007B2A732A8B132B08AA007A08B03E840029
:102502002A08831380007A08013E0F39AA002A089C
:10251200FA00831603130C168B1708008312031399
:10252200C7004708C300C401C5014308AA00440804
:10253200AB004508AC008E30C6004608AD00AE01C7
:102542000A128A15AF210A168A11831203132A0866
:10255200C0002B08C1002C08C200AF2A0800B22A12
:10256200B22A0A168A11C9210A168A11031CBA2A2A
:10257200BB2AB22A8B137908A03E84008313000879
:1025820083120313AA002A08AB000130AA002A080A
:10259200F9070F30AA002A08F9058B172B08D12A50
:1025A200080083120313AE00E92A2E0884000A16DB
:1025B2008A1100200A168A110A168A1179210A162E
:1025C2008A11013083120313AD002D08AE07E92AE8
:1025D2002E0884000A168A1100200A168A11003871
:1025E200031DF42AF52AD62AF62A08000F300A1605
:1025F2008A1140210A168A114C300A168A11792151
:102602000A168A110A168A11E2240A168A11013060
:102612000A168A1156210A168A1183120313E1013E
:102622000314E10DE830B6000330B7000A128A1134
:10263200C8230A168A1108000F300A168A1140218F
:102642000A168A1152300A168A1179210A168A113B
:102652000A168A1192250A168A1103300A168A115D
:1026620056210A168A11033083120313C20042084C
:10267200E100E830B6000330B7000A128A11C8231D
:102682000A168A110800831603138717BF308312B4
:102692000313AA002A08831603138705181514309A
:1026A20099001813831203131813831603131812B5
:1026B2008312031398171816831603130C128C1621
:1026C20098160030FB00FA00F90083120313AA00E7
:1026D2002A08F800080083120313B1000330B00087
:1026E2008A30AF005630AE00AE0B752BAF0B752B98
:1026F200B00B752B7C2B8312031331080A168A1137
:102702006E220A168A11831203132C080A168A11E2
:102712006E220A168A11831203132D080A168A11D1
:102722006E220A168A1108000F300A168A114021F9
:102732000A168A1142300A168A1179210A168A115A
:102742000A168A11DD260A168A1102300A168A1121
:1027520056210A168A11E83083120313B600033099
:10276200B7000A128A11C8230A168A11023083128C
:102772000313C2004208E10008000230831603136B
:102782009F008312031388018901831603138801B2
:10279200890101300A168A119F210A168A113830DE
:1027A2000A168A119F210A168A110C300A168A11FA
:1027B2009F210A168A1106300A168A119F210A16CB
:1027C2008A1102300A168A119F210A168A110800FC
:1027D20083120313AE01AF01EE2B2A1CF12BF22B55
:1027E200F82B2C08AE070318AF0A2D08AF070130EB
:1027F2000310AC0DAD0DFF3E031DF92B013003108C
:10280200AB0CAA0CFF3E031D002C2B082A04031D4F
:102812000B2C0C2CEE2B0D2C2F08AB01AB072E082A
:10282200AA01AA07142C08000A168A1109210A16FD
:102832008A11831203136406031D202C212C412CC0
:102842000A168A110E210A168A11831203136506CB
:10285200031D2C2C2D2C412C02300A168A116721C3
:102862000A168A11F01606300A168A1140210A1633
:102872008A1152300A168A1179210A168A11412CBC
:10288200080083120313AD000330AB002B0887044A
:102892002A089300AE010314AE0D632C0715FB301A
:1028A200AB002B0887058230AC00DD30AB00AB0BF0
:1028B200582CAC0B582C5D2C013083120313AB0047
:1028C2002B08AE072E082D020318682C692C4F2CFA
:1028D2006A2C93018230AC00DD30AB00AB0B6F2C65
:1028E200AC0B6F2C742C080083160313C001C101BA
:1028F2000314C10D0A168A11B3210A168A110A1687
:102902008A11BE230A168A11013083160313860028
:10291200043081008B16403094002230831203135E
:1029220094009030831603138700831203138701E8
:102932000B178B170A168A1144230A168A110A16D4
:102942008A11F9210A168A110A168A11B4270A165F
:102952008A11080083120313B2000330B1008A30D7
:10296200B0005630AF00AF0BB42CB00BB42CB10B8F
:10297200B42CBB2C89300A168A116E220A168A11CF
:102982008312031332080A168A116E220A168A115A
:10299200831203132C080A168A116E220A168A1150
:1029A200831203132D080A168A116E220A168A113F
:1029B200831203132E080A168A116E220A168A112E
:1029C2000800323083120313B3003308AC00AD01A8
:1029D200AE010314AE0D00300A168A11AB240A169A
:1029E2008A1183120313AC015530B3003308AD00D2
:1029F2009D300A168A116C230A168A118312031358
:102A0200AC01AD01AE0100300A168A11AB240A16E0
:102A12008A11993083120313B5003230B400383072
:102A2200B300B30B122DB40B122DB50B122D192DB1
:102A3200080083120313B301B401432D831203135D
:102A420033082C07B1002D08B0000318B00AB31FD9
:102A52002B2DB003831203133008B2003108840017
:102A62008317321C831300080A168A116E220A1673
:102A72008A11013083120313B3070318B40A00301A
:102A8200B407432D3408803AB0002F08803A300250
:102A9200031D4D2D2E083302031C502D512D1F2DC9
:102AA200522D0800831203139E01831603139E0105
:102AB200831203131F155D2D1F19602D612D5D2DCE
:102AC200622D4030B0000030B100831603131E089F
:102AD20083120313BB00BC013B08B2003C08B300E5
:102AE2000A128A1539210A168A11831203131E0843
:102AF200BD00BE010230FF000310BD0DBE0DFF0B75
:102B02007D2D30083D07BF0031080318310A3E070A
:102B1200C0004008BA01BA073F08B901B907912DB0
:102B22000800323083120313B3003308AC00FF30C5
:102B3200B4003408AD00FF30B5003508AE000030F7
:102B42000A168A11AB240A168A11FF308312031364
:102B5200B3003308AC00A930B4003408AD009D3096
:102B62000A168A116C230A168A1183120313AC0106
:102B7200AD01AE0100300A168A11AB240A168A1181
:102B8200993083120313B5003230B4003830B300E9
:102B9200B30BC92DB40BC92DB50BC92DD02D08000F
:102BA20083120313C800EE2D9F111F129F12FF2DD7
:102BB2009F151F129F12FF2D9F111F169F12FF2D8F
:102BC2009F151F169F12FF2D9F111F129F16FF2D7B
:102BD200C501C601112E112EFF2D4808003A031916
:102BE200D52D013A0319D92D033A0319DD2D013AE6
:102BF2000319E12D073A0319E52DE92D5330C700DA
:102C0200C70B012E0A168A1153250A168A1183123E
:102C120003133A08C601C6073908C501C507112EB4
:102C22000800831203136408023A031D192E1A2E98
:102C3200262E6508023A031D1F2E202E262E8316ED
:102C42000313C5010314C50D532E83126408043AFD
:102C5200031D2C2E2D2E3A2E6508023A031D322E0C
:102C6200332E3A2E0230AA002A0883160313C50017
:102C7200532E83126408023A031D402E412E4D2E1C
:102C8200E508031D452E462E4D2E0330AA002A08C4
:102C920083160313C500532E83160313C501532E47
:102CA200532E532E0800730872040319592E5A2EFC
:102CB200902EF7010314F70D6A2E01300310F20D66
:102CC200F30DFF3E031D5F2E0130F6007608F70775
:102CD2006A2EF31F6D2E6E2E5E2E702E702E7308CE
:102CE2007502031D762E72087402031C792E7A2E49
:102CF200812E7208F4027308031CF503F502812E7B
:102D020001300310F30CF20CFF3E031D822E013042
:102D1200F702031D8D2E8E2E702E902E902E75088A
:102D2200F301F3077408F201F207972E0800F01B73
:102D32009B2E9C2EAC2E0A168A1122210A168A116B
:102D4200013A0319A52EA62EAC2E0A168A11F722D5
:102D52000A168A11DC2E701AAF2EB02EC02E0A1659
:102D62008A1122210A168A11003A0319B92EBA2EA3
:102D7200C02E0A168A11E0210A168A11DC2E711958
:102D8200C32EC42ED42E0A168A1122210A168A11A3
:102D9200033A0319CD2ECE2ED42E0A168A111D23E4
:102DA2000A168A11DC2E0A168A1195230A168A112E
:102DB200DC2EDC2EDC2E0800323083120313B3002B
:102DC2003308AC00AD01AE010314AE0D00300A169B
:102DD2008A11AB240A168A1183120313AC01AA309A
:102DE200B3003308AD009D300A168A116C230A160F
:102DF2008A1183120313AC01AD01AE0100300A1631
:102E02008A11AB240A168A11993083120313B50072
:102E12003230B4003830B300B30B0D2FB40B0D2F8A
:102E2200B50B0D2F142F993083120313B5003230D6
:102E3200B4003830B300B30B1C2FB40B1C2FB50BEE
:102E42001C2F232F08000F300A168A1140210A1660
:102E52008A1121300A168A1179210A168A117D30C7
:102E620083120313B3003308AC008030B40034087B
:102E7200AD00AE01FF300A168A11AB240A168A1180
:102E8200FE3083120313B3003308AC000C30B400DD
:102E92003408AD009C300A168A116C230A168A1176
:102EA20083120313AC01AD01AE0100300A168A1180
:102EB200AB240A168A11333083120313B500BC30D7
:102EC200B4001030B300B30B642FB40B642FB50BF6
:102ED200642F08008C3403340C34493408344734EA
:102EE20008344934203442344034803420344A3463
:102EF2000834493408344A34083480340C344934B0
:102F0200063480340C34473430348C3401340B347E
:102F12004C340834803404344C3410348034043457
:102F22004C34103480340434483408344C34103473
:102F32004F34203480340834433410348C34043415
:102F420009344A344034493410344A341034493450
:102F52003034453430348034203442341C344734E5
:102F6200203442343034903083120313AC000130E9
:102F7200AD001B30AE000030AF000A168A111A25D0
:102F82000A168A11AB3083120313AC000130AD0074
:102F92001930AE000030AF000A168A111A250A163F
:102FA2008A11103083120313AC000130AD001D30C2
:102FB200AE000030AF000A168A111A250A168A11CD
:102FC200C43083120313AC000130AD001530AE00E3
:102FD2000030AF000A168A111A250A168A11E43047
:102FE20083120313AC000030AD000530AE00003098
:0E2FF200AF000A168A111A250A168A11080065
:02400E0032FF7F
:00000001FF
