:060000000A128A11122809
:10000800FE00030E83120313A6000408A7000A08C3
:10001800A8007F08A9000A128A11E4290A128A1185
:10002800BE2F831203134208803AFF0080307F02FC
:10003800031D2028523041020318232824282D2884
:10004800E73083120313C1000330C200E329E32918
:10005800E329831203134208803AFF0080307F02AD
:10006800031D38288530410203183B283C28742892
:10007800333083120313B0000030B1004109C300CC
:100088004209C400C30A0319C40A4308853EAA00EA
:1000980044080318013E003EAB003230AC0000308B
:1000A800AD000A128A15FD240A128A11831203135D
:1000B8002B08B301B3072A08B201B2070A128A1142
:1000C80059250A128A11831203133008613EC100B0
:1000D80031080318013E003EC200E329E329E32961
:1000E800831203134208803AFF0080307F02031D09
:1000F8007F28B8304102031882288328BB28333070
:1001080083120313B0000030B1004109C300420953
:10011800C400C30A0319C40A4308B83EAA00440825
:100128000318013E003EAB001E30AC000030AD00AD
:100138000A128A15FD240A128A11831203132B0846
:10014800B301B3072A08B201B2070A128A11592566
:100158000A128A11831203133008433EC100310882
:100168000318013E003EC200E329E329E329831274
:1001780003134208803AFF0081307F02031DC6281E
:10018800003041020318C928CA28022948308312BE
:100198000313B0000030B1004109C3004209C40094
:1001A800C30A0319C40A4308003EAA0044080318F6
:1001B800013E013EAB001430AC000030AD000A1225
:1001C8008A15FD240A128A11831203132B08B3011E
:1001D800B3072A08B201B2070A128A1159250A126E
:1001E8008A118312031330082E3EC1003108031808
:1001F800013E003EC200E329E329E32983120313E9
:100208004208803AFF0081307F02031D0D293D30EE
:10021800410203181029112949293D30831203137B
:10022800B0000030B1004109C3004209C400C30A4C
:100238000319C40A43083D3EAA0044080318013EB6
:10024800013EAB000A30AC000030AD000A128A153E
:10025800FD240A128A11831203132B08B301B30772
:100268002A08B201B2070A128A1159250A128A11FC
:10027800831203133008253EC10031080318013EDC
:10028800003EC200E329E329E3298312031342084D
:10029800803AFF0081307F02031D54299A304102C1
:1002A80003185729582990295D3083120313B00089
:1002B8000030B1004109C3004209C400C30A031950
:1002C800C40A43089A3EAA0044080318013E013EA6
:1002D800AB000A30AC000030AD000A128A15FD24CC
:1002E8000A128A11831203132B08B301B3072A08D1
:1002F800B201B2070A128A1159250A128A11831209
:10030800031330081C3EC10031080318013E003EAB
:10031800C200E329E329E329831203134208803A40
:10032800FF0082307F02031D9B290A304102031817
:100338009E299F29D729703083120313B0000030FB
:10034800B1004109C3004209C400C30A0319C40A21
:1003580043080A3EAA0044080318013E023EAB00C7
:100368000A30AC000030AD000A128A15FD240A12CA
:100378008A11831203132B08B301B3072A08B201A9
:10038800B2070A128A1159250A128A118312031315
:100398003008123EC10031080318013E003EC20079
:1003A800E329E329E32983120313C101C201E329E5
:1003B800E329E329E329E329E329E329E3290800D9
:1003C8000B1DE729E829A22A0B11643081000130AE
:1003D800D9070318DA0A0030DA07F0140A30F200F5
:1003E8000030F3005A08F501F5075908F401F4073D
:1003F8000A128A117A270A128A1173087204031DD5
:10040800062A072A092A7014092A3230F200003015
:10041800F300831203135A08F501F5075908F4018C
:10042800F4070A128A117A270A128A1173087204C9
:10043800031D1F2A202A222AF015222AF430F2004E
:100448000130F300831203135A08F501F507590820
:10045800F401F4070A128A117A270A128A11831200
:1004680003130618382A392A592A0130A00020080F
:10047800D8075708A000A1010A3058020030031815
:100488000130A200A30120082205A40021082305A9
:10049800A500250824040319522A532A5E2AD601E6
:1004A8000314D60DD7015E2A5E2AD801D70103149A
:1004B800D70D5E2A8C1E612A622A7C2A1A08A0009F
:1004C8007808463E84002008831380007808013E9F
:1004D8000F39A0002008E100610860060319752A99
:1004E800762A7C2A6108A0002008F8007C2A7C2A49
:1004F8000C1E7F2A802AA22A831603130C1E852A23
:10050800862AA22A831203136208CE3E840083132C
:10051800000899000130A0002008E2070F30A00071
:100528002008E20562087906031D9B2A9C2AA22A54
:10053800831603130C12A22AA22AA22A83122908BC
:10054800FF0028088A0027088400260E8300FE0E74
:100558007E0E09000B300A128A1565220A128A11CA
:100568000A128A153C230A128A110318BC2ABE2AC9
:10057800F017BF2AF013F01FC22AC32ACA2A4C3028
:100588000A128A159E220A128A11D02A20300A12CB
:100598008A159E220A128A110F3083160313E70068
:1005A800670883120313AA0018300A128A11EF266B
:1005B8000A128A110A128A153C230A128A11031890
:1005C800E62AE82A7016E92A7012701EEC2AED2A2B
:1005D800F92A46300A128A159E220A128A110A122C
:1005E8008A11CB230A128A11FF2A20300A128A158F
:1005F8009E220A128A110F3083160313E700670838
:1006080083120313AA0018300A128A11EF260A125D
:100618008A110A128A153C230A128A110318152B0B
:10062800172BF114182BF110F11C1B2B1C2B282B4A
:1006380052300A128A159E220A128A110A128A1147
:100648003D230A128A112E2B20300A128A159E2267
:100658000A128A110D3083160313E7006708831204
:100668000313AA0030300A128A11EF260A128A11DF
:1006780008000A128A1543270A128A110D308316B8
:100688000313E500650883120313AA0018300A1241
:100698008A11EF260A128A11692B833083160313F5
:1006A800E500650883120313AC008030831603133A
:1006B800E600660883120313AD00AE01FF300A128C
:1006C8008A15E9250A128A11692B0A128A158425C6
:1006D8000A128A11831603136208803AFF008030D9
:1006E8007F02031D792B2D306102031C7C2B7D2B8F
:1006F800512B972B972BFA3083160313E5006508C7
:1007080083120313AC00803083160313E6006608D7
:1007180083120313AD00AE0100300A128A15E925D1
:100728000A128A11972B0A128A1584250A128A112D
:10073800831603136208803AFF0080307F02031D8E
:10074800A72B383061020318AA2BAB2B7F2BAC2BBD
:100758000A128A1520260A128A110F3083160313EB
:10076800E500650883120313AA0018300A128A11DB
:10077800EF260A128A1183120313AC01AD01AE01F0
:1007880000300A128A15E9250A128A110800E42B9A
:10079800833083160313E500650883120313AC0046
:1007A800803083160313E600660883120313AD0036
:1007B800AE01FF300A128A15E9250A128A11E42BC4
:1007C8000A128A1584250A128A11831603136208ED
:1007D800803AFF0080307F02031DF42B3230610223
:1007E800031CF72BF82BCC2BF92B83120313AC012A
:1007F800AD01AE0100300A128A15E9250A128A11E4
:100808001D2CFA3083160313E500650883120313C1
:10081800AC00803083160313E600660883120313C6
:10082800AD00AE0100300A128A15E9250A128A11B4
:100838001D2C0A128A1584250A128A11831603139D
:100848006208803AFF0080307F02031D2D2C38306B
:100858006102031C302C312C472C0A128A1584257E
:100868000A128A11831603136208803AFF00803047
:100878007F02031D412C64306102031C442C452C6B
:10088800052C472C472C83120313AC01AD01AE0194
:1008980000300A128A15E9250A128A1108000A127C
:1008A8008A15B3250A128A1183120313AC01AD010C
:1008B800AE0100300A128A15E9250A128A110030A1
:1008C8000A128A1565220A128A1101300A128A153B
:1008D800BB230A128A1140300A128A1565220A12AD
:1008E8008A1112300A128A15BB230A128A11D22CD5
:1008F800831203135608031D822CD22C0A128A1560
:1009080029250A128A110A128A15C0270A128A1181
:100918000A128A11AE220A128A11AC2C0A128A15FE
:10092800E0230A128A11BC2C0A128A15E0230A1243
:100938008A11BC2C0A128A15E0230A128A11BC2CCF
:100948000A128A15E0230A128A11BC2CBC2CBC2C72
:10095800831203135F08003A0319922C013A031912
:10096800982C033A03199E2C013A0319A42CBC2C89
:100978000A128A113B260A128A110A128A150527B9
:100988000A128A11F01EC92CCA2CD22C0A128A15F6
:1009980058230A128A11D22CD22CD22C701FD52C93
:1009A800D62C7C2CD72C0A128A11122883120313F6
:1009B800AC00452DEB2C0430AB002B08E300562D82
:1009C8000430AB002B08E300562D562D562D2A086F
:1009D800003A0319DF2C013A0319E42C562D562D41
:1009E800012D0430AB002B08E300562D0430AB007A
:1009F8002B08E300562D562D562D2A08003A0319C8
:100A0800F52C013A0319FA2C562D562D162D0330C4
:100A1800AB002B08E300562DE3010314E30D562D1C
:100A2800562D562D2A08013A03190B2D023A03199F
:100A3800102D562D562D2C2D0330AB002B08E3001E
:100A4800562D0230AB002B08E300562D562D562D9F
:100A58002A08013A0319202D023A0319252D562D8B
:100A6800562D3D2D0230AB002B08E300562D562D98
:100A7800562D2A08033A0319362D562D562D562D74
:100A8800562D2C08003A0319EB2C013A0319012DB5
:100A9800033A0319162D013A03192C2D073A0319A5
:100AA8003D2D562D6308582D080083120313B601F7
:100AB800B11F5F2D602D692DB009B109B00A031966
:100AC800B10AB6010314B60D692DB31F6C2D6D2D37
:100AD800772DB209B309B20A0319B30A0130B40079
:100AE8003408B606772DB701B80131083004031968
:100AF8007E2D7F2DBD2DB5010314B50D8F2D013031
:100B08000310B00DB10DFF3E031D842D0130B4005C
:100B18003408B5078F2DB11F922D932D832D952D58
:100B2800952D01300310B70DB80DFF3E031D962D0E
:100B380031083302031DA22D30083202031CA52DF3
:100B4800A62DAE2D3008B2023108031CB303B30240
:100B58003714AE2D01300310B10CB00CFF3E031D4D
:100B6800AF2D0130B502031DBA2DBB2D952DBD2D1E
:100B7800BD2D3608031DC12DC72DB709B809B70A01
:100B88000319B80AC72D3808B101B1073708B001F1
:100B9800B007CE2D080083120313B701B801B901BD
:100BA800BA017114FA30B5003508AC008030B600CF
:100BB8003608AD00AE0100300A128A15E9250A127E
:100BC8008A112A2E8E300A128A1578230A128A115F
:100BD80013300A128A1578230A128A110A128A1502
:100BE80099230A128A1183120313B5003508BB0032
:100BF8000A128A1599230A128A1183120313B5005F
:100C08003508BC003B08B500B6013508B600B5018B
:100C18003C083507B7000030031801303607B80024
:100C28003708B9070318BA0A3808BA073A08803AE1
:100C3800B5003408803A3502031D242E33083902E2
:100C4800031C272E282E2A2E71102A2E71182D2EBD
:100C58002E2EE62D2F2E83120313AC01AD01AE010B
:100C680000300A128A15E9250A128A110800403054
:100C78000A128A1565220A128A11702E013083120F
:100C88000313AE002E08FB074E300A128A159E2267
:100C98000A128A11822E0130FB0253300A128A1579
:100CA8009E220A128A11822E013083120313AE008B
:100CB8002E08FA0745300A128A159E220A128A114E
:100CC800822E0130FA0257300A128A159E220A1221
:100CD8008A11822E822E822E0A128A154E220A121A
:100CE8008A11003A0319652E013A03194F2E033A67
:100CF8000319582E013A0319422E822E01300A1286
:100D08008A1565220A128A117A080A128A1570222F
:100D18000A128A1103300A128A1565220A128A11E8
:100D28007B080A128A1570220A128A110800831693
:100D38000313E000C42E831203139F111F129F1286
:100D4800D52E831203139F151F129F12D52E8312BF
:100D580003139F111F169F12D52E831203139F157D
:100D68001F169F12D52E831203139F111F129F1651
:100D7800D52E83160313DE01DF01EE2EEE2ED52EBF
:100D88006008003A03199F2E013A0319A52E033A69
:100D98000319AB2E013A0319B12E073A0319B72EDE
:100DA800BD2E53308312C500C50BD82E0A128A15E2
:100DB80081270A128A11831203133A088316031330
:100DC800DF01DF0783120313390883160313DE01DB
:100DD800DE07EE2E080083120313AE000330AB00CB
:100DE8002B0887042A0893000630AD001330AC00A6
:100DF800B130AB00AB0BFE2EAC0BFE2EAD0BFE2EB6
:100E0800052F83120313AF010314AF0D1F2F07150E
:100E1800FB30AB002B0887058230AC00DD30AB001F
:100E2800AB0B142FAC0B142F192F013083120313A3
:100E3800AB002B08AF072F082E020318242F252FED
:100E48000B2F262F93010630AD001330AC00B130C4
:100E5800AB00AB0B2D2FAC0B2D2FAD0B2D2F342F43
:100E68000800193083120313B3003308AC00AD0136
:100E7800AE010314AE0D00300A128A15E9250A12D4
:100E88008A1183120313AC01AA30B3003308AD00F2
:100E98009D300A128A1557240A128A1183120313E5
:100EA800AC01AD01AE0100300A128A15E9250A121B
:100EB8008A11A53083120313B500E030B400FE3068
:100EC800B300B30B652FB40B652FB50B652FA53099
:100ED80083120313B500E030B400FE30B300B30B47
:100EE800732FB40B732FB50B732F0800730872049C
:100EF80003197F2F802FB62FF7010314F70D902FBA
:100F080001300310F20DF30DFF3E031D852F013054
:100F1800F6007608F707902FF31F932F942F842F4E
:100F2800962F962F73087502031D9C2F7208740262
:100F3800031C9F2FA02FA72F7208F4027308031C0D
:100F4800F503F502A72F01300310F30CF20CFF3E56
:100F5800031DA82F0130F702031DB32FB42F962FBE
:100F6800B62FB62F7508F301F3077408F201F207DC
:100F7800BD2F0800F001F101F801F9018313463093
:100F8800840066300A128A155D220A128A11CE3050
:100F98008400DE300A128A155D220A128A1183172C
:100FA800C830FD000E30FE005730FF00903084003E
:100FB8000A128A15B5220A128A118313CE30FD004F
:100FC8000D30FE005630FF00A03084000A128A154A
:100FD800B5220A128A110A128A154C220A128A119B
:100FE800FA000A128A154D220A128A11FB0083019F
:060FF8000A128A11532CBD
:1010000008308A000408840A8207003428342D340A
:101010002C342D3429342034453420342D342D34CF
:1010200020342D342D342D3420342D3400342D34FF
:1010300020342D3420342D342034283430342C34D2
:101040003034293420344734523445344734003462
:1014980001340334831203135B08522A08008312B1
:1014A80003135C08572A0800831203135D085C2A9B
:1014B800080064008001840A040603190034040645
:1014C8005E2A83120313AD00AD172D080A128A1580
:1014D800C4220A128A15080083120313AD002D08CE
:1014E800303E0A128A159E220A128A1508008312B3
:1014F8000313AB002B08AA002A08DB0704305B02A1
:10150800031C872A882A8B2A0430DB028B2A0800CE
:1015180083120313AC008D300A128A1578230A123D
:101528008A15831203132C080A128A1578230A12C3
:101538008A15080083120313AC00091189100914D5
:101548002C088800091509110730AB007D30AA0066
:10155800AA0BAC2AAB0BAC2A08007E088A007F08CD
:1015680082000A128A15B1220A128A158000840A9A
:1015780004087D0603190034FF0A0319FE0AB52A78
:1015880083120313AC000911891009102C08880074
:10159800091509110D30AB00FB30AA00AA0BD22A9D
:1015A800AB0BD22AD72A08008312031385013F30D8
:1015B800831603138500A130831203139F000230A2
:1015C800831603139F00533083120313AA00AA0B38
:1015D800EB2A080083120313981CF32AF42AF92A29
:1015E800181218160310042B042B78086006031D24
:1015F800FE2AFF2A012B0310042B0314042B042BAF
:1016080008000F300A128A1565220A128A15463018
:101618000A128A159E220A128A15E83083120313C9
:10162800B3000330B4000A128A11CF250A128A15B2
:1016380083120313DE010800033083120313AE0084
:101648008A30AD005630AC00AC0B282BAD0B282BE4
:10165800AE0B282B2F2B80300A128A1578230A12FA
:101668008A1584300A128A1578230A128A15080006
:101678000A128A1584250A128A158316031362082A
:10168800803AFF0080307F02031D4C2B65306102D9
:10169800031C4F2B502B542B0310572B572B572B16
:1016A8000314572B572B08007A08013A031D5D2BAA
:1016B8005E2B772B7B08033A031D632B642B772B58
:1016C80083120313AC01AD01AE0100300A128A1572
:1016D800E9250A128A1504300A128A158C220A1280
:1016E8008A157017772B080083120313AB007D2B24
:1016F8007D2B7908013E0F3962060319842B852B4F
:101708007D2B8B132B08AA007908CE3E84002A086B
:10171800831380007908013E0F39AA002A08F900CE
:10172800831603130C168B1708009B2B9B2B0A128E
:101738008A15EE220A128A15031CA32BA42B9B2BB5
:101748008B13831203136008463E8400831300083A
:10175800AA002A08AB000130AA002A08E0070F30C7
:10176800AA002A08E0058B172B08BA2B0800831259
:101778000313AE00D22B2E0884000A128A1500200B
:101788000A128A150A128A159E220A128A1501302F
:1017980083120313AD002D08AE07D22B2E08840048
:1017A8000A128A1500200A128A150038031DDD2B3B
:1017B800DE2BBF2BDF2B0800F01BE32BE42BEA2BDF
:1017C8000A128A152F240A128A15062C701AED2B74
:1017D800EE2BF42B0A128A1505230A128A15062CF9
:1017E800F118F72BF82BFE2B0A128A15A9240A12D6
:1017F8008A15062C0A128A1580240A128A15062CC4
:10180800062C062C0800831603138717BF30831293
:101818000313AA002A088316031387051815143022
:10182800990018138312031318138316031318123D
:101838008312031398171816831603130C128C16A9
:101848009816003083120313E200F900E000AA00A2
:101858002A08F80008000F300A128A1565220A12B1
:101868008A154C300A128A159E220A128A150A1203
:101878008A1520260A128A1501300A128A157B2237
:101888000A128A15E83083120313B3000330B40038
:101898000A128A11CF250A128A1583120313DE0150
:1018A8000314DE0D080083120313B1000330B000E7
:1018B8008A30AF005630AE00AE0B602CAF0B602CF8
:1018C800B00B602C672C8312031331080A128A1597
:1018D80078230A128A15831203132C080A128A1510
:1018E80078230A128A15831203132D080A128A15FF
:1018F80078230A128A1508000F300A128A15652201
:101908000A128A1542300A128A159E220A128A156C
:101918000A128A1135270A128A1502300A128A1504
:101928007B220A128A15E83083120313B3000330AE
:10193800B4000A128A11CF250A128A1502308312BE
:101948000313BD003D08DE0008000F300A128A1597
:1019580065220A128A1552300A128A159E220A1224
:101968008A150A128A1543270A128A1503300A12A1
:101978008A157B220A128A15E83083120313B300F2
:101988000330B4000A128A11CF250A128A150330CF
:1019980083120313BD003D08DE00080002308316E1
:1019A80003139F008312031388018901831603130D
:1019B8008801890101300A128A15C4220A128A157F
:1019C80038300A128A15C4220A128A150C300A12F3
:1019D8008A15C4220A128A1506300A128A15C422E8
:1019E8000A128A1502300A128A15C4220A128A15A6
:1019F800080083120313AE01AF01022D2A1C052D26
:101A0800062D0C2D2C08AE070318AF0A2D08AF07BA
:101A180001300310AC0DAD0DFF3E031D0D2D01303F
:101A28000310AB0CAA0CFF3E031D142D2B082A042F
:101A3800031D1F2D202D022D212D2F08AB01AB07D3
:101A48002E08AA01AA07282D0800F01A2C2D2D2DE2
:101A5800552D0A128A1553220A128A157A06031D71
:101A6800362D372D552D0A128A1558220A128A1535
:101A78007B06031D402D412D552D02300A128A1573
:101A88008C220A128A15F01606300A128A15652267
:101A98000A128A1552300A128A159E220A128A15CB
:101AA800552D08008C3401340B344C340834803400
:101AB80004344C341034803404344C3410348034BE
:101AC8000434483408344C3410344F3420348034CF
:101AD8000834433410348C34043409344A344034E0
:101AE800493410344A3410344934303445343034AD
:101AF8008034203442341C34473420344234303467
:101B080000300A128A119B260A128A1583160313BB
:101B18005F0883120313C201C207831603135E080A
:101B280083120313C101C1070A128A1115200A1270
:101B38008A1583120313420883160313E401E4078A
:101B480083120313410883160313E301E3076408B0
:101B5800E201E2076308E101E107B22D0800831200
:101B68000313D601D7010314D70D0A128A15D822F8
:101B78000A128A150A128A15D2240A128A15013005
:101B8800831603138600043081008B1640309400BE
:101B980022308312031394009030831603138700B6
:101BA8008312031387010B178B170A128A15072450
:101BB8000A128A150A128A1520230A128A150A128D
:101BC8008A15C8260A128A15080083120313B20060
:101BD8000330B1008A30B0005630AF00AF0BF22DA1
:101BE800B00BF22DB10BF22DF92D89300A128A159E
:101BF80078230A128A158312031332080A128A15E7
:101C080078230A128A15831203132C080A128A15DC
:101C180078230A128A15831203132D080A128A15CB
:101C280078230A128A15831203132E080A128A15BA
:101C380078230A128A150800193083120313B30097
:101C48003308AC00AD01AE010314AE0D00300A122A
:101C58008A15E9250A128A1583120313AC01553037
:101C6800B3003308AD009D300A128A1557240A12B2
:101C78008A1583120313AC01AD01AE0100300A12BC
:101C88008A15E9250A128A15A53083120313B500AF
:101C9800E030B400FE30B300B30B502EB40B502E1E
:101CA800B50B502E08008C3402340D3448341C34E3
:101CB80048341C344F344034803410344D341C3490
:101CC8004C341C34483440348034103445341C348B
:101CD80045341C3445341C3448341C3448344034AE
:101CE8008C3403340C3449340834473408344934C8
:101CF800203442344034803420344A34083449345F
:101D080008344A34083480340C3449340634803476
:101D18000C344734303483120313B301B401B82EA2
:101D28008312031333082C07B1002D08B0000318E1
:101D3800B00AB31FA02EB003831203133008B200F9
:101D4800310884008317321C831300080A128A158D
:101D580078230A128A15013083120313B307031874
:101D6800B40A0030B407B82E3408803AB0002F08FF
:101D7800803A3002031DC22E2E083302031CC52EE2
:101D8800C62E942EC72E0800AD3083120313AC0064
:101D98000130AD001B30AE000030AF000A128A15CA
:101DA8008F260A128A15A03083120313AC00003064
:101DB800AD001930AE000030AF000A128A158F2628
:101DC8000A128A15903083120313AC000130AD005B
:101DD8001D30AE000030AF000A128A158F260A1295
:101DE8008A15B93083120313AC000030AD001530EA
:101DF800AE000030AF000A128A158F260A128A1523
:101E080008007A08023A031D0A2F0B2F172F7B08A8
:101E1800023A031D102F112F172F83120313DF010E
:101E28000314DF0D422F7A08043A031D1C2F1D2FBF
:101E38002A2F7B08023A031D222F232F2A2F023034
:101E480083120313AA002A08DF00422F7A08023AF5
:101E5800031D2F2F302F3C2FFB08031D342F352F48
:101E68003C2F033083120313AA002A08DF00422FF5
:101E780083120313DF01422F422F422F080019302B
:101E880083120313B3003308AC00FF30B4003408E6
:101E9800AD00FF30B5003508AE0000300A128A15D3
:101EA800E9250A128A15FF3083120313B300330899
:101EB800AC00A930B4003408AD009D300A128A1570
:101EC80057240A128A1583120313AC01AD01AE011F
:101ED80000300A128A15E9250A128A15A5308312DC
:101EE8000313B500E030B400FE30B300B30B7A2F13
:101EF800B40B7A2FB50B7A2F0800831203139E01B7
:101F0800831603139E01831203131F158B2F1F19AA
:101F18008E2F8F2F8B2F902F4030B0000030B100C4
:101F2800831603131E0883120313BB00BC013B086E
:101F3800B2003C08B3000A128A1159250A128A1500
:101F4800831203131E08BD00BE010230FF000310F8
:101F5800BD0DBE0DFF0BAB2F30083D07BF0031088C
:101F68000318310A3E07C0004008BA01BA073F0803
:101F7800B901B907BF2F0800711DC32FC42FFF2F48
:101F8800F01EC72FC82FDE2F03300A128A158C22A5
:101F98000A128A1583120313E40109300A128A15FA
:101FA80065220A128A1556300A128A159E220A12CA
:101FB8008A15FF2F7B0883120313AE002E08AA0090
:101FC8007A080A128A11DA240A128A15831203136C
:101FD800AF002F08E40008300A128A1565220A1299
:101FE8008A158312031364080A128A1570220A12CA
:081FF8008A15FF2FFF2F0800DE
:02400E0032FF7F
:00000001FF
