:060000000A128A11122809
:10000800FE00030E83120313A6000408A7000A08C3
:10001800A8007F08A9000A128A11E4290A128A1581
:10002800562F831203134208803AFF0080307F0264
:10003800031D2028523041020318232824282D2884
:10004800E73083120313C1000330C200E329E32918
:10005800E329831203134208803AFF0080307F02AD
:10006800031D38288530410203183B283C28742892
:10007800333083120313B0000030B1004109C300CC
:100088004209C400C30A0319C40A4308853EAA00EA
:1000980044080318013E003EAB003230AC0000308B
:1000A800AD000A128A1116260A128A118312031346
:1000B8002B08B301B3072A08B201B2070A128A1142
:1000C8003D230A128A11831203133008613EC100CE
:1000D80031080318013E003EC200E329E329E32961
:1000E800831203134208803AFF0080307F02031D09
:1000F8007F28B8304102031882288328BB28333070
:1001080083120313B0000030B1004109C300420953
:10011800C400C30A0319C40A4308B83EAA00440825
:100128000318013E003EAB001E30AC000030AD00AD
:100138000A128A1116260A128A11831203132B082F
:10014800B301B3072A08B201B2070A128A113D2384
:100158000A128A11831203133008433EC100310882
:100168000318013E003EC200E329E329E329831274
:1001780003134208803AFF0081307F02031DC6281E
:10018800003041020318C928CA28022948308312BE
:100198000313B0000030B1004109C3004209C40094
:1001A800C30A0319C40A4308003EAA0044080318F6
:1001B800013E013EAB001430AC000030AD000A1225
:1001C8008A1116260A128A11831203132B08B30107
:1001D800B3072A08B201B2070A128A113D230A128C
:1001E8008A118312031330082E3EC1003108031808
:1001F800013E003EC200E329E329E32983120313E9
:100208004208803AFF0081307F02031D0D293D30EE
:10021800410203181029112949293D30831203137B
:10022800B0000030B1004109C3004209C400C30A4C
:100238000319C40A43083D3EAA0044080318013EB6
:10024800013EAB000A30AC000030AD000A128A1142
:1002580016260A128A11831203132B08B301B30757
:100268002A08B201B2070A128A113D230A128A111A
:10027800831203133008253EC10031080318013EDC
:10028800003EC200E329E329E3298312031342084D
:10029800803AFF0081307F02031D54299A304102C1
:1002A80003185729582990295D3083120313B00089
:1002B8000030B1004109C3004209C400C30A031950
:1002C800C40A43089A3EAA0044080318013E013EA6
:1002D800AB000A30AC000030AD000A128A111626B5
:1002E8000A128A11831203132B08B301B3072A08D1
:1002F800B201B2070A128A113D230A128A11831227
:10030800031330081C3EC10031080318013E003EAB
:10031800C200E329E329E329831203134208803A40
:10032800FF0082307F02031D9B290A304102031817
:100338009E299F29D729703083120313B0000030FB
:10034800B1004109C3004209C400C30A0319C40A21
:1003580043080A3EAA0044080318013E023EAB00C7
:100368000A30AC000030AD000A128A1116260A12B3
:100378008A11831203132B08B301B3072A08B201A9
:10038800B2070A128A113D230A128A118312031333
:100398003008123EC10031080318013E003EC20079
:1003A800E329E329E32983120313C101C201E329E5
:1003B800E329E329E329E329E329E329E3290800D9
:1003C8000B1DE729E829AE2A0B11643081000130A2
:1003D800E0070318E10A0030E107F0140A30F100E1
:1003E8000030F2006108F401F4076008F301F30734
:1003F8000A128A118E240A128A1172087104031DC6
:10040800062A072A092A7014092A3230F100003016
:10041800F200831203136108F401F4076008F30182
:10042800F3070A128A118E240A128A1172087104BB
:10043800031D1F2A202A222AF015222AF430F1004F
:100448000130F200831203136108F401F407600815
:10045800F301F3070A128A118E240A128A1172080C
:100468007104031D382A392A3F2A70158312031391
:10047800E001E1013F2A83120313061C442A452A9E
:10048800652A0130A0002008DF075E08A000A1014E
:100498000A305F02003003180130A200A3012008CF
:1004A8002205A40021082305A50025082404031912
:1004B8005E2A5F2A6A2ADD010314DD0DDE016A2A3D
:1004C8006A2ADF01DE010314DE0D6A2A8C1E6D2AFA
:1004D8006E2A882A1A08A00078084D3E8400200851
:1004E800831380007808013E0F39A0002008E3003C
:1004F800630879060319812A822A882A6308A000DA
:100508002008F800882A882A0C1E8B2A8C2AAE2AF2
:10051800831603130C1E912A922AAE2A7B08A03E4A
:100528008400831300088312031399000130A0008C
:100538002008FB070F30A0002008FB057B087A067F
:10054800031DA72AA82AAE2A831603130C12AE2A63
:10055800AE2AAE2A83122908FF0028088A00270835
:100568008400260E8300FE0E7E0E090003308316DB
:100578000313B00030088312031387040F3093006D
:10058800063083160313B2001330B100B130B00047
:10059800B00BCC2AB10BCC2AB20BCC2AD32A0A1224
:1005A8008A11E2270A128A110318DB2ADD2A70163B
:1005B800DE2A701218300A128A1150270A128A117C
:1005C8000A128A11E2270A128A110318EC2AEE2A63
:1005D8007017EF2A701330300A128A1150270A1246
:1005E8008A110A128A11E2270A128A110318FD2AAF
:1005F800FF2AF016002BF01218300A128A11502721
:100608000A128A11701F092B0A2B112B52300A1259
:100618008A15A1260A128A11182B20300A128A1567
:10062800A1260A128A11182B701E1B2B1C2B232B98
:1006380046300A128A15A1260A128A112A2B20305E
:100648000A128A15A1260A128A112A2BF01E2D2BAE
:100658002E2B352B4C300A128A15A1260A128A1124
:100668003C2B20300A128A15A1260A128A113C2B2B
:10067800080083120313B601B11F432B442B4D2BE3
:10068800B009B109B00A0319B10AB6010314B60DCD
:100698004D2BB31F502B512B5B2BB209B309B20A58
:1006A8000319B30A0130B4003408B6065B2BB7014E
:1006B800B801310830040319622B632BA12BB50153
:1006C8000314B50D732B01300310B00DB10DFF3EAF
:1006D800031D682B0130B4003408B507732BB11F14
:1006E800762B772B672B792B792B01300310B70DDD
:1006F800B80DFF3E031D7A2B31083302031D862BEC
:1007080030083202031C892B8A2B922B3008B20244
:100718003108031CB303B3023714922B01300310C2
:10072800B10CB00CFF3E031D932B0130B502031D25
:100738009E2B9F2B792BA12BA12B3608031DA52BB4
:10074800AB2BB709B809B70A0319B80AAB2B380895
:10075800B101B1073708B001B007B22B0800831206
:1007680003136208AE002E08F70704307702031C53
:10077800BE2BBF2BC22B0430F702C22B06300A1245
:100788008A158B260A128A11FB2B01308312031358
:10079800AE002E08E4074E300A128A15A1260A1266
:1007A8008A11092C013083120313E40253300A1210
:1007B8008A15A1260A128A11092C01308312031303
:1007C800AE002E08E50745300A128A15A1260A123E
:1007D8008A11092C013083120313E50257300A12DB
:1007E8008A15A1260A128A11092C092C092C7708C6
:1007F800003A0319EE2B013A0319D62B033A0319D1
:10080800E12B013A0319C92B092C0C300A128A155D
:100818008B260A128A118312031365080A128A1595
:1008280096260A128A1103300A128A158B260A1292
:100838008A118312031364080A128A1596260A126B
:100848008A11080083120313B701B801B901BA016C
:100858007D30B5003508AC008030B6003608AD00F4
:10086800AE0100300A128A1152250A128A11712C1F
:1008780089300A128A1535270A128A1113300A128A
:100888008A1535270A128A110A128A1577270A1239
:100898008A1183120313B5003508BB000A128A15A2
:1008A80077270A128A1183120313B5003508BC0092
:1008B8003B08B500B6013508B600B5013C08350758
:1008C800B7000030031801303607B8003708B907F9
:1008D8000318BA0A3808BA07712C831203133A08A6
:1008E800803AB5003408803A3502031D7D2C330860
:1008F80039020318802C812C3C2C822C8312031380
:10090800AC01AD01AE0100300A128A1152250A125B
:100918008A110800720871040319932C942CCA2CAC
:10092800F6010314F60DA42C01300310F10DF20D9D
:10093800FF3E031D992C0130F5007508F607A42C1D
:10094800F21FA72CA82C982CAA2CAA2C7208740287
:10095800031DB02C71087302031CB32CB42CBB2CE0
:100968007108F3027208031CF403F402BB2C013073
:100978000310F20CF10CFF3E031DBC2C0130F602F3
:10098800031DC72CC82CAA2CCA2CCA2C7408F20127
:10099800F2077308F101F107D12C08008312031341
:1009A800C800EF2C9F111F129F12002D9F151F12B8
:1009B8009F12002D9F111F169F12002D9F151F16A5
:1009C8009F12002D9F111F129F16002DC501C601F1
:1009D800122D122D002D4808003A0319D62C013A81
:1009E8000319DA2C033A0319DE2C013A0319E22C15
:1009F800073A0319E62CEA2C5330C700C70B022D1F
:100A08000A128A1113250A128A11831203133A084B
:100A1800C601C6073908C501C507122D080083128B
:100A280003139E01831603139E01831203131F15DC
:100A38001D2D1F19202D212D1D2D222D4030B000D8
:100A48000030B100831603131E0883120313BB0082
:100A5800BC013B08B2003C08B3000A128A113D23CE
:100A68000A128A11831203131E08BD00BE01023048
:100A7800FF000310BD0DBE0DFF0B3D2D30083D07D7
:100A8800BF0031080318310A3E07C0004008BA0108
:100A9800BA073F08B901B907512D0800831203139B
:100AA800B2000330B1008A30B0005630AF00AF0B4F
:100AB8005B2DB00B5B2DB10B5B2D622D89300A12BB
:100AC8008A1535270A128A118312031332080A126B
:100AD8008A1535270A128A11831203132C080A1261
:100AE8008A1535270A128A11831203132D080A1250
:100AF8008A1535270A128A11831203132E080A123F
:100B08008A1535270A128A11080083120313DD019A
:100B1800DE010314DE0D0A128A15C8260A128A118C
:100B28000A128A1142260A128A111E3083160313EA
:100B38008600043081008B164030940022308312E6
:100B48000313940090308316031387008312031352
:100B580087010B178B170A128A1128270A128A1184
:100B68000A128A15F9260A128A1108001930831206
:100B78000313B3003308AC00FF30B4003408AD00F1
:100B8800FF30B5003508AE0000300A128A11522530
:100B98000A128A11FF3083120313B3003308AC0022
:100BA800A930B4003408AD009D300A128A11BF265E
:100BB8000A128A1183120313AC01AD01AE01003091
:100BC8000A128A1152250A128A1108000A128A1179
:100BD800BA220A128A11701BF22DF32DF92D0A126E
:100BE8008A119C270A128A11152E701AFC2DFD2DC8
:100BF800032E0A128A15DE260A128A11152EF01AF9
:100C0800062E072E0D2E0A128A1599270A128A1106
:100C1800152E0A128A11BF270A128A11152E152EAF
:100C2800152E080083120313AE01AF011B2E2A1CD8
:100C38001E2E1F2E252E2C08AE070318AF0A2D08CE
:100C4800AF0701300310AC0DAD0DFF3E031D262E7E
:100C580001300310AB0CAA0CFF3E031D2D2E2B08F0
:100C68002A04031D382E392E1B2E3A2E2F08AB01CD
:100C7800AB072E08AA01AA07412E080002308316E6
:100C880003139F008312031388018901831603133A
:100C98008801890101300A128A15B4260A128A11BC
:100CA80038300A128A15B4260A128A110C300A1230
:100CB8008A15B4260A128A1106300A128A15B42631
:100CC8000A128A1102300A128A15B4260A128A11E7
:100CD8000800193083120313B3003308AC00AD01C8
:100CE800AE010314AE0D00300A128A1152250A1201
:100CF8008A1183120313AC015530B3003308AD00D9
:100D08009D300A128A11BF260A128A118312031310
:100D1800AC01AD01AE0100300A128A1152250A1247
:100D28008A110800193083120313B3003308AC008A
:100D3800AD01AE010314AE0D00300A128A1152251E
:100D48000A128A1183120313AC01AA30B3003308C4
:100D5800AD009D300A128A11BF260A128A11831229
:100D68000313AC01AD01AE0100300A128A115225FD
:100D78000A128A11080083120313B1000330B0006D
:100D88008A30AF005630AE00AE0BC82EAF0BC82E5F
:100D9800B00BC82ECF2E8312031331080A128A15FE
:100DA80035270A128A11831203132C080A128A158E
:100DB80035270A128A11831203132D080A128A157D
:100DC80035270A128A11080083120313981CED2E86
:100DD800EE2EF32E181218160310FE2EFE2E78088B
:100DE8007906031DF82EF92EFB2E0310FE2E031490
:060DF800FE2EFE2E080095
:100E000007308A000408840A8207003457346134AA
:100E10006C346C34733440342034523420344C34C9
:100E20002034283431342C343034293400346334C1
:100E300075344F3472343A342034573420346434A7
:100E4000693472344D346F343A3420342D340034E4
:100E5000831603138717BF3083120313AA002A08CF
:100E6000831603138705181514309900181383127D
:100E700003131813831603131812831203139817FE
:100E80001816831603130C128C1698160030FB00EC
:100E9000FA00F90083120313AA002A08F8000800D8
:100EA00083120313AD00AE010314AE0D6F2F0715AF
:100EB000FB30AA002A0887050330AC008A30AB005B
:100EC0005630AA00AA0B622FAB0B622FAC0B622F1D
:100ED000692F013083120313AA002A08AE072E08D7
:100EE0002D020318742F752F572F762F08008312A9
:100EF0000313AE008E2F2E0884000A128A110027D9
:100F00000A128A110A128A15A1260A128A110130C0
:100F100083120313AD002D08AE078E2F2E08840018
:100F20000A128A1100270A128A110038031D992F0C
:100F30009A2F7B2F9B2F08000A128A11BA250A12BA
:100F40008A11E83083120313B3000330B4000A128D
:100F50008A1126240A128A11033083120313BD005A
:100F60003D08E2004F300A128A158B260A128A11B8
:100F700052300A128A15A1260A128A1108000A1292
:100F80008A1196260A128A11E83083120313B300DD
:100F90000330B4000A128A1126240A128A11023080
:100FA00083120313BD003D08E2004F300A128A1578
:100FB0008B260A128A1142300A128A15A1260A12B9
:100FC0008A1108000A128A15DD270A128A11831273
:100FD00003134A08803AFF0080307F02031DF22F7E
:100FE00065304902031CF52FF62FFA2F0310FD2F51
:0E0FF000FD2FFD2F0314FD2FFD2F08000134EF
:101D060064008001840A0406031900340406842E44
:101D160083120313AD00AD172D080A128A15B426D7
:101D26000A128A15080083120313AD002D08303EEF
:101D36000A128A15A1260A128A15080083120313AD
:101D4600AC000911891009142C088800091509111D
:101D56000730AB007D30AA00AA0BAF2EAB0BAF2E1F
:101D6600080083120313AC000911891009102C080E
:101D76008800091509110D30AB00FB30AA00AA0B2B
:101D8600C22EAB0BC22EC72E080083120313850189
:101D96003F30831603138500A130831203139F007F
:101DA6000230831603139F00533083120313AA00D5
:101DB600AA0BDB2E0800E83083120313B3000330AE
:101DC600B4000A128A1126240A128A1583120313F2
:101DD600E2014F300A128A158B260A128A154630FE
:101DE6000A128A15A1260A128A15080003308312E0
:101DF6000313AE008A30AD005630AC00AC0B012F99
:101E0600AD0B012FAE0B012F082F80300A128A1559
:101E160035270A128A1584300A128A1535270A12BE
:101E26008A15080000300A128A158B260A128A15AE
:101E360001300A128A1177270A128A1512300A12FD
:101E46008A1177270A128A15282F0A128A11EA257B
:101E56000A128A150A128A11B3230A128A15282F22
:101E6600282F080083120313AB003A2F3A2F7A0863
:101E7600013E0F397B060319412F422F3A2F8B1350
:101E86002B08AA007A08A03E84002A088313800043
:101E96007A08013E0F39AA002A08FA0083160313AE
:101EA6000C168B170800F001F701F801F901FA0189
:101EB600FB0183134D30840065300A128A15832690
:101EC6000A128A15A0308400B0300A128A158326B9
:101ED6000A128A150A128A11FE270A128A15E500C5
:101EE60083010A128A15BB2F792F792F0A128A11BC
:101EF600E8260A128A15031C812F822F792F8B134D
:101F060079084D3E84008313000883120313AA0048
:101F16002A08AB000130AA002A08F9070F30AA00E8
:101F26002A08F9058B172B08982F08000A128A1120
:101F36006D260A128A15E83083120313B3000330A4
:101F4600B4000A128A1126240A128A158312031370
:101F5600E2010314E20D4F300A128A158B260A128B
:101F66008A154C300A128A15A1260A128A1508000B
:101F76000A128A1189250A128A1583120313AC01E3
:101F8600AD01AE0100300A128A1152250A128A15D5
:101F9600CC2F831203135D08031DD22FCC2F0A12F8
:101FA6008A1515270A128A15CC2FCC2FCC2F0A1288
:101FB6008A11122800300A128A11D2240A128A15AE
:101FC600831203134608C201C2074508C101C107AF
:101FD6000A128A1115200A128A158312031342085F
:101FE600CC01CC074108CB01CB074C08CA01CA0774
:0A1FF6004B08C901C907FF2F0800BE
:02400E0032FF7F
:00000001FF
