:060000000A128A11122809
:10000800FE00030EF8000408F9000A08FA0083123B
:1000180003137F08FB000A128A15AA2E0A168A11F2
:10002800352F0A168A114A250A128A1183120313D8
:10003800A201A301A40100300A168A11DA240A12C7
:100048008A1100300A168A11F6210A128A114630DE
:100058000A168A1197230A128A1140300A168A1141
:10006800F6210A128A1157300A168A1197230A12A2
:100078008A1183120313CA01A12A831203134E089B
:10008800031D47289428F1184A284B2894280A1257
:100098008A15F0240A128A11F01F5328542862285E
:1000A800711D572858286228701E5B285C28622812
:1000B8000A128A15A4200A128A118028711D65283F
:1000C80066287028701E69286A2870280A128A15FE
:1000D800D0210A128A118028F01F732874288028DA
:1000E800701E7728782880280A168A1175260A1221
:1000F8008A11802880288028F11406300A168A116F
:10010800F6210A128A1145300A168A114C220A125F
:100118008A1101300A168A113A220A128A11942881
:10012800831203134B08031D9A28CE28F1189D2823
:100138009E28CE28CB0100300A168A11F6210A1211
:100148008A1118300A168A1197230A128A11403028
:100158000A168A11F6210A128A112F300A168A11F4
:1001680097230A128A110A128A1513260A128A116B
:100178000A128A15E7230A128A1140300A168A11D0
:10018800F6210A128A1101300A168A1197230A12D7
:100198008A11CE28831203134E08031DD428A12ADE
:1001A800F1140A168A11BF250A128A110A128A1531
:1001B80066240A128A110A128A15F0240A128A1170
:1001C80005300A168A113A220A128A11F01FED2800
:1001D800EE280C290D3083120313C8004808A0002C
:1001E80018300A168A1184250A128A110A128A11ED
:1001F80048270A128A110F3083120313C8004808CF
:10020800A00018300A168A1184250A128A110C29AE
:1002180005300A168A113A220A128A11701E152907
:1002280016291C290A128A1553270A128A111C2911
:1002380005300A168A113A220A128A11362A0A1633
:100248008A11BB270A128A114F2AF01E2C292D2940
:1002580062296108013A031D3229332939290A160E
:100268008A11E2230A128A114F2A0A168A11CE210C
:100278000A128A11023A031D4229432949290A16FA
:100288008A11FA250A128A114F2A0A168A11CE21D2
:100298000A128A11013A031D5229532959290A16AB
:1002A8008A11E2230A128A114F2A0A168A11BB27D9
:1002B8000A128A114F2A4F2A4F2A4F2A0A168A11E0
:1002C800BB270A128A114F2A4F2AF01E6C296D2962
:1002D800A2296108023A031D7229732979290A168D
:1002E8008A11FA250A128A114F2A0A168A11CE2172
:1002F8000A128A11013A031D8229832989290A16BB
:100308008A11E2230A128A114F2A0A168A11CE216B
:100318000A128A11033A031D9229932999290A1668
:100328008A11BC230A128A114F2A0A168A11BB277E
:100338000A128A114F2A4F2A4F2A4F2A0A168A115F
:10034800BB270A128A114F2A4F2AF01EAC29AD2961
:10035800E2296108033A031DB229B329B9290A160B
:100368008A11E2230A128A114F2A0A168A11CE210B
:100378000A128A11023A031DC229C329C9290A1679
:100388008A11FA250A128A114F2A0A168A11CE21D1
:100398000A128A11013A031DD229D329D9290A162A
:1003A8008A11BC230A128A114F2A0A168A11BB27FE
:1003B8000A128A114F2A4F2A4F2A4F2A0A168A11DF
:1003C800BB270A128A114F2A4F2A0A168A11CE21F0
:1003D8000A128A11023A031DF229F329F9290A1689
:1003E8008A11E2230A128A114F2A0A168A11BB2798
:1003F8000A128A114F2A4F2A0A168A11CE210A1286
:100408008A11033A031D092A0A2A102A0A168A1190
:10041800E2230A128A114F2A0A168A11BB270A12E6
:100428008A114F2A4F2A0A168A11CE210A128A11D6
:100438000038031D202A212A2D2A06300A168A117F
:100448003A220A128A110A168A11FA250A128A1100
:100458004F2A0A168A11BB270A128A114F2A4F2AD5
:100468004F2A4F2A831203135A08003A03192329E3
:10047800013A03192929033A03196929013A031989
:10048800A929073A0319E929013A0319002A033A65
:100498000319172A4F2A05300A168A113A220A1216
:1004A8008A110A168A11EC210A128A11031C5D2A84
:1004B8005E2AA12A8312031367086606031D652AAC
:1004C800662A702A6A086906031D6B2A6C2A702A34
:1004D800CA010314CA0D702AA901AA01AB014A086E
:1004E800C8004808AC000A168A11CE210A128A11DF
:1004F80083120313C9004908AD0000300A128A1597
:1005080032210A128A1183120313CA010A128A15A8
:1005180081250A128A110A128A1585220A128A115D
:10052800F01E972A982AA12A0A168A1111230A125C
:100538008A11A12AA12AA12AA12A701FA42AA52AC0
:100548004128A62A0A128A1112288312031338088E
:10055800803AFF0080307F02031DB42A52303702F0
:100568000318B72AB82AC12AE73083120313B70041
:100578000330B800772C772C772C831203133808B4
:10058800803AFF0080307F02031DCC2A8530370275
:100598000318CF2AD02A082B333083120313A6005E
:1005A8000030A7003709B9003809BA00B90A031999
:1005B800BA0A3908853EA0003A080318013E003EF1
:1005C800A1003230A2000030A3000A168A11AE241E
:1005D8000A128A11831203132108A901A907200806
:1005E800A801A8070A128A15F2220A128A11831290
:1005F80003132608613EB70027080318013E003E92
:10060800B800772C772C772C831203133808803A9C
:10061800FF0080307F02031D132BB8303702031808
:10062800162B172B4F2B333083120313A6000030E1
:10063800A7003709B9003809BA00B90A0319BA0A74
:100648003908B83EA0003A080318013E003EA10050
:100658001E30A2000030A3000A168A11AE240A1226
:100668008A11831203132108A901A9072008A801E8
:10067800A8070A128A15F2220A128A118312031392
:100688002608433EB70027080318013E003EB8007D
:10069800772C772C772C831203133808803AFF00C5
:1006A80081307F02031D5A2B0030370203185D2B5F
:1006B8005E2B962B483083120313A6000030A70048
:1006C8003709B9003809BA00B90A0319BA0A39084A
:1006D800003EA0003A080318013E013EA100143074
:1006E800A2000030A3000A168A11AE240A128A1149
:1006F800831203132108A901A9072008A801A80744
:100708000A128A15F2220A128A1183120313260882
:100718002E3EB70027080318013E003EB800772C8C
:10072800772C772C831203133808803AFF00813026
:100738007F02031DA12B3D3037020318A42BA52BE4
:10074800DD2B3D3083120313A6000030A7003709C4
:10075800B9003809BA00B90A0319BA0A39083D3E7E
:10076800A0003A080318013E013EA1000A30A20089
:100778000030A3000A168A11AE240A128A118312C5
:1007880003132108A901A9072008A801A8070A122C
:100798008A15F2220A128A11831203132608253EAB
:1007A800B70027080318013E003EB800772C772CC5
:1007B800772C831203133808803AFF0081307F02B8
:1007C800031DE82B9A3037020318EB2BEC2B242C53
:1007D8005D3083120313A6000030A7003709B90063
:1007E8003809BA00B90A0319BA0A39089A3EA000AA
:1007F8003A080318013E013EA1000A30A200003069
:10080800A3000A168A11AE240A128A11831203134E
:100818002108A901A9072008A801A8070A128A1512
:10082800F2220A128A118312031326081C3EB7000B
:1008380027080318013E003EB800772C772C772C48
:10084800831203133808803AFF0082307F02031DA9
:100858002F2C0A3037020318322C332C6B2C7030B3
:1008680083120313A6000030A7003709B90038091E
:10087800BA00B90A0319BA0A39080A3EA0003A08A8
:100888000318013E023EA1000A30A2000030A30076
:100898000A168A11AE240A128A1183120313210838
:1008A800A901A9072008A801A8070A128A15F22297
:1008B8000A128A11831203132608123EB70027086A
:1008C8000318013E003EB800772C772C772C831252
:1008D8000313B701B801772C772C772C772C772C5A
:1008E800772C772C772C080083120313B001B10101
:1008F800B201B3017114FA30AE002E08A2008030A4
:10090800AF002F08A300A40100300A168A11DA24C8
:100918000A128A11F1113D2E831203133308803A0B
:10092800FF0080307F02031D9B2C64303202031CC1
:100938009E2C9F2C542D8E300A168A1131230A12B0
:100948008A110A300A168A1131230A128A110A16E4
:100958008A1152230A128A1183120313AE002E0839
:10096800B700B708031DB92CBA2C092D8E300A160A
:100978008A1131230A128A110B300A168A1131237F
:100988000A128A110A168A1152230A128A1183122C
:100998000313AE002E08B700B708031DD42CD52CBE
:1009A800092D8E300A168A1131230A128A1109304C
:1009B8000A168A1131230A128A110A168A11522339
:1009C8000A128A1183120313AE002E08B700B70863
:1009D800031DEF2CF02C092D8E300A168A113123B5
:1009E8000A128A110C300A168A1131230A128A1146
:1009F8000A168A1152230A128A1183120313AE00AF
:100A08002E08B700092D092D092D3708031D0D2DB6
:100A1800542DA201A301A40100300A168A11DA2478
:100A28000A128A110A128A15EB200A128A110A126E
:100A38008A11FE270A128A11831203135908013AF0
:100A4800031D272D282D372DE5010314E50D0A1662
:100A58008A1175260A128A1103300A168A11292268
:100A68000A128A11512D831203135908033A031DE0
:100A78003E2D3F2D4F2D0330AE002E08E5000A1203
:100A88008A15D0210A128A1101300A168A112922E0
:100A98000A128A11512DE501512D7110542D542D32
:100AA8008E300A168A1131230A128A110D300A165D
:100AB8008A1131230A128A110A168A1152230A123C
:100AC8008A1183120313AE002E08B6003608013AC5
:100AD800031D6F2D702DE62DA201A301A401003086
:100AE8000A168A11DA240A128A110A168A11C921E9
:100AF8000A128A1183120313AE002E08A4005708A5
:100B0800AF002F08A5000A168A11C4210A128A11FB
:100B18000A128A1143260A128A110A168A11C92151
:100B28000A128A1183120313AE002E08A000570878
:100B3800AF002F08A1000A168A11C4210A128A11CF
:100B48000A168A1119220A128A110A128A15EB202A
:100B58000A128A110A128A11FE270A128A118312AE
:100B680003135908013A031DBA2DBB2DCA2DE501FF
:100B78000314E50D0A168A1175260A128A11033024
:100B88000A168A1129220A128A11E42D83120313E4
:100B98005908033A031DD12DD22DE22D0330AE00A2
:100BA8002E08E5000A128A15D0210A128A1101308E
:100BB8000A168A1129220A128A11E42DE501E42D68
:100BC8007110E62D8E300A168A1131230A128A1105
:100BD80013300A168A1131230A128A110A168A1149
:100BE80052230A128A1183120313AE002E08B4008E
:100BF8000A168A1152230A128A1183120313AE00AD
:100C08002E08B5003408AE00AF012E08AF00AE01C3
:100C180035082E07B0000030031801302F07B10047
:100C28003008B2070318B30A3108B3073308803A0B
:100C3800AE002D08803A2E02031D242E2C08320205
:100C4800031C272E282E3D2E83120313A201A30175
:100C5800A40100300A168A11DA240A128A11F11541
:100C68007110023083120313AE002E08E5003D2EEA
:100C78003D2E7118402E412E902C422E08008312D2
:100C88000313A7001A2F5B2EE301E4010314E40DFC
:100C98002B2FE3010230A6002608E4002B2FE301E6
:100CA8000330A6002608E4002B2F2B2F2B2F240817
:100CB800013A0319482E033A03194D2E013A031934
:100CC800532E2B2F2B2F862EE3010314E30DE40163
:100CD8002B2FE3010314E30DE4010314E40D2B2F80
:100CE800E3010314E30D0230A6002608E4002B2FCD
:100CF800E3010314E30D0330A6002608E4002B2FBC
:100D08002B2F2B2F2408003A0319682E013A0319B8
:100D18006D2E033A0319742E013A03197C2E2B2FDA
:100D28002B2FBE2EA508031D9A2E9B2E2B2F03308A
:100D3800A6002608E300E4010314E40D2B2F2B2F53
:100D48000230A6002608E300E4010314E40D2B2F6B
:100D58002508023A031DB12EB22E2B2F0230A60011
:100D68002608E3000230A6002608E4002B2F2B2FCC
:100D78002B2F2B2F2408003A0319962E013A03191A
:100D8800A42E033A0319AC2E2B2F2B2FDC2E033065
:100D9800A6002608E300E4012B2F0330A60026084E
:100DA800E3000230A6002608E4002B2F2B2F2B2F60
:100DB8002408003A0319CB2E023A0319D12E2B2FFF
:100DC8002B2F092F0430A6002608E300E4012B2F5F
:100DD8000430A6002608E300E4010314E40D2B2FD9
:100DE8002508013A031DF92EFA2E2B2F0430A600F0
:100DF8002608E3000230A6002608E4002B2F2B2F3C
:100E0800E301E4012B2F2B2F2B2F2408003A031981
:100E1800E62E013A0319EC2E033A0319F42E013A8F
:100E28000319042F2B2F2B2F2B2F2B2F2708003A9A
:100E380003195B2E013A0319862E033A0319BE2EB5
:100E4800013A0319DC2E073A0319092F2B2F4730D3
:100E58000A168A11F6210A128A11831203136308EB
:100E68000A168A1101220A128A1149300A168A11B1
:100E7800F6210A128A118312031364080A168A11CA
:100E880001220A128A1108000A168A1174230A120A
:100E98008A11831203134008C701C7073F08C60118
:100EA800C6074708803AFF0080307F02031D5E2F87
:100EB80057304602031C612F622FA92F8312031398
:100EC8004708803AFF0080307F02031D6D2F643091
:100ED80046020318702F712FA92F32308312031383
:100EE800C3004308A200A301A4010314A40D003009
:100EF8000A168A11DA240A128A1183120313A2012C
:100F08000830C3004308A3009D300A168A11312413
:100F18000A128A1183120313A201A301A40100304B
:100F28000A168A11DA240A128A111A308312031354
:100F3800C5005E30C4008630C300C30BA12FC40BAC
:100F4800A12FC50BA12F6400F82F831203134708A4
:100F5800803AFF0080307F02031DB42F2430460200
:100F68000318B72FB82FF82F323083120313C3009A
:100F78004308A200FF30C4004408A300FF30C500A6
:100F88004508A40000300A168A11DA240A128A11C8
:100F9800FF3083120313C3004308A200F830C400D3
:100FA8004408A3009D300A168A1131240A128A11B6
:100FB80083120313A201A301A40100300A168A11A7
:100FC800DA240A128A111A3083120313C5005E301C
:100FD800C4008630C300C30BEF2FC40BEF2FC50B23
:100FE800EF2F6400F82FF82F080083120313650809
:100FF800FD2F0800F111080008308A000408840A4F
:101008008207003443346F346D3470346C34653483
:10101800743465342034203420342034203420348F
:101028002034203420342034203420342034203418
:10103800003445344534503452344F344D34203420
:10104800533465347234693461346C342034203458
:101058002034203420342034203420342034003408
:1010680050346C3465346134733465342034573407
:101078006134693474342E342E342E3420342034C0
:1010880020342034203420342034203400342834D0
:101098002D342C342D34293420342D3420342D345F
:1010A8002D3420342D342D342D3420342D34003477
:1010B8002D3420342D3420342D3420342834333446
:1010C8002C343134293420344734523445344734AD
:1010D800003445344534503452344F344D34203480
:1010E800533475346334633465347334733400347F
:1010F80045344534503452344F344D34203446341A
:0C110800613469346C34653464340034A4
:10111A0083120313981C92289328982818121816D9
:10112A000310A328A3287C085B06031D9D289E287C
:10113A00A0280310A3280314A328A32808003230E8
:10114A0083120313A9002908A200A301A40103140E
:10115A00A40D00300A168A11DA240A128A1583129B
:10116A000313A201B430A9002908A3009D300A166E
:10117A008A1131240A128A1583120313A201A301C8
:10118A00A40100300A168A11DA240A128A154D308F
:10119A0083120313AB001930AA009A30A900A90BD5
:1011AA00D428AA0BD428AB0BD428DB284D308312C1
:1011BA000313AB001930AA009A30A900A90BE3283F
:1011CA00AA0BE328AB0BE328EA2808000F300A161B
:1011DA008A11F6210A128A1521300A168A114C221E
:1011EA000A128A157D3083120313A9002908A20066
:1011FA008030AA002A08A300A401FF300A168A1127
:10120A00DA240A128A15FE3083120313A900290868
:10121A00A200D430AA002A08A3009C300A168A1118
:10122A0031240A128A1583120313A201A301A4010D
:10123A0000300A168A11DA240A128A153330831208
:10124A000313AB00BC30AA001030A900A90B2B294C
:10125A00AA0B2B29AB0B2B29080083120313B0000E
:10126A00B1013008AE002E08B1042908AE002E07DD
:10127A00AF002F08B1042A08AE0001300310AE0DEA
:10128A00FF3E031D432903102E0DAF002F08B104A2
:10129A002B08AE0002300310AE0DFF3E031D50298D
:1012AA0003102E0DAF002F08B1042C08AE00033036
:1012BA000310AE0DFF3E031D5D2903102E0DAF0076
:1012CA002F08B1042D08AE0004300310AE0DFF3E06
:1012DA00031D6A2903102E0DAF002F08B1047F30B9
:1012EA00AE002E08B10531080A168A11D4220A1254
:1012FA008A1508008C3402340D3448341C344834BE
:10130A001C344F344034803410344D341C344C3443
:10131A001C34483440348034103445341C34453449
:10132A001C3445341C3448341C34483440348C341E
:10133A0003340C34493408344734083449342034EB
:10134A0042344034803420344A340834493408342E
:10135A004A34083480340C344934063480340C342A
:10136A00473430348C3401340B344C3408348034F0
:10137A0004344C341034803404344C341034803403
:10138A000434483408344C3410344F342034803414
:10139A00083443341034323083120313A900290865
:1013AA00A200A301A4010314A40D00300A168A1195
:1013BA00DA240A128A150A168A11C4210A128A150F
:1013CA00023A031DE929EA29022A0A168A11C921C1
:1013DA000A128A15023A031DF329F429022A8312F2
:1013EA000313A2015530A9002908A3009D300A164B
:1013FA008A1131240A128A150F2A83120313A201B1
:10140A005A30A9002908A3009D300A168A113124EE
:10141A000A128A1583120313A201A301A401003040
:10142A000A168A11DA240A128A154D308312031316
:10143A00AB001930AA009A30A900A90B222AAA0BDC
:10144A00222AAB0B222A292A0800AD308312031361
:10145A00A2000130A3001B30A4000030A5000A1628
:10146A008A1111250A128A15C83083120313A200A1
:10147A000130A3001930A4000030A5000A168A1111
:10148A0011250A128A15903083120313A200013023
:10149A00A3001D30A4000030A5000A168A111125E8
:1014AA000A128A15C03083120313A2000030A30067
:1014BA001530A4000030A5000A168A1111250A1257
:1014CA008A15D53083120313A2000030A300053019
:1014DA00A4000030A5000A168A1111250A128A15DD
:1014EA00DA3083120313A2000030A3000630A400EE
:1014FA000030A5000A168A1111250A128A15080059
:10150A00831203136608023A031D8C2A8D2A972A2E
:10151A006908023A031D922A932A972ADA010314C8
:10152A00DA0DF12A6608043A031D9C2A9D2AA82A84
:10153A006908023A031DA22AA32AA82A0230A00097
:10154A002008DA00F12A6608023A031DAD2AAE2AFB
:10155A00B82AE908031DB22AB32AB82A0330A00020
:10156A002008DA00F12A6608043A031DBD2ABE2AB9
:10157A00C92A6908033A031DC32AC42AC92A04309E
:10158A00A0002008DA00F12A6608023A031DCE2AD2
:10159A00CF2ADA2A6908013A031DD42AD52ADA2A77
:1015AA000530A0002008DA00F12A6608033A031D74
:1015BA00DF2AE02AEA2AE908031DE42AE52AEA2AB8
:1015CA000630A0002008DA00F12ADA01F12AF12A0D
:1015DA00F12AF12AF12AF12A080083120313AC0135
:1015EA00A71FF82AF92A022BA609A709A60A03198E
:1015FA00A70AAC010314AC0D022BA91F052B062B5D
:10160A00102BA809A909A80A0319A90A0130AA00D6
:10161A002A08AC06102BAD01AE01270826040319CF
:10162A00172B182B562BAB010314AB0D282B0130AB
:10163A000310A60DA70DFF3E031D1D2B0130AA00A6
:10164A002A08AB07282BA71F2B2B2C2B1C2B2E2B46
:10165A002E2B01300310AD0DAE0DFF3E031D2F2BB7
:10166A0027082902031D3B2B26082802031C3E2BB0
:10167A003F2B472B2608A8022708031CA903A90207
:10168A002D14472B01300310A70CA60CFF3E031D97
:10169A00482B0130AB02031D532B542B2E2B562BF8
:1016AA00562B2C08031D5A2B602BAD09AE09AD0A27
:1016BA000319AE0A602B2E08A701A7072D08A60159
:1016CA00A607672B080083120313A200D32B792BDA
:1016DA000430A1002108E000E42B0430A100210815
:1016EA00E000E42BE42BE42B2008003A03196D2BCD
:1016FA00013A0319722BE42BE42B8F2B0430A1003F
:10170A002108E000E42B0430A1002108E000E42BCA
:10171A00E42BE42B2008003A0319832B013A03191E
:10172A00882BE42BE42BA42B0330A1002108E00032
:10173A00E42BE0010314E00DE42BE42BE42B200856
:10174A00013A0319992B023A03199E2BE42BE42B35
:10175A00BA2B0330A1002108E000E42B0230A100DB
:10176A002108E000E42BE42BE42B2008013A0319BA
:10177A00AE2B023A0319B32BE42BE42BCB2B02300A
:10178A00A1002108E000E42BE42BE42B2008033A13
:10179A000319C42BE42BE42BE42BE42B2208003A94
:1017AA000319792B013A03198F2B033A0319A42B36
:1017BA00013A0319BA2B073A0319CB2BE42B600819
:1017CA00E62B080083120313AA01D601A1010030F7
:1017DA000A168A11B4260A128A1583120313A7005D
:1017EA002708D5000330A9008A30A8005630A70080
:1017FA00A70BFD2BA80BFD2BA90BFD2B042CFE30F0
:10180A000A168A1131230A128A153C2C83120313F1
:10181A005608013EA7002708A10000300A168A11BF
:10182A00B4260A128A150A168A1131230A128A154F
:10183A00033083120313A9008A30A8005630A70088
:10184A00A70B252CA80B252CA90B252C2C2C0130F9
:10185A0083120313A7002708D60755085602031C4C
:10186A00372C382C3C2CAA010314AA0D3C2C8312C9
:10187A000313AA08031D422C432C4A2CD508031D26
:10188A00472C482C0B2C4A2C4A2CFF300A168A115A
:10189A0031230A128A15033083120313A9008A30EE
:1018AA00A8005630A700A70B582CA80B582CA90B38
:1018BA00582C5F2CFF300A168A1131230A128A1516
:1018CA0008008E300A168A1131230A128A1511303D
:1018DA000A168A1131230A128A150A168A11522304
:1018EA000A128A1583120313A4002408A700F230EF
:1018FA002702031C812C822CEF2C2708FF3A03199C
:10190A00872C882CEF2CF01E8B2C8C2CC82C1A3090
:10191A00A6005E30A5008630A400A40B922CA50B6D
:10192A00922CA60B922C640003300A168A113A22D2
:10193A000A128A150D3083120313A600AF30A500D0
:10194A00C130A400A40BA72CA50BA72CA60BA72C6F
:10195A00640083120313E10109300A168A11F62181
:10196A000A128A1556300A168A114C220A128A1548
:10197A00831203136608A4002408E7006908A40078
:10198A002408EA00EF2C6608A4002408E700690886
:10199A00A4002408EA006908A4002408A000660834
:1019AA000A128A1568230A128A1583120313A500DC
:1019BA002508E10008300A168A11F6210A128A154A
:1019CA008312031361080A168A1101220A128A1560
:1019DA00EF2CEF2C08000D3083120313C3004308C9
:1019EA00A00018300A168A1184250A128A150B30AB
:1019FA000A168A11F6210A128A150A168A11B822BB
:101A0A000A128A1503180A2D0C2DF0170D2DF01342
:101A1A00F01F102D112D182D4C300A168A114C2248
:101A2A000A128A151E2D20300A168A114C220A1211
:101A3A008A150F3083120313C3004308A00018301D
:101A4A000A168A1184250A128A150A168A11B822D8
:101A5A000A128A150318322D342D7016352D70127C
:101A6A00701E382D392D402D46300A168A114C2207
:101A7A000A128A15462D20300A168A114C220A1299
:101A8A008A150F3083120313C3004308A0001830CD
:101A9A000A168A1184250A128A150A168A11B82288
:101AAA000A128A1503185A2D5C2D71155D2D7111B4
:101ABA00711D602D612D6E2D05300A168A113A228C
:101ACA000A128A1552300A168A114C220A128A15EB
:101ADA00742D20300A168A114C220A128A150D30EA
:101AEA0083120313C3004308A00018300A168A1190
:101AFA0084250A128A15080040300A168A11F6212E
:101B0A000A128A15BE2D013083120313A400240879
:101B1A00E9074E300A168A114C220A128A15D02D6C
:101B2A00FF3083120313A4002408E90753300A166E
:101B3A008A114C220A128A15D02D013083120313FE
:101B4A00A4002408E60745300A168A114C220A1214
:101B5A008A15D02DFF3083120313A4002408E60748
:101B6A0057300A168A114C220A128A15D02DD02D06
:101B7A00D02D0A168A11CE210A128A15003A0319A3
:101B8A00AF2D013A0319952D033A0319A22D013AF3
:101B9A000319882DD02D83120313E61FD52DD62DB8
:101BAA00D82DE601D82D6608803A7B3E031CDE2D2F
:101BBA00DF2DE42D0430A4002408E600E42DE91FFB
:101BCA00E72DE82DEA2DE901EA2D6908803A7C3EE5
:101BDA00031CF02DF12DF62D0330A4002408E90092
:101BEA00F62D01300A168A11F6210A128A15831275
:101BFA00031366080A168A1101220A128A1503308B
:101C0A000A168A11F6210A128A1583120313690821
:101C1A000A168A1101220A128A15080000300A16C9
:101C2A008A11D4220A128A1520300A168A11D4225D
:101C3A000A128A1540300A168A11D4220A128A1503
:101C4A0040300A168A11D4220A128A1560300A16FE
:101C5A008A11D4220A128A1520300A168A11D4222D
:101C6A000A128A1540300A168A11D4220A128A15D3
:101C7A0040300A168A11D4220A128A1560300A16CE
:101C8A008A11D4220A128A1501300A168A11D4221C
:101C9A000A128A1540300A168A11D4220A128A15A3
:101CAA0020300A168A11D4220A128A1520300A16FE
:101CBA008A11D4220A128A1520300A168A11D422CD
:101CCA000A128A1500300A168A11D4220A128A15B3
:101CDA0000300A168A11D4220A128A1560300A16AE
:101CEA008A11D4220A128A1540300A168A11D4227D
:101CFA000A128A1500300A168A11D4220A128A1583
:101D0A0020300A168A11D4220A128A1500300A16BD
:101D1A008A11D4220A128A1560300A168A11D4222C
:101D2A000A128A1500300A168A11D4220A128A1552
:101D3A0020300A168A11D4220A128A1570300A161D
:101D4A008A11D4220A128A1508000B1DAD2EAE2E56
:101D5A00472F0B11643081000618B42EB52ED52EEC
:101D6A000130F2007208D0074F08F200F3010A307E
:101D7A005002003003180130F400F50172087405AE
:101D8A00F60073087505F700770876040319CE2E56
:101D9A00CF2EDA2ECE010314CE0DCF01DA2EDA2E93
:101DAA00D001CF010314CF0DDA2E8618DD2EDE2ED8
:101DBA00FE2E0130F2007208CD074C08F200F30142
:101DCA000A304D02003003180130F400F5017208A0
:101DDA007405F60073087505F70077087604031989
:101DEA00F72EF82E032FCB010314CB0DCC01032FB2
:101DFA00032FCD01CC010314CC0D032F8C1E062F0B
:101E0A00072F212F1A08F2007C08A03E84007208CE
:101E1A00831380007C08013E0F39F2007208DC004F
:101E2A005C085B0603191A2F1B2F212F5C08F2008E
:101E3A007208FC00212F212F0C1E242F252F472F3B
:101E4A00831603130C1E2A2F2B2F472F83120313DB
:101E5A005F08B03E84008313000899000130F20045
:101E6A007208DF070F30F2007208DF055F087D068F
:101E7A00031D402F412F472F831603130C12472FA0
:101E8A00472F472F7B088312FF007A088A007908B8
:101E9A008400780E8300FE0E7E0E09000A168A114F
:101EAA0074230A128A15831203134008C601C6074F
:101EBA003F08C501C5074608803AFF0080307F0207
:101ECA00031D692F2D30450203186C2F6D2FAE2F7D
:101EDA007D3083120313C3004308A2008030C4007C
:101EEA004408A300A401FF300A168A11DA240A1250
:101EFA008A158D2F0A168A1174230A128A158312DB
:101F0A0003134008C601C6073F08C501C5078D2F40
:101F1A00831203134608803AFF0080307F02031DB4
:101F2A00982F33304502031C9B2F9C2F7F2F9D2F08
:101F3A0083120313A201A301A40100300A168A1115
:101F4A00DA240A128A150A128A11FE270A128A1537
:101F5A00FF2F831203134608803AFF0080307F0266
:101F6A00031DB92F38304502031CBC2FBD2FFF2F8C
:101F7A00FA3083120313C3004308A2008030C4005E
:101F8A004408A300A40100300A168A11DA240A12AE
:101F9A008A15DD2F0A168A1174230A128A158312EA
:101FAA0003134008C601C6073F08C501C507DD2F50
:101FBA00831203134608803AFF0080307F02031D14
:101FCA00E82F323045020318EB2FEC2FCF2FED2FDD
:101FDA0083120313A201A301A40100300A168A1175
:101FEA00DA240A128A150A128A11FE270A128A1597
:061FFA00FF2FFF2F08007D
:10237400831203136308BE2908008312031364083D
:10238400C3290800831203136608C82908008312AE
:1023940003136908CD290800831203135708D229AF
:1023A4000800FC3083120313A0002008870587145B
:1023B400080064008001840A04060319003404063A
:1023C400DC290334013402340134F634F6340334A2
:1023D400F634F634F119EF29F029F2290310F5291E
:1023E4000314F529F529080083120313A300A31786
:1023F40023080A168A1172220A168A110800831207
:102404000313A3002308303E0A168A114C220A162D
:102414008A11080083120313A0008C112008930072
:10242400132A8C1D162A172A132A182A0800831225
:102434000313A3002308A2002208E8002008A20036
:102444002208EB002108A2002208D8000800831209
:102454000313A1002108A0002008D7070430570265
:10246400031C352A362A392A0430D702392A0800AF
:1024740083120313A2008D300A168A1131230A161F
:102484008A118312031322080A168A1131230A16A9
:102494008A11080083120313A20009118910091478
:1024A40022088800091509110730A1007D30A00019
:1024B400A00B5A2AA10B5A2A08007E088A007F081A
:1024C40082000A168A115F220A168A118000840A81
:1024D40004087D0603190034FF0A0319FE0A632A5F
:1024E40083120313A200091189100910220888001D
:1024F400091509110D30A100FB30A000A00B802AA2
:10250400A10B802A852A08008312031385013F301A
:10251400831603138500A130831203139F00023036
:10252400831603139F00533083120313A000A00BE0
:10253400992A0800033083120313A4008A30A300ED
:102544005630A200A20BA42AA30BA42AA40BA42AEB
:10255400AB2A80300A168A1131230A168A11843074
:102564000A168A1131230A168A1108000A168A11DA
:1025740074230A168A11831203134008803AFF0059
:1025840080307F02031DC82A65303F02031CCB2A1A
:10259400CC2AD02A0310D32AD32AD32A0314D32A29
:1025A400D32A080083120313A800A1015508013E91
:1025B400A7002708A20028080A168A1177270A16F6
:1025C4008A11013083120313A7002708D507A1013C
:1025D400A20155080A168A1177270A168A110800DB
:1025E4008C34043409344A344034493410344A3481
:1025F4001034493430344534303480342034423457
:102604001C3447342034423430348C34053401349F
:10261400483404348C34063401344834103483127E
:1026240003136608013A031D182B192B302B690874
:10263400033A031D1E2B1F2B302BA201A301A4015F
:1026440000300A168A11DA240A168A1104300A168E
:102654008A113A220A168A117017302B0800831245
:102664000313A100362B362B7D08013E0F395F067C
:1026740003193D2B3E2B362B8B132108A0007D081C
:10268400B03E84002008831380007D08013E0F398A
:10269400A0002008FD00831603130C168B170800F6
:1026A400542B542B0A128A158D200A168A11031CE6
:1026B4005C2B5D2B542B8B13831203135B08A03EFE
:1026C400840083130008A0002008A1000130A000AA
:1026D4002008DB070F30A0002008DB058B1721083A
:1026E400732B080000300A168A11F4260A168A1180
:1026F400831203133C08B801B8073B08B701B707B6
:102704000A128A11A9220A168A118312031338089D
:10271400C201C2073708C101C1074208C001C0078E
:102724004108BF01BF07962B080083120313A400BE
:10273400AE2B240884000A128A1500200A168A1176
:102744000A168A114C220A168A11013083120313C5
:10275400A3002308A407AE2B240884000A128A15B8
:1027640000200A168A110038031DB92BBA2B9B2BA3
:10277400BB2B08000F300A168A11F6210A168A119B
:102784004C300A168A114C220A168A110A128A152A
:10279400D0210A168A1101300A168A1129220A1632
:1027A4008A1183120313D9010314D90DE830AC0044
:1027B4000330AD000A128A1178240A168A1108001F
:1027C4000F300A168A11F6210A168A1152300A1697
:1027D4008A114C220A168A110A168A1175260A16BB
:1027E4008A1103300A168A1129220A168A11033023
:1027F40083120313B8003808D900E830AC00033062
:10280400AD000A128A1178240A168A110800831668
:1028140003138717BF3083120313A0002008831605
:102824000313870518151430990018138312031322
:102834001813831603131812831203139817181608
:10284400831603130C128C1698160030831203138C
:10285400DF00FD00DB00A0002008FC00080083125C
:102864000313A7000330A6008A30A5005630A40045
:10287400A40B3A2CA50B3A2CA60B3A2C412C831210
:10288400031327080A168A1131230A168A118312A0
:10289400031322080A168A1131230A168A11831295
:1028A400031323080A168A1131230A168A11080011
:1028B4000F300A168A11F6210A168A1142300A16B6
:1028C4008A114C220A168A110A128A15A4200A16A1
:1028D4008A1102300A168A1129220A168A11E8304E
:1028E40083120313AC000330AD000A128A1178245A
:1028F4000A168A11023083120313B8003808D9006B
:1029040008000230831603139F0083120313880107
:102914008901831603138801890101300A168A117B
:1029240072220A168A1138300A168A1172220A167D
:102934008A110C300A168A1172220A168A1106307C
:102944000A168A1172220A168A1102300A168A118C
:1029540072220A168A11080083120313A401A50126
:10296400B32C201CB62CB72CBD2C2208A4070318AA
:10297400A50A2308A50701300310A20DA30DFF3EED
:10298400031DBE2C01300310A10CA00CFF3E031D3F
:10299400C52C21082004031DD02CD12CB32CD22CFF
:1029A4002508A101A1072408A001A007D92C08002B
:1029B40083120313A8000330A7008A30A600563000
:1029C400A500A50BE32CA60BE32CA70BE32CEA2C08
:1029D40089300A168A1131230A168A1183120313C5
:1029E40028080A168A1131230A168A11831203133E
:1029F40022080A168A1131230A168A118312031334
:102A040023080A168A1131230A168A118312031322
:102A140024080A168A1131230A168A11080083121F
:102A24000313A901AA013A2D8312031329082207CB
:102A3400A7002308A6000318A60AA91F222DA6038F
:102A4400831203132608A800270884008317281C70
:102A5400831300080A168A1131230A168A110130D9
:102A640083120313A9070318AA0A0030AA073A2DF0
:102A74002A08803AA6002508803A2602031D442D20
:102A840024082902031C472D482D162D492D080022
:102A940083120313CE01CF010314CF0DCB01CC015C
:102AA4000314CC0D0A168A1186220A168A110A16F4
:102AB4008A1183240A168A110330831603138600AD
:102AC400043081008B1640309400223083120313AB
:102AD4009400903083160313870083120313870135
:102AE4000B178B170A168A1109240A168A110A165B
:102AF4008A119C220A168A110A128A152A220A1697
:102B04008A11080083120313A4000330A1002108D2
:102B1400870420089300A5010314A50DA92D07150A
:102B2400FB30A100210887050230A3004530A20034
:102B3400A930A100A10B9C2DA20B9C2DA30B9C2DB5
:102B4400A32D013083120313A1002108A507250832
:102B540024020318AE2DAF2D912DB02D9301033017
:102B6400A3008A30A2005630A100A10BB72DA20BFE
:102B7400B72DA30BB72DBE2D0800831203136608CF
:102B8400A400A501A41BA5030A168A11BA210A16DA
:102B94008A118312031324062504031DD22DD32D79
:102BA400F92D6908A400A501A41BA5030A168A111E
:102BB400BF210A168A118312031324062504031D58
:102BC400E42DE52DF92D02300A168A113A220A164F
:102BD4008A11F01606300A168A11F6210A168A118D
:102BE40052300A168A114C220A168A11F92D08004D
:102BF4000F300A168A11F6210A168A1146300A166F
:102C04008A114C220A168A1183120313D9010A1657
:102C14008A11C4210A168A11013A031D122E132E99
:102C2400292E0A168A11C9210A168A11023A031D8D
:102C34001C2E1D2E292E203083120313AC000330CA
:102C4400AD000A128A1178240A168A11352EE8304A
:102C540083120313AC000330AD000A128A117824E6
:102C64000A168A11352E0800831203139E01831657
:102C740003139E01831203131F15402E1F19432EA5
:102C8400442E402E452E4030A6000030A700831667
:102C940003131E0883120313B100B2013108A80004
:102CA4003208A9000A128A15F2220A168A1183121E
:102CB40003131E08B300B4010230FF000310B30D68
:102CC400B40DFF0B602E26083307B5002708031840
:102CD400270A3407B6003608B001B0073508AF013B
:102CE400AF07742E0800323083120313A900290899
:102CF400A200FF30AA002A08A300FF30AB002B0873
:102D0400A40000300A168A11DA240A168A11FF3048
:102D140083120313A9002908A200AE30AA002A08CE
:102D2400A3009D300A168A1131240A168A118312CF
:102D34000313A201A301A40100300A168A11DA24A4
:102D44000A168A114D3083120313AB001930AA00FE
:102D54009A30A900A90BAC2EAA0BAC2EAB0BAC2E4F
:102D6400B32E080083120313A5000330A4008A3095
:102D7400A3005630A200A20BBD2EA30BBD2EA40BA4
:102D8400BD2EC42E0A168A11D3210A168A11831263
:102D94000313A60103300A168A110C220A168A119B
:102DA4008312031325080A168A110C220A168A11A3
:102DB4008312031321080A168A110C220A168A1197
:102DC400831203138C11FF309300E82E8C1DEB2E1D
:102DD400EC2EE82EED2E1308A2002208A6002608E9
:102DE400F32E080083120313BE00112F9F111F122C
:102DF4009F12222F9F151F129F12222F9F111F1601
:102E04009F12222F9F151F169F12222F9F111F12F0
:102E14009F16222FBB01BC01342F342F222F3E08D2
:102E2400003A0319F82E013A0319FC2E033A031948
:102E3400002F013A0319042F073A0319082F0C2F06
:102E44005330BD00BD0B242F0A168A1136260A16EC
:102E54008A11831203133008BC01BC072F08BB017D
:102E6400BB07342F0800F001F101FC01FD018313BD
:102E74004B30840063300A168A11DB210A168A114A
:102E8400A0308400C0300A168A11DB210A168A1188
:102E94008317E130FD000930FE007F30FF009030E1
:102EA40084000A168A1163220A168A118313DF30FA
:102EB400FD001230FE00F230FF00C03084000A161C
:102EC4008A1163220A168A116C30FD001130FE004B
:102ED400E330FF00633084000A168A1163220A1665
:102EE4008A1183010A128A11152883120313A6007A
:102EF4000330A5008A30A4005630A300A30B802F12
:102F0400A40B802FA50B802F872F0A168A11D3219B
:102F14000A168A1106300A168A110C220A168A1118
:102F24000A168A11D3210A168A1102300A168A1146
:102F34000C220A168A118312031321080A168A1115
:102F44000C220A168A118312031322080A168A1104
:102F54000C220A168A118312031326080A168A11F0
:102F64000C220A168A110A168A11D3210A168A110A
:102F74000800F01BBE2FBF2FCF2F0A128A11F9278A
:102F84000A168A11013A0319C82FC92FCF2F0A161E
:102F94008A11BC230A168A11FF2F701AD22FD32F3D
:102FA400E32F0A128A11F9270A168A11003A031923
:102FB400DC2FDD2FE32F0A168A11FA250A168A114F
:102FC400FF2F7119E62FE72FF72F0A128A11F9271D
:102FD4000A168A11033A0319F02FF12FF72F0A1654
:102FE4008A11E2230A168A11FF2F0A168A115A241B
:0C2FF4000A168A11FF2FFF2FFF2F080084
:02400E0032FF7F
:00000001FF
