:060000000A128A11122809
:10000800FE00030EF8000408F9000A08FA0083123B
:1000180003137F08FB000A128A15802F0A128A151B
:100028000E2B0A128A15FA200A128A118312031358
:10003800A201A301A40100300A128A1530210A1274
:100048008A1100300A168A1187250A128A1101308E
:100058000A168A1114270A128A1140300A168A11C0
:1000680087250A128A1112300A168A1114270A12D1
:100078008A11DF29F114831203134908031D452847
:10008800DF29F11C48284928DF290A128A159F20F0
:100098000A128A110A128A15C5250A128A110A1229
:1000A8008A1163270A128A1105300A168A11BF2598
:1000B8000A128A11F01F6128622880280D308312E5
:1000C8000313C8004808A00018300A128A15D8215E
:1000D8000A128A110A128A1105260A128A110F3089
:1000E80083120313C8004808A00018300A128A15A2
:1000F800D8210A128A11802805300A168A11BF25CC
:100108000A128A11701E89288A2890280A128A11D0
:10011800B6260A128A11902805300A168A11BF25B8
:100128000A128A118D290A128A1594230A128A1131
:10013800A329F01EA028A128D6285B08013A031D90
:10014800A628A728AD280A168A115F270A128A113D
:10015800A3290A168A1163250A128A11023A031D75
:10016800B628B728BD280A128A1513220A128A113E
:10017800A3290A168A1163250A128A11013A031D56
:10018800C628C728CD280A168A115F270A128A119D
:10019800A3290A128A1594230A128A11A329A329CA
:1001A800A329A3290A128A1594230A128A11A329BA
:1001B800A329F01EE028E12816295B08023A031D4E
:1001C800E628E728ED280A128A1513220A128A114E
:1001D800A3290A168A1163250A128A11013A031DF6
:1001E800F628F728FD280A168A115F270A128A11AD
:1001F800A3290A168A1163250A128A11033A031DD4
:10020800062907290D290A168A1139270A128A117F
:10021800A3290A128A1594230A128A11A329A32949
:10022800A329A3290A128A1594230A128A11A32939
:10023800A329F01E2029212956295B08033A031D0A
:10024800262927292D290A168A115F270A128A11B9
:10025800A3290A168A1163250A128A11023A031D74
:10026800362937293D290A128A1513220A128A11BA
:10027800A3290A168A1163250A128A11013A031D55
:10028800462947294D290A168A1139270A128A113F
:10029800A3290A128A1594230A128A11A329A329C9
:1002A800A329A3290A128A1594230A128A11A329B9
:1002B800A3290A168A1163250A128A11023A031D14
:1002C800662967296D290A168A115F270A128A1179
:1002D800A3290A128A1594230A128A11A329A32989
:1002E8000A168A1163250A128A11033A031D7D2909
:1002F8007E2984290A168A115F270A128A11A329DE
:100308000A128A1594230A128A11A329A329A32958
:10031800A329831203135408003A03199728013AB2
:1003280003199D28033A0319DD28013A03191D29E9
:10033800073A03195D29013A03197429A3290530DD
:100348000A168A11BF250A128A110A168A117D25F2
:100358000A128A11031CB129B229DF298312031357
:10036800A901AA01AB01AC010A168A1163250A1278
:100378008A1183120313C8004808AD0000300A121E
:100388008A1567240A128A110A128A1523260A1264
:100398008A110A128A1569250A128A11F01ED529AE
:1003A800D629DF290A168A118E260A128A11DF2910
:1003B800DF29DF29DF29701FE229E3293E28E42904
:1003C8000A128A111228831203133808803AFF0090
:1003D80080307F02031DF229523037020318F529B5
:1003E800F629FF29E73083120313B7000330B8005A
:1003F800B52BB52BB52B831203133808803AFF00B1
:1004080080307F02031D0A2A8530370203180D2A1F
:100418000E2A462A333083120313A6000030A700A1
:100428003709B9003809BA00B90A0319BA0A3908EC
:10043800853EA0003A080318013E003EA100323074
:10044800A2000030A3000A128A1573200A128A112A
:10045800831203132108A901A9072008A801A807E6
:100468000A128A158B260A128A1183120313260888
:10047800613EB70027080318013E003EB800B52BBF
:10048800B52BB52B831203133808803AFF00803050
:100498007F02031D512AB83037020318542A552AFF
:1004A8008D2A333083120313A6000030A7003709C2
:1004B800B9003809BA00B90A0319BA0A3908B83EA6
:1004C800A0003A080318013E003EA1001E30A20019
:1004D8000030A3000A128A1573200A128A118312A7
:1004E80003132108A901A9072008A801A8070A12CF
:1004F8008A158B260A128A11831203132608433E93
:10050800B70027080318013E003EB800B52BB52BED
:10051800B52B831203133808803AFF0081307F021D
:10052800031D982A0030370203189B2A9C2AD42AD4
:10053800483083120313A6000030A7003709B9001A
:100548003809BA00B90A0319BA0A3908003EA000E6
:100558003A080318013E013EA1001430A200003001
:10056800A3000A128A1573200A128A118312031330
:100578002108A901A9072008A801A8070A128A15B5
:100588008B260A128A118312031326082E3EB700FF
:1005980027080318013E003EB800B52BB52BB52B34
:1005A800831203133808803AFF0081307F02031D4D
:1005B800DF2A3D3037020318E22AE32A1B2B3D309D
:1005C80083120313A6000030A7003709B9003809C1
:1005D800BA00B90A0319BA0A39083D3EA0003A0818
:1005E8000318013E013EA1000A30A2000030A3001A
:1005F8000A128A1573200A128A118312031321081A
:10060800A901A9072008A801A8070A128A158B269C
:100618000A128A11831203132608253EB7002708F9
:100628000318013E003EB800B52BB52BB52B83123D
:1006380003133808803AFF0081307F02031D262B00
:100648009A3037020318292B2A2B622B5D3083122C
:100658000313A6000030A7003709B9003809BA000B
:10066800B90A0319BA0A39089A3EA0003A080318C9
:10067800013E013EA1000A30A2000030A3000A1288
:100688008A1573200A128A11831203132108A901FB
:10069800A9072008A801A8070A128A158B260A129A
:1006A8008A118312031326081C3EB7002708031873
:1006B800013E003EB800B52BB52BB52B83120313B2
:1006C8003808803AFF0082307F02031D6D2B0A3004
:1006D80037020318702B712BA92B70308312031368
:1006E800A6000030A7003709B9003809BA00B90ACE
:1006F8000319BA0A39080A3EA0003A080318013E4D
:10070800023EA1000A30A2000030A3000A128A1596
:1007180073200A128A11831203132108A901A90759
:100728002008A801A8070A128A158B260A128A111E
:10073800831203132608123EB70027080318013E48
:10074800003EB800B52BB52BB52B83120313B701A8
:10075800B801B52BB52BB52BB52BB52BB52BB52BB8
:10076800B52B080083120313B001B101B201B30124
:100778007114FA30AE002E08A2008030AF002F08A6
:10078800A300A40100300A128A1530210A128A1126
:10079800F111FA2C831203133308803AFF008030DA
:1007A8007F02031DD92B64303202031CDC2BDD2BA6
:1007B800292C8E300A168A11AE260A128A110A309E
:1007C8000A168A11AE260A128A110A168A11CF262B
:1007D8000A128A1183120313AE002E08B700B70855
:1007E800031DF72BF82B0F2C8E300A168A11AE2614
:1007F8000A128A1107300A168A11AE260A128A11BD
:100808000A168A11CF260A128A1183120313AE0020
:100818002E08B7000F2C3708031D132C292CA20112
:10082800A301A40100300A128A1530210A128A1184
:100838000A128A1520240A128A110A128A154620D9
:100848000A128A117110292C292C8E300A168A1145
:10085800AE260A128A110D300A168A11AE260A121D
:100868008A110A168A11CF260A128A1183120313D3
:10087800AE002E08B6003608013A031D442C452C5C
:10088800A32CA201A301A40100300A128A15302169
:100898000A128A110A168A115E250A128A1183120F
:1008A8000313AE002E08A4005208AF002F08A500BD
:1008B8000A168A1159250A128A110A128A11002564
:1008C8000A128A110A128A1520240A128A110A1297
:1008D8008A1546200A128A11831203135308013A13
:1008E800031D772C782C872CDF010314DF0D0A12E7
:1008F8008A158E220A128A1103300A168A11AE2529
:100908000A128A11A12C831203135308033A031DF8
:100918008E2C8F2C9F2C0330AE002E08DF000A127D
:100928008A15B4240A128A1101300A168A11AE25D2
:100938000A128A11A12CDF01A12C7110A32C8E3070
:100948000A168A11AE260A128A1113300A168A115B
:10095800AE260A128A110A168A11CF260A128A119D
:1009680083120313AE002E08B4000A168A11CF268C
:100978000A128A1183120313AE002E08B500340838
:10098800AE00AF012E08AF00AE0135082E07B0004B
:100998000030031801302F07B1003008B2070318E0
:1009A800B30A3108B3073308803AAE002D08803AFD
:1009B8002E02031DE12C2C083202031CE42CE52C2A
:1009C800FA2C83120313A201A301A40100300A1216
:1009D8008A1530210A128A11F1157110023083121A
:1009E8000313AE002E08DF00FA2CFA2C7118FD2C28
:1009F800FE2CCE2BFF2C080083120313A700D72D43
:100A0800182DDD01DE010314DE0DE82DDD010230B5
:100A1800A6002608DE00E82DDD010330A600260822
:100A2800DE00E82DE82DE82D2408013A0319052DEC
:100A3800033A03190A2D013A0319102DE82DE82D60
:100A4800432DDD010314DD0DDE01E82DDD01031466
:100A5800DD0DDE010314DE0DE82DDD010314DD0DCF
:100A68000230A6002608DE00E82DDD010314DD0DA6
:100A78000330A6002608DE00E82DE82DE82D24081E
:100A8800003A0319252D013A03192A2D033A0319AF
:100A9800312D013A0319392DE82DE82D7B2DA508B4
:100AA800031D572D582DE82D0330A6002608DD001C
:100AB800DE010314DE0DE82DE82D0230A60026081D
:100AC800DD00DE010314DE0DE82D2508023A031DC2
:100AD8006E2D6F2DE82D0230A6002608DD000230AD
:100AE800A6002608DE00E82DE82DE82DE82D2408CC
:100AF800003A0319532D013A0319612D033A0319DA
:100B0800692DE82DE82D992D0330A6002608DD0073
:100B1800DE01E82D0330A6002608DD000230A6001D
:100B28002608DE00E82DE82DE82D2408003A0319F0
:100B3800882D023A03198E2DE82DE82DC62D043094
:100B4800A6002608DD00DE01E82D0430A6002608F0
:100B5800DD00DE010314DE0DE82D2508013A031D32
:100B6800B62DB72DE82D0430A6002608DD0002308A
:100B7800A6002608DE00E82DE82DDD01DE01E82DBF
:100B8800E82DE82D2408003A0319A32D013A03198A
:100B9800A92D033A0319B12D013A0319C12DE82DE6
:100BA800E82DE82DE82D2708003A0319182D013AF9
:100BB8000319432D033A03197B2D013A0319992D83
:100BC800073A0319C62DE82D47300A168A118725DA
:100BD8000A128A11831203135D080A128A11F42774
:100BE8000A128A1149300A168A1187250A128A11AF
:100BF800831203135E080A128A11F4270A128A1153
:100C080008000A168A11F1260A128A1183120313A0
:100C18004008C701C7073F08C601C6074708803A0A
:100C2800FF0080307F02031D1B2E57304602031C35
:100C38001E2E1F2E662E831203134708803AFF00CC
:100C480080307F02031D2A2E6430460203182D2EA1
:100C58002E2E662E323083120313C3004308A200DF
:100C6800A301A4010314A40D00300A128A1530212F
:100C78000A128A1183120313A2010830C300430821
:100C8800A3009D300A168A11AE270A128A11831210
:100C98000313A201A301A40100300A128A1530210E
:100CA8000A128A111A3083120313C5005E30C40079
:100CB8008630C300C30B5E2EC40B5E2EC50B5E2EA2
:100CC8006400B52E831203134708803AFF00803072
:100CD8007F02031D712E243046020318742E752ED0
:100CE800B52E323083120313C3004308A200FF302D
:100CF800C4004408A300FF30C5004508A400003024
:100D08000A128A1530210A128A11FF30831203133E
:100D1800C3004308A200F830C4004408A3009D3073
:100D28000A168A11AE270A128A1183120313A20126
:100D3800A301A40100300A128A1530210A128A116F
:100D48001A3083120313C5005E30C4008630C30016
:100D5800C30BAC2EC40BAC2EC50BAC2E6400B52E49
:100D6800B52E08000A168A11F1260A128A11831272
:100D780003134008C601C6073F08C501C507460852
:100D8800803AFF0080307F02031DCC2E2D304502B3
:100D98000318CF2ED02E112F7D3083120313C300DA
:100DA8004308A2008030C4004408A300A401FF3017
:100DB8000A128A1530210A128A11F02E0A168A118F
:100DC800F1260A128A11831203134008C601C607C6
:100DD8003F08C501C507F02E831203134608803A61
:100DE800FF0080307F02031DFB2E33304502031CB9
:100DF800FE2EFF2EE22E002F83120313A201A30161
:100E0800A40100300A128A1530210A128A110A1226
:100E18008A1546200A128A11622F83120313460884
:100E2800803AFF0080307F02031D1C2F38304502B6
:100E3800031C1F2F202F622FFA3083120313C300C5
:100E48004308A2008030C4004408A300A401003075
:100E58000A128A1530210A128A11402F0A168A119D
:100E6800F1260A128A11831203134008C601C60725
:100E78003F08C501C507402F831203134608803A6F
:100E8800FF0080307F02031D4B2F323045020318CC
:100E98004E2F4F2F322F502F83120313A201A3017D
:100EA800A40100300A128A1530210A128A110A1286
:100EB8008A1546200A128A11622F622F08000D3007
:100EC80083120313C3004308A00018300A128A15BE
:100ED800D8210A128A110B300A168A1187250A129C
:100EE8008A110A168A1154260A128A1103187D2FAC
:100EF8007F2FF017802FF013F01F832F842F8B2F55
:100F08004C300A168A11D1250A128A11912F2030E5
:100F18000A168A11D1250A128A110F308312031377
:100F2800C3004308A00018300A128A15D8210A12F3
:100F38008A110A168A1154260A128A110318A52F33
:100F4800A72F7016A82F7012701EAB2FAC2FB32FBF
:100F580046300A168A11D1250A128A11B92F203073
:100F68000A168A11D1250A128A110F308312031327
:100F7800C3004308A00018300A128A15D8210A12A3
:100F88008A110A168A1154260A128A110318CD2FBB
:100F9800CF2F7115D02F7111711DD32FD42FE12FA1
:100FA80005300A168A11BF250A128A1152300A160C
:100FB8008A11D1250A128A11E72F20300A168A11C0
:100FC800D1250A128A110D3083120313C300430876
:100FD800A00018300A128A15D8210A128A110800AE
:100FE80083120313A3002308303E0A168A11D12561
:060FF8000A128A11080034
:1010000008308A000408840A8207003428342D340A
:101010002C342D34293420342D3420342D342D34E7
:1010200020342D342D342D3420342D3400342D34FF
:1010300020342D3420342D342034283433342C34CF
:101040003134293420344734523445344734003461
:1010500045344534503452344F344D3420345334B5
:101060007534633463346534733473340034453415
:101070004534503452344F344D3420344634613486
:0A10800069346C34653464340034C4
:10108C00F11108000230831603139F00831203131F
:10109C0088018901831603138801890101300A161E
:1010AC008A11F7250A128A1538300A168A11F72583
:1010BC000A128A150C300A168A11F7250A128A159B
:1010CC0006300A168A11F7250A128A1502300A16FA
:1010DC008A11F7250A128A15080083120313A4013A
:1010EC00A5017828201C7B287C2882282208A407AC
:1010FC000318A50A2308A50701300310A20DA30DA0
:10110C00FF3E031D832801300310A10CA00CFF3EF1
:10111C00031D8A2821082004031D95289628782869
:10112C0097282508A101A1072408A001A0079E2843
:10113C0008000A168A114F250A128A158312031306
:10114C006006031DAA28AB28CB280A168A11542541
:10115C000A128A15831203136106031DB628B728D9
:10116C00CB2802300A168A11BF250A128A15F016EE
:10117C0006300A168A1187250A128A1552300A1669
:10118C008A11D1250A128A15CB2808008C34013417
:10119C000B344C340834803404344C3410348034E4
:1011AC0004344C34103480340434483408344C3413
:1011BC0010344F34203480340834433410348C349D
:1011CC00043409344A344034493410344A34103429
:1011DC0049343034453430348034203442341C3477
:1011EC00473420344234303483120313C901CA010A
:1011FC000314CA0D0A168A110B260A128A150A1232
:10120C008A1548200A128A150330831603138600A8
:10121C00043081008B16403094002230831203136B
:10122C0094009030831603138700831203138701F5
:10123C000B178B170A168A1186270A128A150A169B
:10124C008A1138260A128A150A128A150E250A12D4
:10125C008A15080083120313A8000330A7008A30F4
:10126C00A6005630A500A50B3929A60B3929A70BCA
:10127C003929402989300A168A11AE260A128A1594
:10128C008312031328080A168A11AE260A128A152D
:10129C008312031322080A168A11AE260A128A1523
:1012AC008312031323080A168A11AE260A128A1512
:1012BC008312031324080A168A11AE260A128A1501
:1012CC0008008C3402340D3448341C3448341C343B
:1012DC004F344034803410344D341C344C341C3472
:1012EC00483440348034103445341C3445341C3478
:1012FC0045341C3448341C34483440348C34033466
:10130C000C344934083447340834493420344234DA
:10131C004034803420344A340834493408344A3454
:10132C00083480340C344934063480340C3447345B
:10133C00303483120313A901AA01C82983120313A1
:10134C0029082207A7002308A6000318A60AA91F2C
:10135C00B029A603831203132608A80027088400CB
:10136C008317281C831300080A168A11AE260A124A
:10137C008A15013083120313A9070318AA0A003037
:10138C00AA07C8292A08803AA6002508803A26020E
:10139C00031DD22924082902031CD529D629A429E6
:1013AC00D729080083120313A4000330A1002108DD
:1013BC00870420089300A5010314A50DFD2907152A
:1013CC00FB30A100210887050230A3004530A200A4
:1013DC00A930A100A10BF029A20BF029A30BF02935
:1013EC00F729013083120313A1002108A507250852
:1013FC0024020318022A032AE529042A9301033044
:10140C00A3008A30A2005630A100A10B0B2AA20B1C
:10141C000B2AA30B0B2A122A08000F300A168A116A
:10142C0087250A128A1546300A168A11D1250A1206
:10143C008A1583120313D3010A168A1159250A122D
:10144C008A15013A031D2B2A2C2A422A0A168A11C4
:10145C005E250A128A15023A031D352A362A422ABB
:10146C00203083120313AC000330AD000A128A1132
:10147C00B6230A128A154E2AE83083120313AC00E5
:10148C000330AD000A128A11B6230A128A154E2AAD
:10149C000800831203139E01831603139E0183120B
:1014AC0003131F15592A1F195C2A5D2A592A5E2A13
:1014BC004030A6000030A700831603131E088312C9
:1014CC000313B100B2013108A8003208A9000A12B6
:1014DC008A158B260A128A15831203131E08B30071
:1014EC00B4010230FF000310B30DB40DFF0B792AC9
:1014FC0026083307B50027080318270A3407B60057
:10150C003608B001B0073508AF01AF078D2A0800C7
:10151C00323083120313A9002908A200FF30AA005D
:10152C002A08A300FF30AB002B08A40000300A12DD
:10153C008A1530210A128A15FF3083120313A90071
:10154C002908A200AE30AA002A08A3009D300A1672
:10155C008A11AE270A128A1583120313A201A30162
:10156C00A40100300A128A1530210A128A154D3056
:10157C0083120313AB001930AA009A30A900A90BEF
:10158C00C52AAA0BC52AAB0BC52ACC2A0800831284
:10159C000313BE00EA2A9F111F129F12FB2A9F15EC
:1015AC001F129F12FB2A9F111F169F12FB2A9F15B9
:1015BC001F169F12FB2A9F111F129F16FB2ABB019D
:1015CC00BC010D2B0D2BFB2A3E08003A0319D12A26
:1015DC00013A0319D52A033A0319D92A013A0319F6
:1015EC00DD2A073A0319E12AE52A5330BD00BD0B69
:1015FC00FD2A0A128A154F220A128A158312031326
:10160C003008BC01BC072F08BB01BB070D2B080021
:10161C00F001F101FC01FD018313493084005D30C0
:10162C000A168A1175250A128A15CE308400EE30FE
:10163C000A168A1175250A128A158317C830FD00FF
:10164C000930FE006730FF00903084000A168A11C2
:10165C00E8250A128A158313CE30FD000830FE00EF
:10166C00CC30FF00A03084000A168A11E8250A123B
:10167C008A156C30FD001530FE009F30FF005D3088
:10168C0084000A168A11E8250A128A1583010A12A7
:10169C008A11152883120313A6000330A5008A3083
:1016AC00A4005630A300A30B592BA40B592BA50B4C
:1016BC00592B602B0A168A116D250A128A150630D1
:1016CC000A168A1192250A128A150A168A116D2594
:1016DC000A128A1502300A168A1192250A128A15E4
:1016EC008312031321080A168A1192250A128A15ED
:1016FC008312031322080A168A1192250A128A15DC
:10170C008312031326080A168A1192250A128A15C7
:10171C000A168A116D250A128A150800F01B972BE0
:10172C00982BA82B0A168A1168250A128A15013AD9
:10173C000319A12BA22BA82B0A168A1139270A12DE
:10174C008A15D82B701AAB2BAC2BBC2B0A168A1112
:10175C0068250A128A15003A0319B52BB62BBC2B37
:10176C000A128A1513220A128A15D82B7119BF2B4B
:10177C00C02BD02B0A168A1168250A128A15033A37
:10178C000319C92BCA2BD02B0A168A115F270A12F0
:10179C008A15D82B0A168A11D7270A128A15D82B24
:1017AC00D82BD82B0800323083120313A900290838
:1017BC00A200A301A4010314A40D00300A128A157F
:1017CC0030210A128A1583120313A201B430A90026
:1017DC002908A3009D300A168A11AE270A128A1511
:1017EC0083120313A201A301A40100300A128A156B
:1017FC0030210A128A154D3083120313AB001930B5
:10180C00AA009A30A900A90B092CAA0B092CAB0B26
:10181C00092C102C4D3083120313AB001930AA0085
:10182C009A30A900A90B182CAA0B182CAB0B182C4E
:10183C001F2C08000F300A168A1187250A128A15E8
:10184C0021300A168A11D1250A128A157D3083128D
:10185C000313A9002908A2008030AA002A08A300BB
:10186C00A401FF300A128A1530210A128A15FE30A3
:10187C0083120313A9002908A2000C30AA002A081D
:10188C00A3009C300A168A11AE270A128A158312FD
:10189C000313A201A301A40100300A128A153021FE
:1018AC000A128A15333083120313AB00BC30AA0022
:1018BC001030A900A90B602CAA0B602CAB0B602C70
:1018CC00080083120313B000B1013008AE002E08DB
:1018DC00B1042908AE002E07AF002F08B1042A0866
:1018EC00AE0001300310AE0DFF3E031D782C03102B
:1018FC002E0DAF002F08B1042B08AE0002300310E0
:10190C00AE0DFF3E031D852C03102E0DAF002F08CE
:10191C00B1042C08AE0003300310AE0DFF3E031DC6
:10192C00922C03102E0DAF002F08B1042D08AE0021
:10193C0004300310AE0DFF3E031D9F2C03102E0D23
:10194C00AF002F08B1047F30AE002E08B10531086E
:10195C000A168A1170260A128A1508003230831270
:10196C000313A9002908A200A301A4010314A40DC8
:10197C0000300A128A1530210A128A150A168A11A9
:10198C0059250A128A15023A031DCD2CCE2CE62CB1
:10199C000A168A115E250A128A15023A031DD72CE3
:1019AC00D82CE62C83120313A2015530A900290868
:1019BC00A3009D300A168A11AE270A128A15F32C41
:1019CC0083120313A2015A30A9002908A3009D30E9
:1019DC000A168A11AE270A128A1583120313A20162
:1019EC00A301A40100300A128A1530210A128A15AB
:1019FC004D3083120313AB001930AA009A30A900A2
:101A0C00A90B062DAA0B062DAB0B062D0D2D0800D0
:101A1C00AD3083120313A2000130A3001B30A400CD
:101A2C000030A5000A128A159F210A128A15A030CF
:101A3C0083120313A2000030A3001930A40000305D
:101A4C00A5000A128A159F210A128A15903083125A
:101A5C000313A2000130A3001D30A4000030A50028
:101A6C000A128A159F210A128A15B93083120313A0
:101A7C00A2000030A3001530A4000030A5000A120B
:101A8C008A159F210A128A15623083120313A20051
:101A9C000030A3000530A4000030A5000A128A15FE
:101AAC009F210A128A15673083120313A20000309B
:101ABC00A3000630A4000030A5000A128A159F214D
:101ACC000A128A150800831203136008023A031DD8
:101ADC00702D712D7B2D6108023A031D762D772D0B
:101AEC007B2DD4010314D40DC42D6008043A031DBE
:101AFC00802D812D8C2D6108023A031D862D872D9A
:101B0C008C2D0230A0002008D400C42D6008023AAD
:101B1C00031D912D922D9C2DE108031D962D972DC3
:101B2C009C2D0330A0002008D400C42D6008043A7A
:101B3C00031DA12DA22DAD2D6108033A031DA72D68
:101B4C00A82DAD2D0430A0002008D400C42D6008B1
:101B5C00023A031DB22DB32DBE2D6108013A031DAF
:101B6C00B82DB92DBE2D0530A0002008D400C42DF1
:101B7C00D401C42DC42DC42DC42DC42D08008E3009
:101B8C000A168A11AE260A128A1511300A168A1103
:101B9C00AE260A128A150A168A11CF260A128A153F
:101BAC0083120313A4002408A600F2302602031C9F
:101BBC00E02DE12D222E2608FF3A0319E62DE72D04
:101BCC00222EF01EEA2DEB2D012E03300A168A115F
:101BDC00BF250A128A1583120313DB0109300A167A
:101BEC008A1187250A128A1556300A168A11D125B0
:101BFC000A128A15222E831203136108A4002408EA
:101C0C00A00060080A128A1501270A128A1583128D
:101C1C000313A5002508DB0008300A168A11872556
:101C2C000A128A15831203135B080A128A11F4270D
:101C3C000A128A15222E222E080040300A168A110A
:101C4C0087250A128A155C2E013083120313A40017
:101C5C002408E1074E300A168A11D1250A128A157A
:101C6C006E2E013083120313E10253300A168A11CF
:101C7C00D1250A128A156E2E013083120313A4008B
:101C8C002408E00745300A168A11D1250A128A1554
:101C9C006E2E013083120313E00257300A168A119C
:101CAC00D1250A128A156E2E6E2E6E2E0A168A11E8
:101CBC0063250A128A15003A03194F2E013A0319AB
:101CCC00372E033A0319422E013A03192A2E6E2E8F
:101CDC0001300A168A1187250A128A1583120313FA
:101CEC0060080A128A11F4270A128A1503300A16A0
:101CFC008A1187250A128A158312031361080A12A6
:101D0C008A11F4270A128A15080083120313AC01F6
:101D1C00A71F912E922E9B2EA609A709A60A03197E
:101D2C00A70AAC010314AC0D9B2EA91F9E2E9F2E4F
:101D3C00A92EA809A909A80A0319A90A0130AA0001
:101D4C002A08AC06A92EAD01AE01270826040319FA
:101D5C00B02EB12EEF2EAB010314AB0DC12E013002
:101D6C000310A60DA70DFF3E031DB62E0130AA00D1
:101D7C002A08AB07C12EA71FC42EC52EB52EC72E01
:101D8C00C72E01300310AD0DAE0DFF3E031DC82E46
:101D9C0027082902031DD42E26082802031CD72E3F
:101DAC00D82EE02E2608A8022708031CA903A90296
:101DBC002D14E02E01300310A70CA60CFF3E031DC2
:101DCC00E12E0130AB02031DEC2EED2EC72EEF2EB3
:101DDC00EF2E2C08031DF32EF92EAD09AE09AD0A1A
:101DEC000319AE0AF92E2E08A701A7072D08A60184
:101DFC00A607002F080083120313A2006C2F122FCA
:101E0C000430A1002108DA007D2F0430A100210844
:101E1C00DA007D2F7D2F7D2F2008003A0319062F25
:101E2C00013A03190B2F7D2F7D2F282F0430A10091
:101E3C002108DA007D2F0430A1002108DA007D2F63
:101E4C007D2F7D2F2008003A03191C2F013A03190E
:101E5C00212F7D2F7D2F3D2F0330A1002108DA008B
:101E6C007D2FDA010314DA0D7D2F7D2F7D2F2008B5
:101E7C00013A0319322F023A0319372F7D2F7D2F88
:101E8C00532F0330A1002108DA007D2F0230A1006E
:101E9C002108DA007D2F7D2F7D2F2008013A0319B0
:101EAC00472F023A03194C2F7D2F7D2F642F0230C0
:101EBC00A1002108DA007D2F7D2F7D2F2008033A09
:101ECC0003195D2F7D2F7D2F7D2F7D2F2208003A4A
:101EDC000319122F013A0319282F033A03193D2F26
:101EEC00013A0319532F073A0319642F7D2F5A080F
:101EFC007F2F08000B1D832F842FF42F0B116430C0
:101F0C00810006188A2F8B2FAB2F0130F20072083C
:101F1C00CB074A08F200F3010A304B0200300318D9
:101F2C000130F400F50172087405F60073087505AC
:101F3C00F700770876040319A42FA52FB02FC90139
:101F4C000314C90DCA01B02FB02FCB01CA01031461
:101F5C00CA0DB02F8C1EB32FB42FCE2F1A08F2003F
:101F6C007C08CE3E84007208831380007C08013EFE
:101F7C000F39F2007208D600560855060319C72F00
:101F8C00C82FCE2F5608F2007208FC00CE2FCE2F91
:101F9C000C1ED12FD22FF42F831603130C1ED72F08
:101FAC00D82FF42F831203135908DE3E84008313B9
:101FBC00000899000130F2007208D9070F30F200C6
:101FCC007208D90559087D06031DED2FEE2FF42F4D
:101FDC00831603130C12F42FF42FF42F7B088312A7
:101FEC00FF007A088A0079088400780E8300FE0EC0
:041FFC007E0E09004C
:102A9E00831203135D08532D0800831203135E087F
:102AAE00582D08008312031360085D2D0800831251
:102ABE0003136108622D0800831203135208672D59
:102ACE000800831203135F086C2D0800FC3083127C
:102ADE000313A000200887058714080064008001F6
:102AEE00840A0406031900340406762DF119802D8C
:102AFE00812D832D0310862D0314862D862D08001F
:102B0E0083120313A300A31723080A168A11F725AD
:102B1E000A168A11080083120313A0008C112008D4
:102B2E009300992D8C1D9C2D9D2D992D9E2D080069
:102B3E00033401340234013403348C34053401344B
:102B4E00483404348C34063401344834103483123F
:102B5E000313A1002108A0002008D207043052025E
:102B6E00031CBA2DBB2DBE2D0430D202BE2D080083
:102B7E0083120313A2008D300A168A11AE260A168E
:102B8E008A118312031322080A168A11AE260A1618
:102B9E008A11080083120313A20009118910091467
:102BAE0022088800091509110730A1007D30A00008
:102BBE00A00BDF2DA10BDF2D08007E088A007F08F9
:102BCE0082000A168A11E4250A168A118000840AE8
:102BDE0004087D0603190034FF0A0319FE0AE82DC6
:102BEE0083120313A200091189100910220888000C
:102BFE00091509110D30A100FB30A000A00B052E08
:102C0E00A10B052E0A2E08008312031385013F30F7
:102C1E00831603138500A130831203139F00023025
:102C2E00831603139F00533083120313A000A00BCF
:102C3E001E2E080083120313981C262E272E2C2ED0
:102C4E00181218160310372E372E7C085506031D42
:102C5E00312E322E342E0310372E0314372E372EEC
:102C6E000800033083120313A4008A30A3005630E9
:102C7E00A200A20B402EA30B402EA40B402E472EDB
:102C8E0080300A168A11AE260A168A1184300A1668
:102C9E008A11AE260A168A1108000A168A11F12622
:102CAE000A168A11831203134008803AFF008030FF
:102CBE007F02031D642E65303F02031C672E682EB3
:102CCE006C2E03106F2E6F2E6F2E03146F2E6F2E21
:102CDE00080083120313A800A1015008013EA700AB
:102CEE002708A20028080A128A1550230A168A11EC
:102CFE00013083120313A7002708D007A101A201F8
:102D0E0050080A128A1550230A168A1108008312D7
:102D1E0003136008013A031D952E962EAD2E610801
:102D2E00033A031D9B2E9C2EAD2EA201A301A401DE
:102D3E0000300A128A1530210A168A1104300A163A
:102D4E008A11BF250A168A117017AD2E080083123C
:102D5E000313A100B32EB32E7D08013E0F39590681
:102D6E000319BA2EBB2EB32E8B132108A0007D089B
:102D7E00DE3E84002008831380007D08013E0F395B
:102D8E00A0002008FD00831603130C168B170800F5
:102D9E00D12ED12E0A168A1121260A168A11031C4B
:102DAE00D92EDA2ED12E8B13831203135508CE3E55
:102DBE00840083130008A0002008A1000130A000A9
:102DCE002008D5070F30A0002008D5058B17210845
:102DDE00F02E080000300A128A15CD220A168A112A
:102DEE00831203133C08B801B8073B08B701B707B5
:102DFE000A128A11E7210A168A1183120313380860
:102E0E00C201C2073708C101C1074208C001C0078D
:102E1E004108BF01BF07132F080083120313A4003C
:102E2E002B2F240884000A128A1500200A168A11F4
:102E3E000A168A11D1250A168A110130831203133C
:102E4E00A3002308A4072B2F240884000A128A1536
:102E5E0000200A168A110038031D362F372F182F1F
:102E6E00382F08000F300A168A1187250A168A1184
:102E7E004C300A168A11D1250A168A110A128A15A1
:102E8E00B4240A168A1101300A168A11AE250A16C2
:102E9E008A1183120313D3010314D30DE830AC004F
:102EAE000330AD000A128A11B6230A168A110800E1
:102EBE000F300A168A1187250A168A1152300A1601
:102ECE008A11D1250A168A110A128A158E220A161D
:102EDE008A1103300A168A11AE250A168A1103309A
:102EEE0083120313B8003808D300E830AC00033067
:102EFE00AD000A128A11B6230A168A11080083162B
:102F0E0003138717BF3083120313A0002008831604
:102F1E000313870518151430990018138312031321
:102F2E001813831603131812831203139817181607
:102F3E00831603130C128C1698160030831203138B
:102F4E00D900FD00D500A0002008FC000800831267
:102F5E000313A7000330A6008A30A5005630A40044
:102F6E00A40BB72FA50BB72FA60BB72FBE2F83120F
:102F7E00031327080A168A11AE260A168A1183121F
:102F8E00031322080A168A11AE260A168A11831214
:102F9E00031323080A168A11AE260A168A11080090
:102FAE000F300A168A1187250A168A1142300A1620
:102FBE008A11D1250A168A110A128A15D9230A16E0
:102FCE008A1102300A168A11AE250A168A11E830C5
:102FDE0083120313AC000330AD000A128A11B6231C
:102FEE000A168A11023083120313B8003808D30070
:022FFE000800C9
:02400E0032FF7F
:00000001FF
